{
  "_format": "hh-sol-artifact-1",
  "contractName": "ProjectRegistry",
  "sourceName": "contracts/ProjectRegistry.sol",
  "abi": [
    {
      "inputs": [
        {
          "internalType": "address",
          "name": "initialOwner",
          "type": "address"
        }
      ],
      "stateMutability": "nonpayable",
      "type": "constructor"
    },
    {
      "anonymous": false,
      "inputs": [
        {
          "indexed": true,
          "internalType": "uint256",
          "name": "projectId",
          "type": "uint256"
        },
        {
          "indexed": false,
          "internalType": "uint256",
          "name": "milestoneId",
          "type": "uint256"
        },
        {
          "indexed": false,
          "internalType": "uint256",
          "name": "amountReleased",
          "type": "uint256"
        }
      ],
      "name": "MilestoneCompleted",
      "type": "event"
    },
    {
      "anonymous": false,
      "inputs": [
        {
          "indexed": true,
          "internalType": "address",
          "name": "previousOwner",
          "type": "address"
        },
        {
          "indexed": true,
          "internalType": "address",
          "name": "newOwner",
          "type": "address"
        }
      ],
      "name": "OwnershipTransferred",
      "type": "event"
    },
    {
      "anonymous": false,
      "inputs": [
        {
          "indexed": true,
          "internalType": "uint256",
          "name": "projectId",
          "type": "uint256"
        }
      ],
      "name": "ProjectCancelled",
      "type": "event"
    },
    {
      "anonymous": false,
      "inputs": [
        {
          "indexed": true,
          "internalType": "uint256",
          "name": "projectId",
          "type": "uint256"
        }
      ],
      "name": "ProjectCompleted",
      "type": "event"
    },
    {
      "anonymous": false,
      "inputs": [
        {
          "indexed": true,
          "internalType": "uint256",
          "name": "projectId",
          "type": "uint256"
        },
        {
          "indexed": true,
          "internalType": "address",
          "name": "creator",
          "type": "address"
        },
        {
          "indexed": false,
          "internalType": "string",
          "name": "name",
          "type": "string"
        },
        {
          "indexed": false,
          "internalType": "uint256",
          "name": "targetAmount",
          "type": "uint256"
        }
      ],
      "name": "ProjectCreated",
      "type": "event"
    },
    {
      "anonymous": false,
      "inputs": [
        {
          "indexed": true,
          "internalType": "uint256",
          "name": "projectId",
          "type": "uint256"
        },
        {
          "indexed": true,
          "internalType": "address",
          "name": "donor",
          "type": "address"
        },
        {
          "indexed": false,
          "internalType": "uint256",
          "name": "amount",
          "type": "uint256"
        }
      ],
      "name": "ProjectFunded",
      "type": "event"
    },
    {
      "inputs": [],
      "name": "MAX_PROJECT_AMOUNT",
      "outputs": [
        {
          "internalType": "uint256",
          "name": "",
          "type": "uint256"
        }
      ],
      "stateMutability": "view",
      "type": "function"
    },
    {
      "inputs": [],
      "name": "MIN_PROJECT_AMOUNT",
      "outputs": [
        {
          "internalType": "uint256",
          "name": "",
          "type": "uint256"
        }
      ],
      "stateMutability": "view",
      "type": "function"
    },
    {
      "inputs": [],
      "name": "VERIFIER_THRESHOLD",
      "outputs": [
        {
          "internalType": "uint256",
          "name": "",
          "type": "uint256"
        }
      ],
      "stateMutability": "view",
      "type": "function"
    },
    {
      "inputs": [
        {
          "internalType": "uint256",
          "name": "projectId",
          "type": "uint256"
        },
        {
          "internalType": "string",
          "name": "description",
          "type": "string"
        },
        {
          "internalType": "uint256",
          "name": "targetAmount",
          "type": "uint256"
        }
      ],
      "name": "addMilestone",
      "outputs": [],
      "stateMutability": "nonpayable",
      "type": "function"
    },
    {
      "inputs": [
        {
          "internalType": "string",
          "name": "projectType",
          "type": "string"
        }
      ],
      "name": "addValidProjectType",
      "outputs": [],
      "stateMutability": "nonpayable",
      "type": "function"
    },
    {
      "inputs": [
        {
          "internalType": "address",
          "name": "verifier",
          "type": "address"
        }
      ],
      "name": "addVerifier",
      "outputs": [],
      "stateMutability": "nonpayable",
      "type": "function"
    },
    {
      "inputs": [
        {
          "internalType": "uint256",
          "name": "projectId",
          "type": "uint256"
        }
      ],
      "name": "cancelProject",
      "outputs": [],
      "stateMutability": "nonpayable",
      "type": "function"
    },
    {
      "inputs": [
        {
          "internalType": "uint256",
          "name": "projectId",
          "type": "uint256"
        },
        {
          "internalType": "uint256",
          "name": "milestoneId",
          "type": "uint256"
        }
      ],
      "name": "completeMilestone",
      "outputs": [],
      "stateMutability": "nonpayable",
      "type": "function"
    },
    {
      "inputs": [
        {
          "internalType": "uint256",
          "name": "projectId",
          "type": "uint256"
        }
      ],
      "name": "completeProject",
      "outputs": [],
      "stateMutability": "nonpayable",
      "type": "function"
    },
    {
      "inputs": [
        {
          "internalType": "string",
          "name": "name",
          "type": "string"
        },
        {
          "internalType": "string",
          "name": "description",
          "type": "string"
        },
        {
          "internalType": "string",
          "name": "location",
          "type": "string"
        },
        {
          "internalType": "string",
          "name": "projectType",
          "type": "string"
        },
        {
          "internalType": "uint256",
          "name": "targetAmount",
          "type": "uint256"
        },
        {
          "internalType": "uint256",
          "name": "endDate",
          "type": "uint256"
        },
        {
          "internalType": "string",
          "name": "imageURI",
          "type": "string"
        }
      ],
      "name": "createProject",
      "outputs": [
        {
          "internalType": "uint256",
          "name": "",
          "type": "uint256"
        }
      ],
      "stateMutability": "nonpayable",
      "type": "function"
    },
    {
      "inputs": [
        {
          "internalType": "uint256",
          "name": "projectId",
          "type": "uint256"
        },
        {
          "internalType": "string",
          "name": "message",
          "type": "string"
        }
      ],
      "name": "donateToProject",
      "outputs": [],
      "stateMutability": "payable",
      "type": "function"
    },
    {
      "inputs": [
        {
          "internalType": "uint256",
          "name": "projectId",
          "type": "uint256"
        }
      ],
      "name": "getProject",
      "outputs": [
        {
          "components": [
            {
              "internalType": "uint256",
              "name": "id",
              "type": "uint256"
            },
            {
              "internalType": "address",
              "name": "creator",
              "type": "address"
            },
            {
              "internalType": "string",
              "name": "name",
              "type": "string"
            },
            {
              "internalType": "string",
              "name": "description",
              "type": "string"
            },
            {
              "internalType": "string",
              "name": "location",
              "type": "string"
            },
            {
              "internalType": "string",
              "name": "projectType",
              "type": "string"
            },
            {
              "internalType": "uint256",
              "name": "targetAmount",
              "type": "uint256"
            },
            {
              "internalType": "uint256",
              "name": "currentAmount",
              "type": "uint256"
            },
            {
              "internalType": "uint256",
              "name": "startDate",
              "type": "uint256"
            },
            {
              "internalType": "uint256",
              "name": "endDate",
              "type": "uint256"
            },
            {
              "internalType": "enum ProjectRegistry.ProjectStatus",
              "name": "status",
              "type": "uint8"
            },
            {
              "internalType": "bool",
              "name": "isVerified",
              "type": "bool"
            },
            {
              "internalType": "string",
              "name": "imageURI",
              "type": "string"
            }
          ],
          "internalType": "struct ProjectRegistry.Project",
          "name": "",
          "type": "tuple"
        }
      ],
      "stateMutability": "view",
      "type": "function"
    },
    {
      "inputs": [
        {
          "internalType": "uint256",
          "name": "projectId",
          "type": "uint256"
        }
      ],
      "name": "getProjectDonations",
      "outputs": [
        {
          "components": [
            {
              "internalType": "address",
              "name": "donor",
              "type": "address"
            },
            {
              "internalType": "uint256",
              "name": "amount",
              "type": "uint256"
            },
            {
              "internalType": "uint256",
              "name": "timestamp",
              "type": "uint256"
            },
            {
              "internalType": "string",
              "name": "message",
              "type": "string"
            }
          ],
          "internalType": "struct ProjectRegistry.Donation[]",
          "name": "",
          "type": "tuple[]"
        }
      ],
      "stateMutability": "view",
      "type": "function"
    },
    {
      "inputs": [
        {
          "internalType": "uint256",
          "name": "projectId",
          "type": "uint256"
        }
      ],
      "name": "getProjectMilestones",
      "outputs": [
        {
          "components": [
            {
              "internalType": "uint256",
              "name": "id",
              "type": "uint256"
            },
            {
              "internalType": "string",
              "name": "description",
              "type": "string"
            },
            {
              "internalType": "uint256",
              "name": "targetAmount",
              "type": "uint256"
            },
            {
              "internalType": "uint256",
              "name": "releasedAmount",
              "type": "uint256"
            },
            {
              "internalType": "bool",
              "name": "isCompleted",
              "type": "bool"
            },
            {
              "internalType": "uint256",
              "name": "completionDate",
              "type": "uint256"
            }
          ],
          "internalType": "struct ProjectRegistry.Milestone[]",
          "name": "",
          "type": "tuple[]"
        }
      ],
      "stateMutability": "view",
      "type": "function"
    },
    {
      "inputs": [
        {
          "internalType": "string",
          "name": "projectType",
          "type": "string"
        }
      ],
      "name": "getProjectsByType",
      "outputs": [
        {
          "internalType": "uint256[]",
          "name": "",
          "type": "uint256[]"
        }
      ],
      "stateMutability": "view",
      "type": "function"
    },
    {
      "inputs": [
        {
          "internalType": "address",
          "name": "user",
          "type": "address"
        }
      ],
      "name": "getUserDonations",
      "outputs": [
        {
          "internalType": "uint256[]",
          "name": "",
          "type": "uint256[]"
        }
      ],
      "stateMutability": "view",
      "type": "function"
    },
    {
      "inputs": [],
      "name": "owner",
      "outputs": [
        {
          "internalType": "address",
          "name": "",
          "type": "address"
        }
      ],
      "stateMutability": "view",
      "type": "function"
    },
    {
      "inputs": [
        {
          "internalType": "uint256",
          "name": "",
          "type": "uint256"
        },
        {
          "internalType": "uint256",
          "name": "",
          "type": "uint256"
        }
      ],
      "name": "projectDonations",
      "outputs": [
        {
          "internalType": "address",
          "name": "donor",
          "type": "address"
        },
        {
          "internalType": "uint256",
          "name": "amount",
          "type": "uint256"
        },
        {
          "internalType": "uint256",
          "name": "timestamp",
          "type": "uint256"
        },
        {
          "internalType": "string",
          "name": "message",
          "type": "string"
        }
      ],
      "stateMutability": "view",
      "type": "function"
    },
    {
      "inputs": [
        {
          "internalType": "uint256",
          "name": "",
          "type": "uint256"
        },
        {
          "internalType": "uint256",
          "name": "",
          "type": "uint256"
        }
      ],
      "name": "projectMilestones",
      "outputs": [
        {
          "internalType": "uint256",
          "name": "id",
          "type": "uint256"
        },
        {
          "internalType": "string",
          "name": "description",
          "type": "string"
        },
        {
          "internalType": "uint256",
          "name": "targetAmount",
          "type": "uint256"
        },
        {
          "internalType": "uint256",
          "name": "releasedAmount",
          "type": "uint256"
        },
        {
          "internalType": "bool",
          "name": "isCompleted",
          "type": "bool"
        },
        {
          "internalType": "uint256",
          "name": "completionDate",
          "type": "uint256"
        }
      ],
      "stateMutability": "view",
      "type": "function"
    },
    {
      "inputs": [
        {
          "internalType": "uint256",
          "name": "",
          "type": "uint256"
        }
      ],
      "name": "projects",
      "outputs": [
        {
          "internalType": "uint256",
          "name": "id",
          "type": "uint256"
        },
        {
          "internalType": "address",
          "name": "creator",
          "type": "address"
        },
        {
          "internalType": "string",
          "name": "name",
          "type": "string"
        },
        {
          "internalType": "string",
          "name": "description",
          "type": "string"
        },
        {
          "internalType": "string",
          "name": "location",
          "type": "string"
        },
        {
          "internalType": "string",
          "name": "projectType",
          "type": "string"
        },
        {
          "internalType": "uint256",
          "name": "targetAmount",
          "type": "uint256"
        },
        {
          "internalType": "uint256",
          "name": "currentAmount",
          "type": "uint256"
        },
        {
          "internalType": "uint256",
          "name": "startDate",
          "type": "uint256"
        },
        {
          "internalType": "uint256",
          "name": "endDate",
          "type": "uint256"
        },
        {
          "internalType": "enum ProjectRegistry.ProjectStatus",
          "name": "status",
          "type": "uint8"
        },
        {
          "internalType": "bool",
          "name": "isVerified",
          "type": "bool"
        },
        {
          "internalType": "string",
          "name": "imageURI",
          "type": "string"
        }
      ],
      "stateMutability": "view",
      "type": "function"
    },
    {
      "inputs": [
        {
          "internalType": "address",
          "name": "verifier",
          "type": "address"
        }
      ],
      "name": "removeVerifier",
      "outputs": [],
      "stateMutability": "nonpayable",
      "type": "function"
    },
    {
      "inputs": [],
      "name": "renounceOwnership",
      "outputs": [],
      "stateMutability": "nonpayable",
      "type": "function"
    },
    {
      "inputs": [],
      "name": "totalProjects",
      "outputs": [
        {
          "internalType": "uint256",
          "name": "",
          "type": "uint256"
        }
      ],
      "stateMutability": "view",
      "type": "function"
    },
    {
      "inputs": [
        {
          "internalType": "address",
          "name": "newOwner",
          "type": "address"
        }
      ],
      "name": "transferOwnership",
      "outputs": [],
      "stateMutability": "nonpayable",
      "type": "function"
    },
    {
      "inputs": [
        {
          "internalType": "address",
          "name": "",
          "type": "address"
        },
        {
          "internalType": "uint256",
          "name": "",
          "type": "uint256"
        }
      ],
      "name": "userDonations",
      "outputs": [
        {
          "internalType": "uint256",
          "name": "",
          "type": "uint256"
        }
      ],
      "stateMutability": "view",
      "type": "function"
    },
    {
      "inputs": [
        {
          "internalType": "string",
          "name": "",
          "type": "string"
        }
      ],
      "name": "validProjectTypes",
      "outputs": [
        {
          "internalType": "bool",
          "name": "",
          "type": "bool"
        }
      ],
      "stateMutability": "view",
      "type": "function"
    },
    {
      "inputs": [
        {
          "internalType": "address",
          "name": "",
          "type": "address"
        }
      ],
      "name": "verifiers",
      "outputs": [
        {
          "internalType": "bool",
          "name": "",
          "type": "bool"
        }
      ],
      "stateMutability": "view",
      "type": "function"
    },
    {
      "inputs": [
        {
          "internalType": "uint256",
          "name": "projectId",
          "type": "uint256"
        }
      ],
      "name": "verifyProject",
      "outputs": [],
      "stateMutability": "nonpayable",
      "type": "function"
    }
  ],
  "bytecode": "0x60806040523480156200001157600080fd5b5060405162002f7138038062002f718339810160408190526200003491620001eb565b6200003f336200019b565b6001600160a01b031660009081526006602052604090819020805460ff19908116600190811790925582516c747265655f706c616e74696e6760981b81526007600d8201819052845191829003602d0182208054841685179055701cdbdb185c97d9195d995b1bdc1b595b9d607a1b825260118083018290528551928390036031908101842080548616871790556b31b7b739b2b93b30ba34b7b760a11b8452600c8401839052865193849003602c0184208054861687179055703bb0ba32b92fb932b9ba37b930ba34b7b760791b845290830182905285519283900301822080548416851790557f77696c646c6966655f70726f74656374696f6e0000000000000000000000000082526013820181905284519182900360330182208054841685179055716167726963756c747572616c5f746f6f6c7360701b8252601282015292519283900360320190922080549092161790556200021d565b600080546001600160a01b038381166001600160a01b0319831681178455604051919092169283917f8be0079c531659141344cd1fd0a4f28419497f9722a3daafe3b4186f6b6457e09190a35050565b600060208284031215620001fe57600080fd5b81516001600160a01b03811681146200021657600080fd5b9392505050565b612d44806200022d6000396000f3fe6080604052600436106101b75760003560e01c80637be7ec64116100ec578063c56f3cac1161008a578063f0f3f2c811610064578063f0f3f2c814610525578063f2fde38b14610552578063f326206b14610572578063f5d19e811461059257600080fd5b8063c56f3cac146104b5578063ca2dfd0a146104e5578063ed1ca91a1461050557600080fd5b80639000b3d6116100c65780639000b3d61461044b578063938785161461046b57806398df912e146104805780639c361e4e146104a057600080fd5b80637be7ec64146103f05780638d3ad7e1146104105780638da5cb5b1461042357600080fd5b80634e96a41d116101595780636cb0adba116101335780636cb0adba146103615780636dee88e314610393578063715018a6146103ae578063732435b2146103c357600080fd5b80634e96a41d146102d757806352766d80146102f45780636c8244871461032157600080fd5b80632245f152116101955780632245f15214610255578063249411471461027757806332d856ac146102975780634933e631146102b757600080fd5b8063043be19c146101bc5780630ccc9c30146101ef578063107046bd1461021c575b600080fd5b3480156101c857600080fd5b506101dc6101d736600461238a565b6105cd565b6040519081526020015b60405180910390f35b3480156101fb57600080fd5b5061020f61020a36600461246f565b61092c565b6040516101e691906124d8565b34801561022857600080fd5b5061023c61023736600461246f565b610a5b565b6040516101e69d9c9b9a999897969594939291906125a4565b34801561026157600080fd5b5061027561027036600461246f565b610d7b565b005b34801561028357600080fd5b5061027561029236600461246f565b610eba565b3480156102a357600080fd5b506102756102b2366004612663565b610fe6565b3480156102c357600080fd5b506101dc6102d23660046126bc565b611023565b3480156102e357600080fd5b506101dc683635c9adc5dea0000081565b34801561030057600080fd5b5061031461030f36600461246f565b611054565b6040516101e691906126e6565b34801561032d57600080fd5b5061035161033c366004612779565b60066020526000908152604090205460ff1681565b60405190151581526020016101e6565b34801561036d57600080fd5b5061038161037c36600461279b565b61118a565b6040516101e6969594939291906127bd565b34801561039f57600080fd5b506101dc662386f26fc1000081565b3480156103ba57600080fd5b50610275611272565b3480156103cf57600080fd5b506103e36103de366004612779565b611286565b6040516101e691906127fb565b3480156103fc57600080fd5b506103e361040b366004612663565b6112f2565b61027561041e36600461283f565b61146c565b34801561042f57600080fd5b506000546040516001600160a01b0390911681526020016101e6565b34801561045757600080fd5b50610275610466366004612779565b611741565b34801561047757600080fd5b506101dc600381565b34801561048c57600080fd5b5061027561049b366004612886565b61176d565b3480156104ac57600080fd5b506101dc611984565b3480156104c157600080fd5b506104d56104d036600461279b565b611994565b6040516101e694939291906128d6565b3480156104f157600080fd5b50610275610500366004612779565b611a70565b34801561051157600080fd5b5061027561052036600461246f565b611a99565b34801561053157600080fd5b5061054561054036600461246f565b611b37565b6040516101e6919061290d565b34801561055e57600080fd5b5061027561056d366004612779565b611f00565b34801561057e57600080fd5b5061027561058d36600461279b565b611f79565b34801561059e57600080fd5b506103516105ad366004612663565b805160208183018101805160078252928201919093012091525460ff1681565b6000846007816040516105e09190612a23565b9081526040519081900360200190205460ff166106525760405162461bcd60e51b815260206004820152602560248201527f50726f6a65637452656769737472793a20696e76616c69642070726f6a656374604482015264207479706560d81b60648201526084015b60405180910390fd5b662386f26fc1000085101580156106725750683635c9adc5dea000008511155b6106cd5760405162461bcd60e51b815260206004820152602660248201527f50726f6a65637452656769737472793a20696e76616c69642074617267657420604482015265185b5bdd5b9d60d21b6064820152608401610649565b4284116107345760405162461bcd60e51b815260206004820152602f60248201527f50726f6a65637452656769737472793a20656e642064617465206d757374206260448201526e6520696e207468652066757475726560881b6064820152608401610649565b610742600180546001019055565b600061074d60015490565b9050604051806101a00160405280828152602001336001600160a01b031681526020018b81526020018a815260200189815260200188815260200187815260200160008152602001428152602001868152602001600060038111156107b4576107b461256c565b815260006020808301829052604092830188905284825260028082529183902084518155908401516001820180546001600160a01b0319166001600160a01b03909216919091179055918301519082019061080f9082612ac8565b50606082015160038201906108249082612ac8565b50608082015160048201906108399082612ac8565b5060a0820151600582019061084e9082612ac8565b5060c0820151600682015560e0820151600782015561010082015160088201556101208201516009820155610140820151600a8201805460ff1916600183600381111561089d5761089d61256c565b0217905550610160820151600a820180549115156101000261ff0019909216919091179055610180820151600b8201906108d79082612ac8565b50905050336001600160a01b0316817f51d08cb6cfa640a387210fb69df925dfb70169ae7373f8ecd40b977b0c800d9a8c89604051610917929190612b88565b60405180910390a39998505050505050505050565b606060046000838152602001908152602001600020805480602002602001604051908101604052809291908181526020016000905b82821015610a50576000848152602090819020604080516080810182526004860290920180546001600160a01b031683526001810154938301939093526002830154908201526003820180549192916060840191906109bf90612a3f565b80601f01602080910402602001604051908101604052809291908181526020018280546109eb90612a3f565b8015610a385780601f10610a0d57610100808354040283529160200191610a38565b820191906000526020600020905b815481529060010190602001808311610a1b57829003601f168201915b50505050508152505081526020019060010190610961565b505050509050919050565b600260208190526000918252604090912080546001820154928201805491936001600160a01b03169291610a8e90612a3f565b80601f0160208091040260200160405190810160405280929190818152602001828054610aba90612a3f565b8015610b075780601f10610adc57610100808354040283529160200191610b07565b820191906000526020600020905b815481529060010190602001808311610aea57829003601f168201915b505050505090806003018054610b1c90612a3f565b80601f0160208091040260200160405190810160405280929190818152602001828054610b4890612a3f565b8015610b955780601f10610b6a57610100808354040283529160200191610b95565b820191906000526020600020905b815481529060010190602001808311610b7857829003601f168201915b505050505090806004018054610baa90612a3f565b80601f0160208091040260200160405190810160405280929190818152602001828054610bd690612a3f565b8015610c235780601f10610bf857610100808354040283529160200191610c23565b820191906000526020600020905b815481529060010190602001808311610c0657829003601f168201915b505050505090806005018054610c3890612a3f565b80601f0160208091040260200160405190810160405280929190818152602001828054610c6490612a3f565b8015610cb15780601f10610c8657610100808354040283529160200191610cb1565b820191906000526020600020905b815481529060010190602001808311610c9457829003601f168201915b5050506006840154600785015460088601546009870154600a880154600b8901805498999598949750929550909360ff8083169461010090930416929091610cf890612a3f565b80601f0160208091040260200160405190810160405280929190818152602001828054610d2490612a3f565b8015610d715780601f10610d4657610100808354040283529160200191610d71565b820191906000526020600020905b815481529060010190602001808311610d5457829003601f168201915b505050505090508d565b3360009081526006602052604090205460ff1680610da357506000546001600160a01b031633145b610dbf5760405162461bcd60e51b815260040161064990612baa565b60008181526002602052604090206001015481906001600160a01b0316610df85760405162461bcd60e51b815260040161064990612bf3565b600082815260026020526040902060068101546007909101541015610e735760405162461bcd60e51b815260206004820152602b60248201527f50726f6a65637452656769737472793a2070726f6a656374207461726765742060448201526a1b9bdd081c995858da195960aa1b6064820152608401610649565b600082815260026020526040808220600a01805460ff191660011790555183917f60d8df137e489b6216738e436244ca4700bd6d0c8371d3c8d9c80b54538111b991a25050565b60008181526002602052604090206001015481906001600160a01b0316610ef35760405162461bcd60e51b815260040161064990612bf3565b6000828152600260205260409020600101546001600160a01b0316331480610f2a57503360009081526006602052604090205460ff165b610f9c5760405162461bcd60e51b815260206004820152603c60248201527f50726f6a65637452656769737472793a206f6e6c792063726561746f72206f7260448201527f2076657269666965722063616e2063616e63656c2070726f6a656374000000006064820152608401610649565b6000828152600260208190526040808320600a01805460ff19169092179091555183917fe3805ed669490875ae87c5c8b1ad6ecca0e5e67305a833926d0d4317c4822fc091a25050565b610fee6121bb565b60016007826040516110009190612a23565b908152604051908190036020019020805491151560ff1990921691909117905550565b6005602052816000526040600020818154811061103f57600080fd5b90600052602060002001600091509150505481565b606060036000838152602001908152602001600020805480602002602001604051908101604052809291908181526020016000905b82821015610a5057838290600052602060002090600602016040518060c0016040529081600082015481526020016001820180546110c690612a3f565b80601f01602080910402602001604051908101604052809291908181526020018280546110f290612a3f565b801561113f5780601f106111145761010080835404028352916020019161113f565b820191906000526020600020905b81548152906001019060200180831161112257829003601f168201915b5050509183525050600282015460208083019190915260038301546040830152600483015460ff16151560608301526005909201546080909101529082526001929092019101611089565b600360205281600052604060002081815481106111a657600080fd5b9060005260206000209060060201600091509150508060000154908060010180546111d090612a3f565b80601f01602080910402602001604051908101604052809291908181526020018280546111fc90612a3f565b80156112495780601f1061121e57610100808354040283529160200191611249565b820191906000526020600020905b81548152906001019060200180831161122c57829003601f168201915b5050506002840154600385015460048601546005909601549495919490935060ff909116915086565b61127a6121bb565b6112846000612215565b565b6001600160a01b0381166000908152600560209081526040918290208054835181840281018401909452808452606093928301828280156112e657602002820191906000526020600020905b8154815260200190600101908083116112d2575b50505050509050919050565b606060006112ff60015490565b67ffffffffffffffff811115611317576113176122e7565b604051908082528060200260200182016040528015611340578160200160208202803683370190505b509050600060015b60015481116113c75784805190602001206002600083815260200190815260200160002060050160405161137c9190612c3a565b6040518091039020036113b5578083838151811061139c5761139c612cb0565b6020908102919091010152816113b181612cdc565b9250505b806113bf81612cdc565b915050611348565b5060008167ffffffffffffffff8111156113e3576113e36122e7565b60405190808252806020026020018201604052801561140c578160200160208202803683370190505b50905060005b828110156114635783818151811061142c5761142c612cb0565b602002602001015182828151811061144657611446612cb0565b60209081029190910101528061145b81612cdc565b915050611412565b50949350505050565b60008281526002602052604090206001015482906001600160a01b03166114a55760405162461bcd60e51b815260040161064990612bf3565b82600080828152600260205260409020600a015460ff1660038111156114cd576114cd61256c565b146115295760405162461bcd60e51b815260206004820152602660248201527f50726f6a65637452656769737472793a2070726f6a656374206973206e6f742060448201526561637469766560d01b6064820152608401610649565b6000341161159f5760405162461bcd60e51b815260206004820152603760248201527f50726f6a65637452656769737472793a20646f6e6174696f6e20616d6f756e7460448201527f206d7573742062652067726561746572207468616e20300000000000000000006064820152608401610649565b600084815260026020526040902060068101546007909101546115c3903490612cf5565b11156116255760405162461bcd60e51b815260206004820152602b60248201527f50726f6a65637452656769737472793a20776f756c642065786365656420746160448201526a1c99d95d08185b5bdd5b9d60aa1b6064820152608401610649565b60008481526002602052604081206007018054349290611646908490612cf5565b909155505060408051608081018252338152346020808301918252428385019081526060840188815260008a815260048085529681208054600180820183559183529490912086519490970290960180546001600160a01b0319166001600160a01b0390941693909317835592519482019490945592516002840155519091829160038201906116d69082612ac8565b5050336000818152600560209081526040808320805460018101825590845291909220018890555190915086907f6251418ffd7f504740544ec3d578897633e212c5d658b7dce793c5dc9d2e855e906117329034815260200190565b60405180910390a35050505050565b6117496121bb565b6001600160a01b03166000908152600660205260409020805460ff19166001179055565b60008381526002602052604090206001015483906001600160a01b03166117a65760405162461bcd60e51b815260040161064990612bf3565b6000848152600260205260409020600101546001600160a01b03163314806117dd57503360009081526006602052604090205460ff165b61184f5760405162461bcd60e51b815260206004820152603c60248201527f50726f6a65637452656769737472793a206f6e6c792063726561746f72206f7260448201527f2076657269666965722063616e20616464206d696c6573746f6e6573000000006064820152608401610649565b6000848152600260205260409020600601548211156118d65760405162461bcd60e51b815260206004820152603860248201527f50726f6a65637452656769737472793a206d696c6573746f6e6520616d6f756e60448201527f7420657863656564732070726f6a6563742074617267657400000000000000006064820152608401610649565b6040805160c08101825260008681526003602081815284832080548086528286018a8152968601899052606086018590526080860185905260a08601859052928252600180840182559084529220835160069092020190815592519192839290918201906119449082612ac8565b506040820151600282015560608201516003820155608082015160048201805460ff191691151591909117905560a0909101516005909101555050505050565b600061198f60015490565b905090565b600460205281600052604060002081815481106119b057600080fd5b600091825260209091206004909102018054600182015460028301546003840180546001600160a01b03909416965091945092916119ed90612a3f565b80601f0160208091040260200160405190810160405280929190818152602001828054611a1990612a3f565b8015611a665780601f10611a3b57610100808354040283529160200191611a66565b820191906000526020600020905b815481529060010190602001808311611a4957829003601f168201915b5050505050905084565b611a786121bb565b6001600160a01b03166000908152600660205260409020805460ff19169055565b3360009081526006602052604090205460ff1680611ac157506000546001600160a01b031633145b611add5760405162461bcd60e51b815260040161064990612baa565b60008181526002602052604090206001015481906001600160a01b0316611b165760405162461bcd60e51b815260040161064990612bf3565b506000908152600260205260409020600a01805461ff001916610100179055565b611b3f612265565b6000828152600260205260409020600101546001600160a01b0316611b765760405162461bcd60e51b815260040161064990612bf3565b60008281526002602081815260409283902083516101a0810185528154815260018201546001600160a01b03169281019290925291820180549193840191611bbd90612a3f565b80601f0160208091040260200160405190810160405280929190818152602001828054611be990612a3f565b8015611c365780601f10611c0b57610100808354040283529160200191611c36565b820191906000526020600020905b815481529060010190602001808311611c1957829003601f168201915b50505050508152602001600382018054611c4f90612a3f565b80601f0160208091040260200160405190810160405280929190818152602001828054611c7b90612a3f565b8015611cc85780601f10611c9d57610100808354040283529160200191611cc8565b820191906000526020600020905b815481529060010190602001808311611cab57829003601f168201915b50505050508152602001600482018054611ce190612a3f565b80601f0160208091040260200160405190810160405280929190818152602001828054611d0d90612a3f565b8015611d5a5780601f10611d2f57610100808354040283529160200191611d5a565b820191906000526020600020905b815481529060010190602001808311611d3d57829003601f168201915b50505050508152602001600582018054611d7390612a3f565b80601f0160208091040260200160405190810160405280929190818152602001828054611d9f90612a3f565b8015611dec5780601f10611dc157610100808354040283529160200191611dec565b820191906000526020600020905b815481529060010190602001808311611dcf57829003601f168201915b505050918352505060068201546020820152600782015460408201526008820154606082015260098201546080820152600a82015460a09091019060ff166003811115611e3b57611e3b61256c565b6003811115611e4c57611e4c61256c565b8152600a820154610100900460ff1615156020820152600b82018054604090920191611e7790612a3f565b80601f0160208091040260200160405190810160405280929190818152602001828054611ea390612a3f565b8015611ef05780601f10611ec557610100808354040283529160200191611ef0565b820191906000526020600020905b815481529060010190602001808311611ed357829003601f168201915b5050505050815250509050919050565b611f086121bb565b6001600160a01b038116611f6d5760405162461bcd60e51b815260206004820152602660248201527f4f776e61626c653a206e6577206f776e657220697320746865207a65726f206160448201526564647265737360d01b6064820152608401610649565b611f7681612215565b50565b3360009081526006602052604090205460ff1680611fa157506000546001600160a01b031633145b611fbd5760405162461bcd60e51b815260040161064990612baa565b60008281526002602052604090206001015482906001600160a01b0316611ff65760405162461bcd60e51b815260040161064990612bf3565b60008381526003602052604090205482106120655760405162461bcd60e51b815260206004820152602960248201527f50726f6a65637452656769737472793a206d696c6573746f6e6520646f6573206044820152681b9bdd08195e1a5cdd60ba1b6064820152608401610649565b600083815260036020526040812080548490811061208557612085612cb0565b60009182526020909120600690910201600481015490915060ff16156121025760405162461bcd60e51b815260206004820152602c60248201527f50726f6a65637452656769737472793a206d696c6573746f6e6520616c72656160448201526b191e4818dbdb5c1b195d195960a21b6064820152608401610649565b60048101805460ff1916600190811790915542600583015560028083015460038401819055600087815260209290925260408083209093015492516001600160a01b039093169281156108fc0292818181858888f1935050505015801561216d573d6000803e3d6000fd5b50837fd4dbda378623f00b72ef135b4579b7ba064c49645217eb107d663831efac63588483600201546040516121ad929190918252602082015260400190565b60405180910390a250505050565b6000546001600160a01b031633146112845760405162461bcd60e51b815260206004820181905260248201527f4f776e61626c653a2063616c6c6572206973206e6f7420746865206f776e65726044820152606401610649565b600080546001600160a01b038381166001600160a01b0319831681178455604051919092169283917f8be0079c531659141344cd1fd0a4f28419497f9722a3daafe3b4186f6b6457e09190a35050565b604051806101a001604052806000815260200160006001600160a01b031681526020016060815260200160608152602001606081526020016060815260200160008152602001600081526020016000815260200160008152602001600060038111156122d3576122d361256c565b815260006020820152606060409091015290565b634e487b7160e01b600052604160045260246000fd5b600082601f83011261230e57600080fd5b813567ffffffffffffffff80821115612329576123296122e7565b604051601f8301601f19908116603f01168101908282118183101715612351576123516122e7565b8160405283815286602085880101111561236a57600080fd5b836020870160208301376000602085830101528094505050505092915050565b600080600080600080600060e0888a0312156123a557600080fd5b873567ffffffffffffffff808211156123bd57600080fd5b6123c98b838c016122fd565b985060208a01359150808211156123df57600080fd5b6123eb8b838c016122fd565b975060408a013591508082111561240157600080fd5b61240d8b838c016122fd565b965060608a013591508082111561242357600080fd5b61242f8b838c016122fd565b955060808a0135945060a08a0135935060c08a013591508082111561245357600080fd5b506124608a828b016122fd565b91505092959891949750929550565b60006020828403121561248157600080fd5b5035919050565b60005b838110156124a357818101518382015260200161248b565b50506000910152565b600081518084526124c4816020860160208601612488565b601f01601f19169290920160200192915050565b60006020808301818452808551808352604092508286019150828160051b87010184880160005b8381101561255e57888303603f19018552815180516001600160a01b031684528781015188850152868101518785015260609081015160809185018290529061254a818601836124ac565b9689019694505050908601906001016124ff565b509098975050505050505050565b634e487b7160e01b600052602160045260246000fd5b600481106125a057634e487b7160e01b600052602160045260246000fd5b9052565b8d81526001600160a01b038d1660208201526101a0604082015260006125ce6101a083018e6124ac565b82810360608401526125e0818e6124ac565b905082810360808401526125f4818d6124ac565b905082810360a0840152612608818c6124ac565b90508960c08401528860e08401528761010084015286610120840152612632610140840187612582565b84151561016084015282810361018084015261264e81856124ac565b9150509e9d5050505050505050505050505050565b60006020828403121561267557600080fd5b813567ffffffffffffffff81111561268c57600080fd5b612698848285016122fd565b949350505050565b80356001600160a01b03811681146126b757600080fd5b919050565b600080604083850312156126cf57600080fd5b6126d8836126a0565b946020939093013593505050565b60006020808301818452808551808352604092508286019150828160051b87010184880160005b8381101561255e57603f19898403018552815160c08151855288820151818a87015261273b828701826124ac565b838a0151878b01526060808501519088015260808085015115159088015260a09384015193909601929092525050938601939086019060010161270d565b60006020828403121561278b57600080fd5b612794826126a0565b9392505050565b600080604083850312156127ae57600080fd5b50508035926020909101359150565b86815260c0602082015260006127d660c08301886124ac565b6040830196909652506060810193909352901515608083015260a09091015292915050565b6020808252825182820181905260009190848201906040850190845b8181101561283357835183529284019291840191600101612817565b50909695505050505050565b6000806040838503121561285257600080fd5b82359150602083013567ffffffffffffffff81111561287057600080fd5b61287c858286016122fd565b9150509250929050565b60008060006060848603121561289b57600080fd5b83359250602084013567ffffffffffffffff8111156128b957600080fd5b6128c5868287016122fd565b925050604084013590509250925092565b60018060a01b038516815283602082015282604082015260806060820152600061290360808301846124ac565b9695505050505050565b60208152815160208201526000602083015161293460408401826001600160a01b03169052565b5060408301516101a08060608501526129516101c08501836124ac565b91506060850151601f198086850301608087015261296f84836124ac565b935060808701519150808685030160a087015261298c84836124ac565b935060a08701519150808685030160c08701526129a984836124ac565b60c088015160e08881019190915288015161010080890191909152880151610120808901919091528801516101408089019190915288015190945091506101606129f581880184612582565b8701519150610180612a0a8782018415159052565b87015186850390910183870152905061290383826124ac565b60008251612a35818460208701612488565b9190910192915050565b600181811c90821680612a5357607f821691505b602082108103612a7357634e487b7160e01b600052602260045260246000fd5b50919050565b601f821115612ac357600081815260208120601f850160051c81016020861015612aa05750805b601f850160051c820191505b81811015612abf57828155600101612aac565b5050505b505050565b815167ffffffffffffffff811115612ae257612ae26122e7565b612af681612af08454612a3f565b84612a79565b602080601f831160018114612b2b5760008415612b135750858301515b600019600386901b1c1916600185901b178555612abf565b600085815260208120601f198616915b82811015612b5a57888601518255948401946001909101908401612b3b565b5085821015612b785787850151600019600388901b60f8161c191681555b5050505050600190811b01905550565b604081526000612b9b60408301856124ac565b90508260208301529392505050565b60208082526029908201527f50726f6a65637452656769737472793a2063616c6c6572206973206e6f742061604082015268103b32b934b334b2b960b91b606082015260800190565b60208082526027908201527f50726f6a65637452656769737472793a2070726f6a65637420646f6573206e6f6040820152661d08195e1a5cdd60ca1b606082015260800190565b6000808354612c4881612a3f565b60018281168015612c605760018114612c7557612ca4565b60ff1984168752821515830287019450612ca4565b8760005260208060002060005b85811015612c9b5781548a820152908401908201612c82565b50505082870194505b50929695505050505050565b634e487b7160e01b600052603260045260246000fd5b634e487b7160e01b600052601160045260246000fd5b600060018201612cee57612cee612cc6565b5060010190565b80820180821115612d0857612d08612cc6565b9291505056fea264697066735822122022b7c79d63750bb81ccbcdc34272aca736464223122f2469ad48b5fb8e74ddd464736f6c63430008140033",
  "linkReferences": {},
  "deployedLinkReferences": {}
}