{
  "_format": "hh-sol-artifact-1",
  "contractName": "LeafToken",
  "sourceName": "contracts/LeafToken.sol",
  "abi": [
    {
      "inputs": [
        {
          "internalType": "address",
          "name": "initialOwner",
          "type": "address"
        }
      ],
      "stateMutability": "nonpayable",
      "type": "constructor"
    },
    {
      "inputs": [],
      "name": "InvalidShortString",
      "type": "error"
    },
    {
      "inputs": [
        {
          "internalType": "string",
          "name": "str",
          "type": "string"
        }
      ],
      "name": "StringTooLong",
      "type": "error"
    },
    {
      "anonymous": false,
      "inputs": [
        {
          "indexed": true,
          "internalType": "address",
          "name": "owner",
          "type": "address"
        },
        {
          "indexed": true,
          "internalType": "address",
          "name": "spender",
          "type": "address"
        },
        {
          "indexed": false,
          "internalType": "uint256",
          "name": "value",
          "type": "uint256"
        }
      ],
      "name": "Approval",
      "type": "event"
    },
    {
      "anonymous": false,
      "inputs": [
        {
          "indexed": true,
          "internalType": "address",
          "name": "delegator",
          "type": "address"
        },
        {
          "indexed": true,
          "internalType": "address",
          "name": "fromDelegate",
          "type": "address"
        },
        {
          "indexed": true,
          "internalType": "address",
          "name": "toDelegate",
          "type": "address"
        }
      ],
      "name": "DelegateChanged",
      "type": "event"
    },
    {
      "anonymous": false,
      "inputs": [
        {
          "indexed": true,
          "internalType": "address",
          "name": "delegate",
          "type": "address"
        },
        {
          "indexed": false,
          "internalType": "uint256",
          "name": "previousBalance",
          "type": "uint256"
        },
        {
          "indexed": false,
          "internalType": "uint256",
          "name": "newBalance",
          "type": "uint256"
        }
      ],
      "name": "DelegateVotesChanged",
      "type": "event"
    },
    {
      "anonymous": false,
      "inputs": [],
      "name": "EIP712DomainChanged",
      "type": "event"
    },
    {
      "anonymous": false,
      "inputs": [
        {
          "indexed": true,
          "internalType": "address",
          "name": "previousOwner",
          "type": "address"
        },
        {
          "indexed": true,
          "internalType": "address",
          "name": "newOwner",
          "type": "address"
        }
      ],
      "name": "OwnershipTransferred",
      "type": "event"
    },
    {
      "anonymous": false,
      "inputs": [
        {
          "indexed": true,
          "internalType": "address",
          "name": "from",
          "type": "address"
        },
        {
          "indexed": false,
          "internalType": "uint256",
          "name": "amount",
          "type": "uint256"
        },
        {
          "indexed": false,
          "internalType": "string",
          "name": "reason",
          "type": "string"
        }
      ],
      "name": "TokensBurned",
      "type": "event"
    },
    {
      "anonymous": false,
      "inputs": [
        {
          "indexed": true,
          "internalType": "address",
          "name": "to",
          "type": "address"
        },
        {
          "indexed": false,
          "internalType": "uint256",
          "name": "amount",
          "type": "uint256"
        },
        {
          "indexed": false,
          "internalType": "string",
          "name": "reason",
          "type": "string"
        }
      ],
      "name": "TokensMinted",
      "type": "event"
    },
    {
      "anonymous": false,
      "inputs": [
        {
          "indexed": true,
          "internalType": "address",
          "name": "from",
          "type": "address"
        },
        {
          "indexed": true,
          "internalType": "address",
          "name": "to",
          "type": "address"
        },
        {
          "indexed": false,
          "internalType": "uint256",
          "name": "value",
          "type": "uint256"
        }
      ],
      "name": "Transfer",
      "type": "event"
    },
    {
      "inputs": [],
      "name": "CLOCK_MODE",
      "outputs": [
        {
          "internalType": "string",
          "name": "",
          "type": "string"
        }
      ],
      "stateMutability": "view",
      "type": "function"
    },
    {
      "inputs": [],
      "name": "DOMAIN_SEPARATOR",
      "outputs": [
        {
          "internalType": "bytes32",
          "name": "",
          "type": "bytes32"
        }
      ],
      "stateMutability": "view",
      "type": "function"
    },
    {
      "inputs": [],
      "name": "INITIAL_SUPPLY",
      "outputs": [
        {
          "internalType": "uint256",
          "name": "",
          "type": "uint256"
        }
      ],
      "stateMutability": "view",
      "type": "function"
    },
    {
      "inputs": [],
      "name": "MAX_SUPPLY",
      "outputs": [
        {
          "internalType": "uint256",
          "name": "",
          "type": "uint256"
        }
      ],
      "stateMutability": "view",
      "type": "function"
    },
    {
      "inputs": [
        {
          "internalType": "address",
          "name": "minter",
          "type": "address"
        }
      ],
      "name": "addMinter",
      "outputs": [],
      "stateMutability": "nonpayable",
      "type": "function"
    },
    {
      "inputs": [
        {
          "internalType": "address",
          "name": "owner",
          "type": "address"
        },
        {
          "internalType": "address",
          "name": "spender",
          "type": "address"
        }
      ],
      "name": "allowance",
      "outputs": [
        {
          "internalType": "uint256",
          "name": "",
          "type": "uint256"
        }
      ],
      "stateMutability": "view",
      "type": "function"
    },
    {
      "inputs": [
        {
          "internalType": "address",
          "name": "spender",
          "type": "address"
        },
        {
          "internalType": "uint256",
          "name": "amount",
          "type": "uint256"
        }
      ],
      "name": "approve",
      "outputs": [
        {
          "internalType": "bool",
          "name": "",
          "type": "bool"
        }
      ],
      "stateMutability": "nonpayable",
      "type": "function"
    },
    {
      "inputs": [
        {
          "internalType": "address",
          "name": "account",
          "type": "address"
        }
      ],
      "name": "balanceOf",
      "outputs": [
        {
          "internalType": "uint256",
          "name": "",
          "type": "uint256"
        }
      ],
      "stateMutability": "view",
      "type": "function"
    },
    {
      "inputs": [
        {
          "internalType": "address",
          "name": "from",
          "type": "address"
        },
        {
          "internalType": "uint256",
          "name": "amount",
          "type": "uint256"
        },
        {
          "internalType": "string",
          "name": "reason",
          "type": "string"
        }
      ],
      "name": "burn",
      "outputs": [],
      "stateMutability": "nonpayable",
      "type": "function"
    },
    {
      "inputs": [
        {
          "internalType": "address",
          "name": "account",
          "type": "address"
        },
        {
          "internalType": "uint32",
          "name": "pos",
          "type": "uint32"
        }
      ],
      "name": "checkpoints",
      "outputs": [
        {
          "components": [
            {
              "internalType": "uint32",
              "name": "fromBlock",
              "type": "uint32"
            },
            {
              "internalType": "uint224",
              "name": "votes",
              "type": "uint224"
            }
          ],
          "internalType": "struct ERC20Votes.Checkpoint",
          "name": "",
          "type": "tuple"
        }
      ],
      "stateMutability": "view",
      "type": "function"
    },
    {
      "inputs": [],
      "name": "clock",
      "outputs": [
        {
          "internalType": "uint48",
          "name": "",
          "type": "uint48"
        }
      ],
      "stateMutability": "view",
      "type": "function"
    },
    {
      "inputs": [],
      "name": "decimals",
      "outputs": [
        {
          "internalType": "uint8",
          "name": "",
          "type": "uint8"
        }
      ],
      "stateMutability": "view",
      "type": "function"
    },
    {
      "inputs": [
        {
          "internalType": "address",
          "name": "spender",
          "type": "address"
        },
        {
          "internalType": "uint256",
          "name": "subtractedValue",
          "type": "uint256"
        }
      ],
      "name": "decreaseAllowance",
      "outputs": [
        {
          "internalType": "bool",
          "name": "",
          "type": "bool"
        }
      ],
      "stateMutability": "nonpayable",
      "type": "function"
    },
    {
      "inputs": [
        {
          "internalType": "address",
          "name": "delegatee",
          "type": "address"
        }
      ],
      "name": "delegate",
      "outputs": [],
      "stateMutability": "nonpayable",
      "type": "function"
    },
    {
      "inputs": [
        {
          "internalType": "address",
          "name": "delegatee",
          "type": "address"
        },
        {
          "internalType": "uint256",
          "name": "nonce",
          "type": "uint256"
        },
        {
          "internalType": "uint256",
          "name": "expiry",
          "type": "uint256"
        },
        {
          "internalType": "uint8",
          "name": "v",
          "type": "uint8"
        },
        {
          "internalType": "bytes32",
          "name": "r",
          "type": "bytes32"
        },
        {
          "internalType": "bytes32",
          "name": "s",
          "type": "bytes32"
        }
      ],
      "name": "delegateBySig",
      "outputs": [],
      "stateMutability": "nonpayable",
      "type": "function"
    },
    {
      "inputs": [
        {
          "internalType": "address",
          "name": "account",
          "type": "address"
        }
      ],
      "name": "delegates",
      "outputs": [
        {
          "internalType": "address",
          "name": "",
          "type": "address"
        }
      ],
      "stateMutability": "view",
      "type": "function"
    },
    {
      "inputs": [],
      "name": "eip712Domain",
      "outputs": [
        {
          "internalType": "bytes1",
          "name": "fields",
          "type": "bytes1"
        },
        {
          "internalType": "string",
          "name": "name",
          "type": "string"
        },
        {
          "internalType": "string",
          "name": "version",
          "type": "string"
        },
        {
          "internalType": "uint256",
          "name": "chainId",
          "type": "uint256"
        },
        {
          "internalType": "address",
          "name": "verifyingContract",
          "type": "address"
        },
        {
          "internalType": "bytes32",
          "name": "salt",
          "type": "bytes32"
        },
        {
          "internalType": "uint256[]",
          "name": "extensions",
          "type": "uint256[]"
        }
      ],
      "stateMutability": "view",
      "type": "function"
    },
    {
      "inputs": [
        {
          "internalType": "uint256",
          "name": "timepoint",
          "type": "uint256"
        }
      ],
      "name": "getPastTotalSupply",
      "outputs": [
        {
          "internalType": "uint256",
          "name": "",
          "type": "uint256"
        }
      ],
      "stateMutability": "view",
      "type": "function"
    },
    {
      "inputs": [
        {
          "internalType": "address",
          "name": "account",
          "type": "address"
        },
        {
          "internalType": "uint256",
          "name": "timepoint",
          "type": "uint256"
        }
      ],
      "name": "getPastVotes",
      "outputs": [
        {
          "internalType": "uint256",
          "name": "",
          "type": "uint256"
        }
      ],
      "stateMutability": "view",
      "type": "function"
    },
    {
      "inputs": [
        {
          "internalType": "address",
          "name": "account",
          "type": "address"
        }
      ],
      "name": "getVotes",
      "outputs": [
        {
          "internalType": "uint256",
          "name": "",
          "type": "uint256"
        }
      ],
      "stateMutability": "view",
      "type": "function"
    },
    {
      "inputs": [
        {
          "internalType": "address",
          "name": "spender",
          "type": "address"
        },
        {
          "internalType": "uint256",
          "name": "addedValue",
          "type": "uint256"
        }
      ],
      "name": "increaseAllowance",
      "outputs": [
        {
          "internalType": "bool",
          "name": "",
          "type": "bool"
        }
      ],
      "stateMutability": "nonpayable",
      "type": "function"
    },
    {
      "inputs": [
        {
          "internalType": "address",
          "name": "to",
          "type": "address"
        },
        {
          "internalType": "uint256",
          "name": "amount",
          "type": "uint256"
        },
        {
          "internalType": "string",
          "name": "reason",
          "type": "string"
        }
      ],
      "name": "mint",
      "outputs": [],
      "stateMutability": "nonpayable",
      "type": "function"
    },
    {
      "inputs": [
        {
          "internalType": "address",
          "name": "",
          "type": "address"
        }
      ],
      "name": "minters",
      "outputs": [
        {
          "internalType": "bool",
          "name": "",
          "type": "bool"
        }
      ],
      "stateMutability": "view",
      "type": "function"
    },
    {
      "inputs": [],
      "name": "name",
      "outputs": [
        {
          "internalType": "string",
          "name": "",
          "type": "string"
        }
      ],
      "stateMutability": "view",
      "type": "function"
    },
    {
      "inputs": [
        {
          "internalType": "address",
          "name": "owner",
          "type": "address"
        }
      ],
      "name": "nonces",
      "outputs": [
        {
          "internalType": "uint256",
          "name": "",
          "type": "uint256"
        }
      ],
      "stateMutability": "view",
      "type": "function"
    },
    {
      "inputs": [
        {
          "internalType": "address",
          "name": "account",
          "type": "address"
        }
      ],
      "name": "numCheckpoints",
      "outputs": [
        {
          "internalType": "uint32",
          "name": "",
          "type": "uint32"
        }
      ],
      "stateMutability": "view",
      "type": "function"
    },
    {
      "inputs": [],
      "name": "owner",
      "outputs": [
        {
          "internalType": "address",
          "name": "",
          "type": "address"
        }
      ],
      "stateMutability": "view",
      "type": "function"
    },
    {
      "inputs": [
        {
          "internalType": "address",
          "name": "owner",
          "type": "address"
        },
        {
          "internalType": "address",
          "name": "spender",
          "type": "address"
        },
        {
          "internalType": "uint256",
          "name": "value",
          "type": "uint256"
        },
        {
          "internalType": "uint256",
          "name": "deadline",
          "type": "uint256"
        },
        {
          "internalType": "uint8",
          "name": "v",
          "type": "uint8"
        },
        {
          "internalType": "bytes32",
          "name": "r",
          "type": "bytes32"
        },
        {
          "internalType": "bytes32",
          "name": "s",
          "type": "bytes32"
        }
      ],
      "name": "permit",
      "outputs": [],
      "stateMutability": "nonpayable",
      "type": "function"
    },
    {
      "inputs": [
        {
          "internalType": "address",
          "name": "minter",
          "type": "address"
        }
      ],
      "name": "removeMinter",
      "outputs": [],
      "stateMutability": "nonpayable",
      "type": "function"
    },
    {
      "inputs": [],
      "name": "renounceOwnership",
      "outputs": [],
      "stateMutability": "nonpayable",
      "type": "function"
    },
    {
      "inputs": [],
      "name": "symbol",
      "outputs": [
        {
          "internalType": "string",
          "name": "",
          "type": "string"
        }
      ],
      "stateMutability": "view",
      "type": "function"
    },
    {
      "inputs": [],
      "name": "totalSupply",
      "outputs": [
        {
          "internalType": "uint256",
          "name": "",
          "type": "uint256"
        }
      ],
      "stateMutability": "view",
      "type": "function"
    },
    {
      "inputs": [
        {
          "internalType": "address",
          "name": "to",
          "type": "address"
        },
        {
          "internalType": "uint256",
          "name": "amount",
          "type": "uint256"
        }
      ],
      "name": "transfer",
      "outputs": [
        {
          "internalType": "bool",
          "name": "",
          "type": "bool"
        }
      ],
      "stateMutability": "nonpayable",
      "type": "function"
    },
    {
      "inputs": [
        {
          "internalType": "address",
          "name": "from",
          "type": "address"
        },
        {
          "internalType": "address",
          "name": "to",
          "type": "address"
        },
        {
          "internalType": "uint256",
          "name": "amount",
          "type": "uint256"
        }
      ],
      "name": "transferFrom",
      "outputs": [
        {
          "internalType": "bool",
          "name": "",
          "type": "bool"
        }
      ],
      "stateMutability": "nonpayable",
      "type": "function"
    },
    {
      "inputs": [
        {
          "internalType": "address",
          "name": "newOwner",
          "type": "address"
        }
      ],
      "name": "transferOwnership",
      "outputs": [],
      "stateMutability": "nonpayable",
      "type": "function"
    }
  ],
  "bytecode": "0x6101606040523480156200001257600080fd5b5060405162003316380380620033168339810160408190526200003591620008be565b6040518060400160405280600e81526020016d2632b0b3102220a7902a37b5b2b760911b81525080604051806040016040528060018152602001603160f81b8152506040518060400160405280600e81526020016d2632b0b3102220a7902a37b5b2b760911b815250604051806040016040528060048152602001632622a0a360e11b8152508160039081620000cc91906200098d565b506004620000db82826200098d565b50620000ed91508390506005620001df565b61012052620000fe816006620001df565b61014052815160208084019190912060e052815190820120610100524660a0526200018c60e05161010051604080517f8b73c3c69bb8fe3d512ecc4cf759cc79239f7b179b0ffacaa9a75d522b39400f60208201529081019290925260608201524660808201523060a082015260009060c00160405160208183030381529060405280519060200120905090565b60805250503060c05250620001a13362000218565b620001b78169d3c21bcecceda10000006200026a565b6001600160a01b03166000908152600d60205260409020805460ff1916600117905562000b10565b6000602083511015620001ff57620001f7836200027a565b905062000212565b816200020c84826200098d565b5060ff90505b92915050565b600c80546001600160a01b038381166001600160a01b0319831681179093556040519116919082907f8be0079c531659141344cd1fd0a4f28419497f9722a3daafe3b4186f6b6457e090600090a35050565b620002768282620002c6565b5050565b600080829050601f81511115620002b1578260405163305a27a960e01b8152600401620002a8919062000a59565b60405180910390fd5b8051620002be8262000aa9565b179392505050565b620002d282826200036e565b6001600160e01b03620002e66200043b8216565b11156200034f5760405162461bcd60e51b815260206004820152603060248201527f4552433230566f7465733a20746f74616c20737570706c79207269736b73206f60448201526f766572666c6f77696e6720766f74657360801b6064820152608401620002a8565b62000368600b62000f896200044160201b178362000456565b50505050565b6001600160a01b038216620003c65760405162461bcd60e51b815260206004820152601f60248201527f45524332303a206d696e7420746f20746865207a65726f2061646472657373006044820152606401620002a8565b8060026000828254620003da919062000ae4565b90915550506001600160a01b038216600081815260208181526040808320805486019055518481527fddf252ad1be2c89b69c2b068fc378daa952ba7f163c4a11628f55a4df523b3ef910160405180910390a36200027660008383620005e3565b60025490565b60006200044f828462000ae4565b9392505050565b82546000908190818115620004a55760008781526020902082016000190160408051808201909152905463ffffffff8116825264010000000090046001600160e01b03166020820152620004ba565b60408051808201909152600080825260208201525b905080602001516001600160e01b03169350620004d884868860201c565b9250600082118015620005055750620004f0620005f0565b65ffffffffffff16816000015163ffffffff16145b156200054e57620005168362000602565b60008881526020902083016000190180546001600160e01b03929092166401000000000263ffffffff909216919091179055620005d4565b8660405180604001604052806200057c6200056e620005f060201b60201c565b65ffffffffffff1662000671565b63ffffffff168152602001620005928662000602565b6001600160e01b0390811690915282546001810184556000938452602093849020835194909301519091166401000000000263ffffffff909316929092179101555b5050935093915050565b505050565b620005de838383620006d8565b6000620005fd436200070c565b905090565b60006001600160e01b038211156200066d5760405162461bcd60e51b815260206004820152602760248201527f53616665436173743a2076616c756520646f65736e27742066697420696e20326044820152663234206269747360c81b6064820152608401620002a8565b5090565b600063ffffffff8211156200066d5760405162461bcd60e51b815260206004820152602660248201527f53616665436173743a2076616c756520646f65736e27742066697420696e203360448201526532206269747360d01b6064820152608401620002a8565b6001600160a01b03838116600090815260096020526040808220548584168352912054620005de9291821691168362000775565b600065ffffffffffff8211156200066d5760405162461bcd60e51b815260206004820152602660248201527f53616665436173743a2076616c756520646f65736e27742066697420696e203460448201526538206269747360d01b6064820152608401620002a8565b816001600160a01b0316836001600160a01b031614158015620007985750600081115b15620005de576001600160a01b0383161562000825576001600160a01b0383166000908152600a6020908152604082208291620007e29190620008b0901b62000f95178562000456565b91509150846001600160a01b0316600080516020620032f683398151915283836040516200081a929190918252602082015260400190565b60405180910390a250505b6001600160a01b03821615620005de576001600160a01b0382166000908152600a602090815260408220829162000869919062000441901b62000f89178562000456565b91509150836001600160a01b0316600080516020620032f68339815191528383604051620008a1929190918252602082015260400190565b60405180910390a25050505050565b60006200044f828462000afa565b600060208284031215620008d157600080fd5b81516001600160a01b03811681146200044f57600080fd5b634e487b7160e01b600052604160045260246000fd5b600181811c908216806200091457607f821691505b6020821081036200093557634e487b7160e01b600052602260045260246000fd5b50919050565b601f821115620005de57600081815260208120601f850160051c81016020861015620009645750805b601f850160051c820191505b81811015620009855782815560010162000970565b505050505050565b81516001600160401b03811115620009a957620009a9620008e9565b620009c181620009ba8454620008ff565b846200093b565b602080601f831160018114620009f95760008415620009e05750858301515b600019600386901b1c1916600185901b17855562000985565b600085815260208120601f198616915b8281101562000a2a5788860151825594840194600190910190840162000a09565b508582101562000a495787850151600019600388901b60f8161c191681555b5050505050600190811b01905550565b600060208083528351808285015260005b8181101562000a885785810183015185820160400152820162000a6a565b506000604082860101526040601f19601f8301168501019250505092915050565b80516020808301519190811015620009355760001960209190910360031b1b16919050565b634e487b7160e01b600052601160045260246000fd5b8082018082111562000212576200021262000ace565b8181038181111562000212576200021262000ace565b60805160a05160c05160e05161010051610120516101405161278b62000b6b60003960006108c0015260006108950152600061142b015260006114030152600061135e01526000611388015260006113b2015261278b6000f3fe608060405234801561001057600080fd5b50600436106102115760003560e01c8063715018a611610125578063a457c2d7116100ad578063d505accf1161007c578063d505accf146104a7578063dd62ed3e146104ba578063f1127ed8146104cd578063f2fde38b1461050a578063f46eccc41461051d57600080fd5b8063a457c2d71461045b578063a9059cbb1461046e578063c3cda52014610481578063d3fc98641461049457600080fd5b80638e539e8c116100f45780638e539e8c146103fb57806391ddadf41461040e57806395d89b411461042d578063983b2d56146104355780639ab24eb01461044857600080fd5b8063715018a6146103b45780637ecebe00146103bc57806384b0196e146103cf5780638da5cb5b146103ea57600080fd5b806332cb6b0c116101a85780634bf5d7e9116101775780634bf5d7e914610304578063587cde1e1461030c5780635c19a95c146103505780636fcfff451461036357806370a082311461038b57600080fd5b806332cb6b0c146102c45780633644e515146102d657806339509351146102de5780633a46b1a8146102f157600080fd5b806323b872dd116101e457806323b872dd1461027e5780632ff2e9dc146102915780633092afd5146102a2578063313ce567146102b557600080fd5b806306fdde0314610216578063095ea7b31461023457806315f570dc1461025757806318160ddd1461026c575b600080fd5b61021e610540565b60405161022b9190612299565b60405180910390f35b6102476102423660046122c8565b6105d2565b604051901515815260200161022b565b61026a610265366004612308565b6105ec565b005b6002545b60405190815260200161022b565b61024761028c3660046123d3565b61068b565b61027069d3c21bcecceda100000081565b61026a6102b036600461240f565b6106af565b6040516012815260200161022b565b6102706a084595161401484a00000081565b6102706106d8565b6102476102ec3660046122c8565b6106e7565b6102706102ff3660046122c8565b610709565b61021e61078e565b61033861031a36600461240f565b6001600160a01b039081166000908152600960205260409020541690565b6040516001600160a01b03909116815260200161022b565b61026a61035e36600461240f565b610826565b61037661037136600461240f565b610833565b60405163ffffffff909116815260200161022b565b61027061039936600461240f565b6001600160a01b031660009081526020819052604090205490565b61026a610855565b6102706103ca36600461240f565b610869565b6103d7610887565b60405161022b979695949392919061242a565b600c546001600160a01b0316610338565b6102706104093660046124c0565b610910565b610416610977565b60405165ffffffffffff909116815260200161022b565b61021e610982565b61026a61044336600461240f565b610991565b61027061045636600461240f565b6109bd565b6102476104693660046122c8565b610a3f565b61024761047c3660046122c8565b610aba565b61026a61048f3660046124ea565b610ac8565b61026a6104a2366004612308565b610bfe565b61026a6104b5366004612542565b610d00565b6102706104c83660046125ac565b610e64565b6104e06104db3660046125df565b610e8f565b60408051825163ffffffff1681526020928301516001600160e01b0316928101929092520161022b565b61026a61051836600461240f565b610f13565b61024761052b36600461240f565b600d6020526000908152604090205460ff1681565b60606003805461054f9061261f565b80601f016020809104026020016040519081016040528092919081815260200182805461057b9061261f565b80156105c85780601f1061059d576101008083540402835291602001916105c8565b820191906000526020600020905b8154815290600101906020018083116105ab57829003601f168201915b5050505050905090565b6000336105e0818585610fa1565b60019150505b92915050565b336000908152600d602052604090205460ff16806106145750600c546001600160a01b031633145b6106395760405162461bcd60e51b815260040161063090612653565b60405180910390fd5b61064383836110c5565b826001600160a01b03167ffad31924d655455395c87544c8aa1ffdb5a7505a22a3c2e03f28003b6556a75f838360405161067e929190612694565b60405180910390a2505050565b6000336106998582856110d3565b6106a485858561114d565b506001949350505050565b6106b76112f7565b6001600160a01b03166000908152600d60205260409020805460ff19169055565b60006106e2611351565b905090565b6000336105e08185856106fa8383610e64565b61070491906126cb565b610fa1565b6000610713610977565b65ffffffffffff1682106107655760405162461bcd60e51b815260206004820152601960248201527804552433230566f7465733a20667574757265206c6f6f6b757603c1b6044820152606401610630565b6001600160a01b0383166000908152600a60205260409020610787908361147c565b9392505050565b606043610799610977565b65ffffffffffff16146107ee5760405162461bcd60e51b815260206004820152601d60248201527f4552433230566f7465733a2062726f6b656e20636c6f636b206d6f64650000006044820152606401610630565b5060408051808201909152601d81527f6d6f64653d626c6f636b6e756d6265722666726f6d3d64656661756c74000000602082015290565b6108303382611565565b50565b6001600160a01b0381166000908152600a60205260408120546105e6906115de565b61085d6112f7565b6108676000611647565b565b6001600160a01b0381166000908152600760205260408120546105e6565b6000606080828080836108bb7f00000000000000000000000000000000000000000000000000000000000000006005611699565b6108e67f00000000000000000000000000000000000000000000000000000000000000006006611699565b60408051600080825260208201909252600f60f81b9b939a50919850469750309650945092509050565b600061091a610977565b65ffffffffffff16821061096c5760405162461bcd60e51b815260206004820152601960248201527804552433230566f7465733a20667574757265206c6f6f6b757603c1b6044820152606401610630565b6105e6600b8361147c565b60006106e243611744565b60606004805461054f9061261f565b6109996112f7565b6001600160a01b03166000908152600d60205260409020805460ff19166001179055565b6001600160a01b0381166000908152600a60205260408120548015610a2c576001600160a01b0383166000908152600a6020526040902080546000198301908110610a0a57610a0a6126de565b60009182526020909120015464010000000090046001600160e01b0316610a2f565b60005b6001600160e01b03169392505050565b60003381610a4d8286610e64565b905083811015610aad5760405162461bcd60e51b815260206004820152602560248201527f45524332303a2064656372656173656420616c6c6f77616e63652062656c6f77604482015264207a65726f60d81b6064820152608401610630565b6106a48286868403610fa1565b6000336105e081858561114d565b83421115610b185760405162461bcd60e51b815260206004820152601d60248201527f4552433230566f7465733a207369676e617475726520657870697265640000006044820152606401610630565b604080517fe48329057bfd03d55e49b547132e39cffd9c1820ad7b9d4c5307691425d15adf60208201526001600160a01b038816918101919091526060810186905260808101859052600090610b9290610b8a9060a001604051602081830303815290604052805190602001206117ab565b8585856117d8565b9050610b9d81611800565b8614610beb5760405162461bcd60e51b815260206004820152601960248201527f4552433230566f7465733a20696e76616c6964206e6f6e6365000000000000006044820152606401610630565b610bf58188611565565b50505050505050565b336000908152600d602052604090205460ff1680610c265750600c546001600160a01b031633145b610c425760405162461bcd60e51b815260040161063090612653565b6a084595161401484a00000082610c5860025490565b610c6291906126cb565b1115610cbb5760405162461bcd60e51b815260206004820152602260248201527f4c656166546f6b656e3a20776f756c6420657863656564206d617820737570706044820152616c7960f01b6064820152608401610630565b610cc58383611828565b826001600160a01b03167f9d89e36eadf856db0ad9ffb5a569e07f95634dddd9501141ecf04820484ad0dc838360405161067e929190612694565b83421115610d505760405162461bcd60e51b815260206004820152601d60248201527f45524332305065726d69743a206578706972656420646561646c696e650000006044820152606401610630565b60007f6e71edae12b1b97f4d1f60370fef10105fa2faae0126114a169c64845d6126c9888888610d7f8c611800565b6040805160208101969096526001600160a01b0394851690860152929091166060840152608083015260a082015260c0810186905260e0016040516020818303038152906040528051906020012090506000610dda826117ab565b90506000610dea828787876117d8565b9050896001600160a01b0316816001600160a01b031614610e4d5760405162461bcd60e51b815260206004820152601e60248201527f45524332305065726d69743a20696e76616c6964207369676e617475726500006044820152606401610630565b610e588a8a8a610fa1565b50505050505050505050565b6001600160a01b03918216600090815260016020908152604080832093909416825291909152205490565b60408051808201909152600080825260208201526001600160a01b0383166000908152600a60205260409020805463ffffffff8416908110610ed357610ed36126de565b60009182526020918290206040805180820190915291015463ffffffff8116825264010000000090046001600160e01b0316918101919091529392505050565b610f1b6112f7565b6001600160a01b038116610f805760405162461bcd60e51b815260206004820152602660248201527f4f776e61626c653a206e6577206f776e657220697320746865207a65726f206160448201526564647265737360d01b6064820152608401610630565b61083081611647565b600061078782846126cb565b600061078782846126f4565b6001600160a01b0383166110035760405162461bcd60e51b8152602060048201526024808201527f45524332303a20617070726f76652066726f6d20746865207a65726f206164646044820152637265737360e01b6064820152608401610630565b6001600160a01b0382166110645760405162461bcd60e51b815260206004820152602260248201527f45524332303a20617070726f766520746f20746865207a65726f206164647265604482015261737360f01b6064820152608401610630565b6001600160a01b0383811660008181526001602090815260408083209487168084529482529182902085905590518481527f8c5be1e5ebec7d5bd14f71427d1e84f3dd0314c0f7b2291e5b200ac8c7c3b925910160405180910390a3505050565b6110cf8282611832565b5050565b60006110df8484610e64565b90506000198114611147578181101561113a5760405162461bcd60e51b815260206004820152601d60248201527f45524332303a20696e73756666696369656e7420616c6c6f77616e63650000006044820152606401610630565b6111478484848403610fa1565b50505050565b6001600160a01b0383166111b15760405162461bcd60e51b815260206004820152602560248201527f45524332303a207472616e736665722066726f6d20746865207a65726f206164604482015264647265737360d81b6064820152608401610630565b6001600160a01b0382166112135760405162461bcd60e51b815260206004820152602360248201527f45524332303a207472616e7366657220746f20746865207a65726f206164647260448201526265737360e81b6064820152608401610630565b6001600160a01b0383166000908152602081905260409020548181101561128b5760405162461bcd60e51b815260206004820152602660248201527f45524332303a207472616e7366657220616d6f756e7420657863656564732062604482015265616c616e636560d01b6064820152608401610630565b6001600160a01b03848116600081815260208181526040808320878703905593871680835291849020805487019055925185815290927fddf252ad1be2c89b69c2b068fc378daa952ba7f163c4a11628f55a4df523b3ef910160405180910390a361114784848461184f565b600c546001600160a01b031633146108675760405162461bcd60e51b815260206004820181905260248201527f4f776e61626c653a2063616c6c6572206973206e6f7420746865206f776e65726044820152606401610630565b6000306001600160a01b037f0000000000000000000000000000000000000000000000000000000000000000161480156113aa57507f000000000000000000000000000000000000000000000000000000000000000046145b156113d457507f000000000000000000000000000000000000000000000000000000000000000090565b6106e2604080517f8b73c3c69bb8fe3d512ecc4cf759cc79239f7b179b0ffacaa9a75d522b39400f60208201527f0000000000000000000000000000000000000000000000000000000000000000918101919091527f000000000000000000000000000000000000000000000000000000000000000060608201524660808201523060a082015260009060c00160405160208183030381529060405280519060200120905090565b8154600090818160058111156114d65760006114978461185a565b6114a190856126f4565b600088815260209020909150869082015463ffffffff1611156114c6578091506114d4565b6114d18160016126cb565b92505b505b808210156115235760006114ea8383611942565b600088815260209020909150869082015463ffffffff16111561150f5780915061151d565b61151a8160016126cb565b92505b506114d6565b801561154f576000868152602090208101600019015464010000000090046001600160e01b0316611552565b60005b6001600160e01b03169695505050505050565b6001600160a01b038281166000818152600960208181526040808420805485845282862054949093528787166001600160a01b03198416811790915590519190951694919391928592917f3134e8a2e6d97e929a7e54011ea5485d7d196dd5f0ba4d4ef95803e8e3fc257f9190a461114782848361195d565b600063ffffffff8211156116435760405162461bcd60e51b815260206004820152602660248201527f53616665436173743a2076616c756520646f65736e27742066697420696e203360448201526532206269747360d01b6064820152608401610630565b5090565b600c80546001600160a01b038381166001600160a01b0319831681179093556040519116919082907f8be0079c531659141344cd1fd0a4f28419497f9722a3daafe3b4186f6b6457e090600090a35050565b606060ff83146116b3576116ac83611a9a565b90506105e6565b8180546116bf9061261f565b80601f01602080910402602001604051908101604052809291908181526020018280546116eb9061261f565b80156117385780601f1061170d57610100808354040283529160200191611738565b820191906000526020600020905b81548152906001019060200180831161171b57829003601f168201915b505050505090506105e6565b600065ffffffffffff8211156116435760405162461bcd60e51b815260206004820152602660248201527f53616665436173743a2076616c756520646f65736e27742066697420696e203460448201526538206269747360d01b6064820152608401610630565b60006105e66117b8611351565b8360405161190160f01b8152600281019290925260228201526042902090565b60008060006117e987878787611ad9565b915091506117f681611b9d565b5095945050505050565b6001600160a01b03811660009081526007602052604090208054600181018255905b50919050565b6110cf8282611ce7565b61183c8282611d71565b611147600b610f9583611eaa565b505050565b61184a83838361201f565b60008160000361186c57506000919050565b6000600161187984612051565b901c6001901b9050600181848161189257611892612707565b048201901c905060018184816118aa576118aa612707565b048201901c905060018184816118c2576118c2612707565b048201901c905060018184816118da576118da612707565b048201901c905060018184816118f2576118f2612707565b048201901c9050600181848161190a5761190a612707565b048201901c9050600181848161192257611922612707565b048201901c90506107878182858161193c5761193c612707565b046120e5565b6000611951600284841861271d565b610787908484166126cb565b816001600160a01b0316836001600160a01b03161415801561197f5750600081115b1561184a576001600160a01b03831615611a0d576001600160a01b0383166000908152600a6020526040812081906119ba90610f9585611eaa565b91509150846001600160a01b03167fdec2bacdd2f05b59de34da9b523dff8be42e5e38e818c82fdb0bae774387a7248383604051611a02929190918252602082015260400190565b60405180910390a250505b6001600160a01b0382161561184a576001600160a01b0382166000908152600a602052604081208190611a4390610f8985611eaa565b91509150836001600160a01b03167fdec2bacdd2f05b59de34da9b523dff8be42e5e38e818c82fdb0bae774387a7248383604051611a8b929190918252602082015260400190565b60405180910390a25050505050565b60606000611aa7836120fb565b604080516020808252818301909252919250600091906020820181803683375050509182525060208101929092525090565b6000807f7fffffffffffffffffffffffffffffff5d576e7357a4501ddfe92f46681b20a0831115611b105750600090506003611b94565b6040805160008082526020820180845289905260ff881692820192909252606081018690526080810185905260019060a0016020604051602081039080840390855afa158015611b64573d6000803e3d6000fd5b5050604051601f1901519150506001600160a01b038116611b8d57600060019250925050611b94565b9150600090505b94509492505050565b6000816004811115611bb157611bb161273f565b03611bb95750565b6001816004811115611bcd57611bcd61273f565b03611c1a5760405162461bcd60e51b815260206004820152601860248201527f45434453413a20696e76616c6964207369676e617475726500000000000000006044820152606401610630565b6002816004811115611c2e57611c2e61273f565b03611c7b5760405162461bcd60e51b815260206004820152601f60248201527f45434453413a20696e76616c6964207369676e6174757265206c656e677468006044820152606401610630565b6003816004811115611c8f57611c8f61273f565b036108305760405162461bcd60e51b815260206004820152602260248201527f45434453413a20696e76616c6964207369676e6174757265202773272076616c604482015261756560f01b6064820152608401610630565b611cf18282612123565b6002546001600160e01b031015611d635760405162461bcd60e51b815260206004820152603060248201527f4552433230566f7465733a20746f74616c20737570706c79207269736b73206f60448201526f766572666c6f77696e6720766f74657360801b6064820152608401610630565b611147600b610f8983611eaa565b6001600160a01b038216611dd15760405162461bcd60e51b815260206004820152602160248201527f45524332303a206275726e2066726f6d20746865207a65726f206164647265736044820152607360f81b6064820152608401610630565b6001600160a01b03821660009081526020819052604090205481811015611e455760405162461bcd60e51b815260206004820152602260248201527f45524332303a206275726e20616d6f756e7420657863656564732062616c616e604482015261636560f01b6064820152608401610630565b6001600160a01b0383166000818152602081815260408083208686039055600280548790039055518581529192917fddf252ad1be2c89b69c2b068fc378daa952ba7f163c4a11628f55a4df523b3ef910160405180910390a361184a8360008461184f565b82546000908190818115611ef75760008781526020902082016000190160408051808201909152905463ffffffff8116825264010000000090046001600160e01b03166020820152611f0c565b60408051808201909152600080825260208201525b905080602001516001600160e01b03169350611f2c84868863ffffffff16565b9250600082118015611f565750611f41610977565b65ffffffffffff16816000015163ffffffff16145b15611f9b57611f64836121ea565b60008881526020902083016000190180546001600160e01b03929092166401000000000263ffffffff909216919091179055612015565b866040518060400160405280611fbf611fb2610977565b65ffffffffffff166115de565b63ffffffff168152602001611fd3866121ea565b6001600160e01b0390811690915282546001810184556000938452602093849020835194909301519091166401000000000263ffffffff909316929092179101555b5050935093915050565b6001600160a01b0383811660009081526009602052604080822054858416835291205461184a9291821691168361195d565b600080608083901c1561206657608092831c92015b604083901c1561207857604092831c92015b602083901c1561208a57602092831c92015b601083901c1561209c57601092831c92015b600883901c156120ae57600892831c92015b600483901c156120c057600492831c92015b600283901c156120d257600292831c92015b600183901c156105e65760010192915050565b60008183106120f45781610787565b5090919050565b600060ff8216601f8111156105e657604051632cd44ac360e21b815260040160405180910390fd5b6001600160a01b0382166121795760405162461bcd60e51b815260206004820152601f60248201527f45524332303a206d696e7420746f20746865207a65726f2061646472657373006044820152606401610630565b806002600082825461218b91906126cb565b90915550506001600160a01b038216600081815260208181526040808320805486019055518481527fddf252ad1be2c89b69c2b068fc378daa952ba7f163c4a11628f55a4df523b3ef910160405180910390a36110cf6000838361184f565b60006001600160e01b038211156116435760405162461bcd60e51b815260206004820152602760248201527f53616665436173743a2076616c756520646f65736e27742066697420696e20326044820152663234206269747360c81b6064820152608401610630565b6000815180845260005b818110156122795760208185018101518683018201520161225d565b506000602082860101526020601f19601f83011685010191505092915050565b6020815260006107876020830184612253565b80356001600160a01b03811681146122c357600080fd5b919050565b600080604083850312156122db57600080fd5b6122e4836122ac565b946020939093013593505050565b634e487b7160e01b600052604160045260246000fd5b60008060006060848603121561231d57600080fd5b612326846122ac565b925060208401359150604084013567ffffffffffffffff8082111561234a57600080fd5b818601915086601f83011261235e57600080fd5b813581811115612370576123706122f2565b604051601f8201601f19908116603f01168101908382118183101715612398576123986122f2565b816040528281528960208487010111156123b157600080fd5b8260208601602083013760006020848301015280955050505050509250925092565b6000806000606084860312156123e857600080fd5b6123f1846122ac565b92506123ff602085016122ac565b9150604084013590509250925092565b60006020828403121561242157600080fd5b610787826122ac565b60ff60f81b881681526000602060e08184015261244a60e084018a612253565b838103604085015261245c818a612253565b606085018990526001600160a01b038816608086015260a0850187905284810360c0860152855180825283870192509083019060005b818110156124ae57835183529284019291840191600101612492565b50909c9b505050505050505050505050565b6000602082840312156124d257600080fd5b5035919050565b803560ff811681146122c357600080fd5b60008060008060008060c0878903121561250357600080fd5b61250c876122ac565b95506020870135945060408701359350612528606088016124d9565b92506080870135915060a087013590509295509295509295565b600080600080600080600060e0888a03121561255d57600080fd5b612566886122ac565b9650612574602089016122ac565b95506040880135945060608801359350612590608089016124d9565b925060a0880135915060c0880135905092959891949750929550565b600080604083850312156125bf57600080fd5b6125c8836122ac565b91506125d6602084016122ac565b90509250929050565b600080604083850312156125f257600080fd5b6125fb836122ac565b9150602083013563ffffffff8116811461261457600080fd5b809150509250929050565b600181811c9082168061263357607f821691505b60208210810361182257634e487b7160e01b600052602260045260246000fd5b60208082526021908201527f4c656166546f6b656e3a2063616c6c6572206973206e6f742061206d696e74656040820152603960f91b606082015260800190565b8281526040602082015260006126ad6040830184612253565b949350505050565b634e487b7160e01b600052601160045260246000fd5b808201808211156105e6576105e66126b5565b634e487b7160e01b600052603260045260246000fd5b818103818111156105e6576105e66126b5565b634e487b7160e01b600052601260045260246000fd5b60008261273a57634e487b7160e01b600052601260045260246000fd5b500490565b634e487b7160e01b600052602160045260246000fdfea264697066735822122079cf72170de3acede800141d845a1142d57312607e7556538969ae0e275e9bfe64736f6c63430008140033dec2bacdd2f05b59de34da9b523dff8be42e5e38e818c82fdb0bae774387a724",
  "linkReferences": {},
  "deployedLinkReferences": {}
}