{
  "_format": "hh-sol-artifact-1",
  "contractName": "PlantNFT",
  "sourceName": "contracts/PlantNFT.sol",
  "abi": [
    {
      "inputs": [
        {
          "internalType": "address",
          "name": "initialOwner",
          "type": "address"
        }
      ],
      "stateMutability": "nonpayable",
      "type": "constructor"
    },
    {
      "anonymous": false,
      "inputs": [
        {
          "indexed": true,
          "internalType": "address",
          "name": "to",
          "type": "address"
        },
        {
          "indexed": false,
          "internalType": "uint256",
          "name": "tokenId",
          "type": "uint256"
        },
        {
          "indexed": false,
          "internalType": "string",
          "name": "achievementType",
          "type": "string"
        }
      ],
      "name": "AchievementNFTMinted",
      "type": "event"
    },
    {
      "anonymous": false,
      "inputs": [
        {
          "indexed": true,
          "internalType": "address",
          "name": "owner",
          "type": "address"
        },
        {
          "indexed": true,
          "internalType": "address",
          "name": "approved",
          "type": "address"
        },
        {
          "indexed": true,
          "internalType": "uint256",
          "name": "tokenId",
          "type": "uint256"
        }
      ],
      "name": "Approval",
      "type": "event"
    },
    {
      "anonymous": false,
      "inputs": [
        {
          "indexed": true,
          "internalType": "address",
          "name": "owner",
          "type": "address"
        },
        {
          "indexed": true,
          "internalType": "address",
          "name": "operator",
          "type": "address"
        },
        {
          "indexed": false,
          "internalType": "bool",
          "name": "approved",
          "type": "bool"
        }
      ],
      "name": "ApprovalForAll",
      "type": "event"
    },
    {
      "anonymous": false,
      "inputs": [
        {
          "indexed": false,
          "internalType": "uint256",
          "name": "_fromTokenId",
          "type": "uint256"
        },
        {
          "indexed": false,
          "internalType": "uint256",
          "name": "_toTokenId",
          "type": "uint256"
        }
      ],
      "name": "BatchMetadataUpdate",
      "type": "event"
    },
    {
      "anonymous": false,
      "inputs": [
        {
          "indexed": false,
          "internalType": "uint256",
          "name": "_tokenId",
          "type": "uint256"
        }
      ],
      "name": "MetadataUpdate",
      "type": "event"
    },
    {
      "anonymous": false,
      "inputs": [
        {
          "indexed": false,
          "internalType": "uint256",
          "name": "tokenId",
          "type": "uint256"
        },
        {
          "indexed": false,
          "internalType": "string",
          "name": "newURI",
          "type": "string"
        }
      ],
      "name": "NFTMetadataUpdated",
      "type": "event"
    },
    {
      "anonymous": false,
      "inputs": [
        {
          "indexed": true,
          "internalType": "address",
          "name": "previousOwner",
          "type": "address"
        },
        {
          "indexed": true,
          "internalType": "address",
          "name": "newOwner",
          "type": "address"
        }
      ],
      "name": "OwnershipTransferred",
      "type": "event"
    },
    {
      "anonymous": false,
      "inputs": [
        {
          "indexed": true,
          "internalType": "address",
          "name": "to",
          "type": "address"
        },
        {
          "indexed": false,
          "internalType": "uint256",
          "name": "tokenId",
          "type": "uint256"
        },
        {
          "indexed": false,
          "internalType": "string",
          "name": "plantType",
          "type": "string"
        },
        {
          "indexed": false,
          "internalType": "uint256",
          "name": "donationAmount",
          "type": "uint256"
        }
      ],
      "name": "PlantNFTMinted",
      "type": "event"
    },
    {
      "anonymous": false,
      "inputs": [
        {
          "indexed": true,
          "internalType": "address",
          "name": "from",
          "type": "address"
        },
        {
          "indexed": true,
          "internalType": "address",
          "name": "to",
          "type": "address"
        },
        {
          "indexed": true,
          "internalType": "uint256",
          "name": "tokenId",
          "type": "uint256"
        }
      ],
      "name": "Transfer",
      "type": "event"
    },
    {
      "inputs": [],
      "name": "MAX_SUPPLY",
      "outputs": [
        {
          "internalType": "uint256",
          "name": "",
          "type": "uint256"
        }
      ],
      "stateMutability": "view",
      "type": "function"
    },
    {
      "inputs": [
        {
          "internalType": "uint256",
          "name": "",
          "type": "uint256"
        }
      ],
      "name": "achievementData",
      "outputs": [
        {
          "internalType": "string",
          "name": "achievementType",
          "type": "string"
        },
        {
          "internalType": "uint256",
          "name": "earnedDate",
          "type": "uint256"
        },
        {
          "internalType": "string",
          "name": "description",
          "type": "string"
        }
      ],
      "stateMutability": "view",
      "type": "function"
    },
    {
      "inputs": [
        {
          "internalType": "address",
          "name": "minter",
          "type": "address"
        }
      ],
      "name": "addMinter",
      "outputs": [],
      "stateMutability": "nonpayable",
      "type": "function"
    },
    {
      "inputs": [
        {
          "internalType": "string",
          "name": "plantType",
          "type": "string"
        }
      ],
      "name": "addValidPlantType",
      "outputs": [],
      "stateMutability": "nonpayable",
      "type": "function"
    },
    {
      "inputs": [
        {
          "internalType": "address",
          "name": "to",
          "type": "address"
        },
        {
          "internalType": "uint256",
          "name": "tokenId",
          "type": "uint256"
        }
      ],
      "name": "approve",
      "outputs": [],
      "stateMutability": "nonpayable",
      "type": "function"
    },
    {
      "inputs": [
        {
          "internalType": "address",
          "name": "owner",
          "type": "address"
        }
      ],
      "name": "balanceOf",
      "outputs": [
        {
          "internalType": "uint256",
          "name": "",
          "type": "uint256"
        }
      ],
      "stateMutability": "view",
      "type": "function"
    },
    {
      "inputs": [
        {
          "internalType": "uint256",
          "name": "tokenId",
          "type": "uint256"
        }
      ],
      "name": "getAchievementData",
      "outputs": [
        {
          "components": [
            {
              "internalType": "string",
              "name": "achievementType",
              "type": "string"
            },
            {
              "internalType": "uint256",
              "name": "earnedDate",
              "type": "uint256"
            },
            {
              "internalType": "string",
              "name": "description",
              "type": "string"
            }
          ],
          "internalType": "struct PlantNFT.AchievementData",
          "name": "",
          "type": "tuple"
        }
      ],
      "stateMutability": "view",
      "type": "function"
    },
    {
      "inputs": [
        {
          "internalType": "uint256",
          "name": "tokenId",
          "type": "uint256"
        }
      ],
      "name": "getApproved",
      "outputs": [
        {
          "internalType": "address",
          "name": "",
          "type": "address"
        }
      ],
      "stateMutability": "view",
      "type": "function"
    },
    {
      "inputs": [
        {
          "internalType": "uint256",
          "name": "tokenId",
          "type": "uint256"
        }
      ],
      "name": "getPlantData",
      "outputs": [
        {
          "components": [
            {
              "internalType": "string",
              "name": "plantType",
              "type": "string"
            },
            {
              "internalType": "uint256",
              "name": "donationAmount",
              "type": "uint256"
            },
            {
              "internalType": "uint256",
              "name": "plantedDate",
              "type": "uint256"
            },
            {
              "internalType": "string",
              "name": "location",
              "type": "string"
            },
            {
              "internalType": "bool",
              "name": "isPlanted",
              "type": "bool"
            },
            {
              "internalType": "bool",
              "name": "isMaintained",
              "type": "bool"
            }
          ],
          "internalType": "struct PlantNFT.PlantData",
          "name": "",
          "type": "tuple"
        }
      ],
      "stateMutability": "view",
      "type": "function"
    },
    {
      "inputs": [
        {
          "internalType": "address",
          "name": "owner",
          "type": "address"
        },
        {
          "internalType": "address",
          "name": "operator",
          "type": "address"
        }
      ],
      "name": "isApprovedForAll",
      "outputs": [
        {
          "internalType": "bool",
          "name": "",
          "type": "bool"
        }
      ],
      "stateMutability": "view",
      "type": "function"
    },
    {
      "inputs": [
        {
          "internalType": "uint256",
          "name": "tokenId",
          "type": "uint256"
        }
      ],
      "name": "markAsMaintained",
      "outputs": [],
      "stateMutability": "nonpayable",
      "type": "function"
    },
    {
      "inputs": [
        {
          "internalType": "uint256",
          "name": "tokenId",
          "type": "uint256"
        }
      ],
      "name": "markAsPlanted",
      "outputs": [],
      "stateMutability": "nonpayable",
      "type": "function"
    },
    {
      "inputs": [
        {
          "internalType": "address",
          "name": "to",
          "type": "address"
        },
        {
          "internalType": "string",
          "name": "achievementType",
          "type": "string"
        },
        {
          "internalType": "string",
          "name": "description",
          "type": "string"
        },
        {
          "internalType": "string",
          "name": "_tokenURI",
          "type": "string"
        }
      ],
      "name": "mintAchievementNFT",
      "outputs": [
        {
          "internalType": "uint256",
          "name": "",
          "type": "uint256"
        }
      ],
      "stateMutability": "nonpayable",
      "type": "function"
    },
    {
      "inputs": [
        {
          "internalType": "address",
          "name": "to",
          "type": "address"
        },
        {
          "internalType": "string",
          "name": "plantType",
          "type": "string"
        },
        {
          "internalType": "uint256",
          "name": "donationAmount",
          "type": "uint256"
        },
        {
          "internalType": "string",
          "name": "location",
          "type": "string"
        },
        {
          "internalType": "string",
          "name": "_tokenURI",
          "type": "string"
        }
      ],
      "name": "mintPlantNFT",
      "outputs": [
        {
          "internalType": "uint256",
          "name": "",
          "type": "uint256"
        }
      ],
      "stateMutability": "nonpayable",
      "type": "function"
    },
    {
      "inputs": [
        {
          "internalType": "address",
          "name": "",
          "type": "address"
        }
      ],
      "name": "minters",
      "outputs": [
        {
          "internalType": "bool",
          "name": "",
          "type": "bool"
        }
      ],
      "stateMutability": "view",
      "type": "function"
    },
    {
      "inputs": [],
      "name": "name",
      "outputs": [
        {
          "internalType": "string",
          "name": "",
          "type": "string"
        }
      ],
      "stateMutability": "view",
      "type": "function"
    },
    {
      "inputs": [],
      "name": "owner",
      "outputs": [
        {
          "internalType": "address",
          "name": "",
          "type": "address"
        }
      ],
      "stateMutability": "view",
      "type": "function"
    },
    {
      "inputs": [
        {
          "internalType": "uint256",
          "name": "tokenId",
          "type": "uint256"
        }
      ],
      "name": "ownerOf",
      "outputs": [
        {
          "internalType": "address",
          "name": "",
          "type": "address"
        }
      ],
      "stateMutability": "view",
      "type": "function"
    },
    {
      "inputs": [
        {
          "internalType": "uint256",
          "name": "",
          "type": "uint256"
        }
      ],
      "name": "plantData",
      "outputs": [
        {
          "internalType": "string",
          "name": "plantType",
          "type": "string"
        },
        {
          "internalType": "uint256",
          "name": "donationAmount",
          "type": "uint256"
        },
        {
          "internalType": "uint256",
          "name": "plantedDate",
          "type": "uint256"
        },
        {
          "internalType": "string",
          "name": "location",
          "type": "string"
        },
        {
          "internalType": "bool",
          "name": "isPlanted",
          "type": "bool"
        },
        {
          "internalType": "bool",
          "name": "isMaintained",
          "type": "bool"
        }
      ],
      "stateMutability": "view",
      "type": "function"
    },
    {
      "inputs": [
        {
          "internalType": "address",
          "name": "minter",
          "type": "address"
        }
      ],
      "name": "removeMinter",
      "outputs": [],
      "stateMutability": "nonpayable",
      "type": "function"
    },
    {
      "inputs": [],
      "name": "renounceOwnership",
      "outputs": [],
      "stateMutability": "nonpayable",
      "type": "function"
    },
    {
      "inputs": [
        {
          "internalType": "address",
          "name": "from",
          "type": "address"
        },
        {
          "internalType": "address",
          "name": "to",
          "type": "address"
        },
        {
          "internalType": "uint256",
          "name": "tokenId",
          "type": "uint256"
        }
      ],
      "name": "safeTransferFrom",
      "outputs": [],
      "stateMutability": "nonpayable",
      "type": "function"
    },
    {
      "inputs": [
        {
          "internalType": "address",
          "name": "from",
          "type": "address"
        },
        {
          "internalType": "address",
          "name": "to",
          "type": "address"
        },
        {
          "internalType": "uint256",
          "name": "tokenId",
          "type": "uint256"
        },
        {
          "internalType": "bytes",
          "name": "data",
          "type": "bytes"
        }
      ],
      "name": "safeTransferFrom",
      "outputs": [],
      "stateMutability": "nonpayable",
      "type": "function"
    },
    {
      "inputs": [
        {
          "internalType": "address",
          "name": "operator",
          "type": "address"
        },
        {
          "internalType": "bool",
          "name": "approved",
          "type": "bool"
        }
      ],
      "name": "setApprovalForAll",
      "outputs": [],
      "stateMutability": "nonpayable",
      "type": "function"
    },
    {
      "inputs": [
        {
          "internalType": "bytes4",
          "name": "interfaceId",
          "type": "bytes4"
        }
      ],
      "name": "supportsInterface",
      "outputs": [
        {
          "internalType": "bool",
          "name": "",
          "type": "bool"
        }
      ],
      "stateMutability": "view",
      "type": "function"
    },
    {
      "inputs": [],
      "name": "symbol",
      "outputs": [
        {
          "internalType": "string",
          "name": "",
          "type": "string"
        }
      ],
      "stateMutability": "view",
      "type": "function"
    },
    {
      "inputs": [
        {
          "internalType": "uint256",
          "name": "tokenId",
          "type": "uint256"
        }
      ],
      "name": "tokenURI",
      "outputs": [
        {
          "internalType": "string",
          "name": "",
          "type": "string"
        }
      ],
      "stateMutability": "view",
      "type": "function"
    },
    {
      "inputs": [],
      "name": "totalSupply",
      "outputs": [
        {
          "internalType": "uint256",
          "name": "",
          "type": "uint256"
        }
      ],
      "stateMutability": "view",
      "type": "function"
    },
    {
      "inputs": [
        {
          "internalType": "address",
          "name": "from",
          "type": "address"
        },
        {
          "internalType": "address",
          "name": "to",
          "type": "address"
        },
        {
          "internalType": "uint256",
          "name": "tokenId",
          "type": "uint256"
        }
      ],
      "name": "transferFrom",
      "outputs": [],
      "stateMutability": "nonpayable",
      "type": "function"
    },
    {
      "inputs": [
        {
          "internalType": "address",
          "name": "newOwner",
          "type": "address"
        }
      ],
      "name": "transferOwnership",
      "outputs": [],
      "stateMutability": "nonpayable",
      "type": "function"
    },
    {
      "inputs": [
        {
          "internalType": "uint256",
          "name": "tokenId",
          "type": "uint256"
        },
        {
          "internalType": "string",
          "name": "newURI",
          "type": "string"
        }
      ],
      "name": "updateTokenURI",
      "outputs": [],
      "stateMutability": "nonpayable",
      "type": "function"
    },
    {
      "inputs": [
        {
          "internalType": "string",
          "name": "",
          "type": "string"
        }
      ],
      "name": "validPlantTypes",
      "outputs": [
        {
          "internalType": "bool",
          "name": "",
          "type": "bool"
        }
      ],
      "stateMutability": "view",
      "type": "function"
    }
  ],
  "bytecode": "0x60806040523480156200001157600080fd5b5060405162002e1238038062002e128339810160408190526200003491620001ff565b6040518060400160405280600e81526020016d1319585988141b185b9d0813919560921b8152506040518060400160405280600981526020016813115051941310539560ba1b81525081600090816200008e9190620002d6565b5060016200009d8282620002d6565b505050620000ba620000b4620001a960201b60201c565b620001ad565b6001600160a01b03166000908152600b6020526040908190208054600160ff1991821681179092558251635472656560e01b8152600c600480830182905285516024938190038401812080548616871790556429b4393ab160d91b81526005808201849052875160259281900383018120805488168917905565233637bbb2b960d11b81526006810185905288516026918190039190910181208054881689179055632432b93160e11b81529283018490528751928390039094018220805486168717905564477261737360d81b825292810191909152935193849003019092208054909216179055620003a2565b3390565b600780546001600160a01b038381166001600160a01b0319831681179093556040519116919082907f8be0079c531659141344cd1fd0a4f28419497f9722a3daafe3b4186f6b6457e090600090a35050565b6000602082840312156200021257600080fd5b81516001600160a01b03811681146200022a57600080fd5b9392505050565b634e487b7160e01b600052604160045260246000fd5b600181811c908216806200025c57607f821691505b6020821081036200027d57634e487b7160e01b600052602260045260246000fd5b50919050565b601f821115620002d157600081815260208120601f850160051c81016020861015620002ac5750805b601f850160051c820191505b81811015620002cd57828155600101620002b8565b5050505b505050565b81516001600160401b03811115620002f257620002f262000231565b6200030a8162000303845462000247565b8462000283565b602080601f831160018114620003425760008415620003295750858301515b600019600386901b1c1916600185901b178555620002cd565b600085815260208120601f198616915b82811015620003735788860151825594840194600190910190840162000352565b5085821015620003925787850151600019600388901b60f8161c191681555b5050505050600190811b01905550565b612a6080620003b26000396000f3fe608060405234801561001057600080fd5b50600436106101ef5760003560e01c806370a082311161010f578063b88d4fde116100a2578063eec440e811610071578063eec440e81461047e578063f2fde38b146104a0578063f4082f21146104b3578063f46eccc4146104d357600080fd5b8063b88d4fde146103f7578063c87b56dd1461040a578063e985e9c51461041d578063eb4eb3071461045957600080fd5b80638da5cb5b116100de5780638da5cb5b146103b857806395d89b41146103c9578063983b2d56146103d1578063a22cb465146103e457600080fd5b806370a0823114610377578063715018a61461038a57806380e7a9841461039257806386f6cb28146103a557600080fd5b8063296b220a1161018757806342842e0e1161015657806342842e0e146103105780635431883b146103235780635b7a59f0146103515780636352211e1461036457600080fd5b8063296b220a146102c05780633092afd5146102e057806332cb6b0c146102f35780633c5c3915146102fd57600080fd5b8063095ea7b3116101c3578063095ea7b31461027d57806318160ddd1461029257806318e97fd11461029a57806323b872dd146102ad57600080fd5b80625c0826146101f457806301ffc9a71461021a57806306fdde031461023d578063081812fc14610252575b600080fd5b6102076102023660046121af565b6104f6565b6040519081526020015b60405180910390f35b61022d610228366004612268565b610735565b6040519015158152602001610211565b610245610746565b60405161021191906122d5565b6102656102603660046122e8565b6107d8565b6040516001600160a01b039091168152602001610211565b61029061028b366004612301565b6107ff565b005b610207610914565b6102906102a836600461232b565b610924565b6102906102bb366004612372565b6109d4565b6102d36102ce3660046122e8565b610a05565b60405161021191906123ae565b6102906102ee366004612420565b610bde565b610207620f424081565b61029061030b3660046122e8565b610c07565b61029061031e366004612372565b610cea565b61022d61033136600461243b565b8051602081830181018051600c8252928201919093012091525460ff1681565b61029061035f3660046122e8565b610d05565b6102656103723660046122e8565b610dee565b610207610385366004612420565b610e4e565b610290610ed4565b6102076103a0366004612470565b610ee8565b6102906103b336600461243b565b61105f565b6007546001600160a01b0316610265565b61024561109c565b6102906103df366004612420565b6110ab565b6102906103f2366004612509565b6110d7565b610290610405366004612545565b6110e6565b6102456104183660046122e8565b61111e565b61022d61042b3660046125b5565b6001600160a01b03918216600090815260056020908152604080832093909416825291909152205460ff1690565b61046c6104673660046122e8565b611129565b604051610211969594939291906125e8565b61049161048c3660046122e8565b611273565b60405161021193929190612634565b6102906104ae366004612420565b6113a5565b6104c66104c13660046122e8565b61141e565b6040516102119190612669565b61022d6104e1366004612420565b600b6020526000908152604090205460ff1681565b336000908152600b602052604081205460ff168061051e57506007546001600160a01b031633145b6105435760405162461bcd60e51b815260040161053a906126b5565b60405180910390fd5b84600c8160405161055491906126ea565b9081526040519081900360200190205460ff166105b35760405162461bcd60e51b815260206004820152601c60248201527f506c616e744e46543a20696e76616c696420706c616e74207479706500000000604482015260640161053a565b620f42406105c060085490565b1061060d5760405162461bcd60e51b815260206004820152601c60248201527f506c616e744e46543a206d617820737570706c79207265616368656400000000604482015260640161053a565b61061b600880546001019055565b600061062660085490565b905061063288826115b4565b61063c81856115ce565b6040805160c08101825288815260208082018990526000828401819052606083018990526080830181905260a0830181905284815260099091529190912081518190610688908261278e565b506020820151600182015560408201516002820155606082015160038201906106b1908261278e565b5060808201516004909101805460a09093015115156101000261ff00199215159290921661ffff19909316929092171790556040516001600160a01b038916907f1b6bf0c25751ac7e4a071003a5f596d7cd82f5f712375e49a2acf27cef227704906107229084908b908b9061284e565b60405180910390a2979650505050505050565b600061074082611683565b92915050565b60606000805461075590612706565b80601f016020809104026020016040519081016040528092919081815260200182805461078190612706565b80156107ce5780601f106107a3576101008083540402835291602001916107ce565b820191906000526020600020905b8154815290600101906020018083116107b157829003601f168201915b5050505050905090565b60006107e3826116a8565b506000908152600460205260409020546001600160a01b031690565b600061080a82610dee565b9050806001600160a01b0316836001600160a01b0316036108775760405162461bcd60e51b815260206004820152602160248201527f4552433732313a20617070726f76616c20746f2063757272656e74206f776e656044820152603960f91b606482015260840161053a565b336001600160a01b03821614806108935750610893813361042b565b6109055760405162461bcd60e51b815260206004820152603d60248201527f4552433732313a20617070726f76652063616c6c6572206973206e6f7420746f60448201527f6b656e206f776e6572206f7220617070726f76656420666f7220616c6c000000606482015260840161053a565b61090f83836116f8565b505050565b600061091f60085490565b905090565b336000908152600b602052604090205460ff168061094c57506007546001600160a01b031633145b6109685760405162461bcd60e51b815260040161053a906126b5565b61097182611766565b61098d5760405162461bcd60e51b815260040161053a90612877565b61099782826115ce565b7ff97f908b5304ddf0f02858fce6931ad654bea800fc9a2662ad97e157d51291b582826040516109c89291906128ae565b60405180910390a15050565b6109de3382611783565b6109fa5760405162461bcd60e51b815260040161053a906128c7565b61090f838383611801565b610a426040518060c00160405280606081526020016000815260200160008152602001606081526020016000151581526020016000151581525090565b610a4b82611766565b610a675760405162461bcd60e51b815260040161053a90612877565b60008281526009602052604090819020815160c08101909252805482908290610a8f90612706565b80601f0160208091040260200160405190810160405280929190818152602001828054610abb90612706565b8015610b085780601f10610add57610100808354040283529160200191610b08565b820191906000526020600020905b815481529060010190602001808311610aeb57829003601f168201915b505050505081526020016001820154815260200160028201548152602001600382018054610b3590612706565b80601f0160208091040260200160405190810160405280929190818152602001828054610b6190612706565b8015610bae5780601f10610b8357610100808354040283529160200191610bae565b820191906000526020600020905b815481529060010190602001808311610b9157829003601f168201915b50505091835250506004919091015460ff8082161515602084015261010090910416151560409091015292915050565b610be6611965565b6001600160a01b03166000908152600b60205260409020805460ff19169055565b336000908152600b602052604090205460ff1680610c2f57506007546001600160a01b031633145b610c4b5760405162461bcd60e51b815260040161053a906126b5565b610c5481611766565b610c705760405162461bcd60e51b815260040161053a90612877565b600081815260096020526040902060010154610cca5760405162461bcd60e51b8152602060048201526019602482015278141b185b9d1391950e881b9bdd0818481c1b185b9d08139195603a1b604482015260640161053a565b6000908152600960205260409020600401805461ff001916610100179055565b61090f838383604051806020016040528060008152506110e6565b336000908152600b602052604090205460ff1680610d2d57506007546001600160a01b031633145b610d495760405162461bcd60e51b815260040161053a906126b5565b610d5281611766565b610d6e5760405162461bcd60e51b815260040161053a90612877565b600081815260096020526040902060010154610dc85760405162461bcd60e51b8152602060048201526019602482015278141b185b9d1391950e881b9bdd0818481c1b185b9d08139195603a1b604482015260640161053a565b600090815260096020526040902060048101805460ff1916600117905542600290910155565b6000818152600260205260408120546001600160a01b0316806107405760405162461bcd60e51b8152602060048201526018602482015277115490cdcc8c4e881a5b9d985b1a59081d1bdad95b88125160421b604482015260640161053a565b60006001600160a01b038216610eb85760405162461bcd60e51b815260206004820152602960248201527f4552433732313a2061646472657373207a65726f206973206e6f7420612076616044820152683634b21037bbb732b960b91b606482015260840161053a565b506001600160a01b031660009081526003602052604090205490565b610edc611965565b610ee660006119bf565b565b336000908152600b602052604081205460ff1680610f1057506007546001600160a01b031633145b610f2c5760405162461bcd60e51b815260040161053a906126b5565b620f4240610f3960085490565b10610f865760405162461bcd60e51b815260206004820152601c60248201527f506c616e744e46543a206d617820737570706c79207265616368656400000000604482015260640161053a565b610f94600880546001019055565b6000610f9f60085490565b9050610fab86826115b4565b610fb581846115ce565b60408051606081018252868152426020808301919091528183018790526000848152600a9091529190912081518190610fee908261278e565b50602082015160018201556040820151600282019061100d908261278e565b50905050856001600160a01b03167f71e2c12220fad1ecf0c596aa003a4fb8f876ea2f6852450dcd46bc77bb193e14828760405161104c9291906128ae565b60405180910390a290505b949350505050565b611067611965565b6001600c8260405161107991906126ea565b908152604051908190036020019020805491151560ff1990921691909117905550565b60606001805461075590612706565b6110b3611965565b6001600160a01b03166000908152600b60205260409020805460ff19166001179055565b6110e2338383611a11565b5050565b6110f03383611783565b61110c5760405162461bcd60e51b815260040161053a906128c7565b61111884848484611adf565b50505050565b606061074082611b12565b60096020526000908152604090208054819061114490612706565b80601f016020809104026020016040519081016040528092919081815260200182805461117090612706565b80156111bd5780601f10611192576101008083540402835291602001916111bd565b820191906000526020600020905b8154815290600101906020018083116111a057829003601f168201915b5050505050908060010154908060020154908060030180546111de90612706565b80601f016020809104026020016040519081016040528092919081815260200182805461120a90612706565b80156112575780601f1061122c57610100808354040283529160200191611257565b820191906000526020600020905b81548152906001019060200180831161123a57829003601f168201915b5050506004909301549192505060ff8082169161010090041686565b600a6020526000908152604090208054819061128e90612706565b80601f01602080910402602001604051908101604052809291908181526020018280546112ba90612706565b80156113075780601f106112dc57610100808354040283529160200191611307565b820191906000526020600020905b8154815290600101906020018083116112ea57829003601f168201915b50505050509080600101549080600201805461132290612706565b80601f016020809104026020016040519081016040528092919081815260200182805461134e90612706565b801561139b5780601f106113705761010080835404028352916020019161139b565b820191906000526020600020905b81548152906001019060200180831161137e57829003601f168201915b5050505050905083565b6113ad611965565b6001600160a01b0381166114125760405162461bcd60e51b815260206004820152602660248201527f4f776e61626c653a206e6577206f776e657220697320746865207a65726f206160448201526564647265737360d01b606482015260840161053a565b61141b816119bf565b50565b61144260405180606001604052806060815260200160008152602001606081525090565b61144b82611766565b6114675760405162461bcd60e51b815260040161053a90612877565b6000828152600a60205260409081902081516060810190925280548290829061148f90612706565b80601f01602080910402602001604051908101604052809291908181526020018280546114bb90612706565b80156115085780601f106114dd57610100808354040283529160200191611508565b820191906000526020600020905b8154815290600101906020018083116114eb57829003601f168201915b505050505081526020016001820154815260200160028201805461152b90612706565b80601f016020809104026020016040519081016040528092919081815260200182805461155790612706565b80156115a45780601f10611579576101008083540402835291602001916115a4565b820191906000526020600020905b81548152906001019060200180831161158757829003601f168201915b5050505050815250509050919050565b6110e2828260405180602001604052806000815250611c1a565b6115d782611766565b61163a5760405162461bcd60e51b815260206004820152602e60248201527f45524337323155524953746f726167653a2055524920736574206f66206e6f6e60448201526d32bc34b9ba32b73a103a37b5b2b760911b606482015260840161053a565b6000828152600660205260409020611652828261278e565b506040518281527ff8e1a15aba9398e019f0b49df1a4fde98ee17ae345cb5f6b5e2c27f5033e8ce7906020016109c8565b60006001600160e01b03198216632483248360e11b1480610740575061074082611c4d565b6116b181611766565b61141b5760405162461bcd60e51b8152602060048201526018602482015277115490cdcc8c4e881a5b9d985b1a59081d1bdad95b88125160421b604482015260640161053a565b600081815260046020526040902080546001600160a01b0319166001600160a01b038416908117909155819061172d82610dee565b6001600160a01b03167f8c5be1e5ebec7d5bd14f71427d1e84f3dd0314c0f7b2291e5b200ac8c7c3b92560405160405180910390a45050565b6000908152600260205260409020546001600160a01b0316151590565b60008061178f83610dee565b9050806001600160a01b0316846001600160a01b031614806117d657506001600160a01b0380821660009081526005602090815260408083209388168352929052205460ff165b806110575750836001600160a01b03166117ef846107d8565b6001600160a01b031614949350505050565b826001600160a01b031661181482610dee565b6001600160a01b03161461183a5760405162461bcd60e51b815260040161053a90612914565b6001600160a01b03821661189c5760405162461bcd60e51b8152602060048201526024808201527f4552433732313a207472616e7366657220746f20746865207a65726f206164646044820152637265737360e01b606482015260840161053a565b826001600160a01b03166118af82610dee565b6001600160a01b0316146118d55760405162461bcd60e51b815260040161053a90612914565b600081815260046020908152604080832080546001600160a01b03199081169091556001600160a01b0387811680865260038552838620805460001901905590871680865283862080546001019055868652600290945282852080549092168417909155905184937fddf252ad1be2c89b69c2b068fc378daa952ba7f163c4a11628f55a4df523b3ef91a4505050565b6007546001600160a01b03163314610ee65760405162461bcd60e51b815260206004820181905260248201527f4f776e61626c653a2063616c6c6572206973206e6f7420746865206f776e6572604482015260640161053a565b600780546001600160a01b038381166001600160a01b0319831681179093556040519116919082907f8be0079c531659141344cd1fd0a4f28419497f9722a3daafe3b4186f6b6457e090600090a35050565b816001600160a01b0316836001600160a01b031603611a725760405162461bcd60e51b815260206004820152601960248201527f4552433732313a20617070726f766520746f2063616c6c657200000000000000604482015260640161053a565b6001600160a01b03838116600081815260056020908152604080832094871680845294825291829020805460ff191686151590811790915591519182527f17307eab39ab6107e8899845ad3d59bd9653f200f220920489ca2b5937696c31910160405180910390a3505050565b611aea848484611801565b611af684848484611c9d565b6111185760405162461bcd60e51b815260040161053a90612959565b6060611b1d826116a8565b60008281526006602052604081208054611b3690612706565b80601f0160208091040260200160405190810160405280929190818152602001828054611b6290612706565b8015611baf5780601f10611b8457610100808354040283529160200191611baf565b820191906000526020600020905b815481529060010190602001808311611b9257829003601f168201915b505050505090506000611bcd60408051602081019091526000815290565b90508051600003611bdf575092915050565b815115611c11578082604051602001611bf99291906129ab565b60405160208183030381529060405292505050919050565b61105784611d9b565b611c248383611e0f565b611c316000848484611c9d565b61090f5760405162461bcd60e51b815260040161053a90612959565b60006001600160e01b031982166380ac58cd60e01b1480611c7e57506001600160e01b03198216635b5e139f60e01b145b8061074057506301ffc9a760e01b6001600160e01b0319831614610740565b60006001600160a01b0384163b15611d9357604051630a85bd0160e11b81526001600160a01b0385169063150b7a0290611ce19033908990889088906004016129da565b6020604051808303816000875af1925050508015611d1c575060408051601f3d908101601f19168201909252611d1991810190612a0d565b60015b611d79573d808015611d4a576040519150601f19603f3d011682016040523d82523d6000602084013e611d4f565b606091505b508051600003611d715760405162461bcd60e51b815260040161053a90612959565b805181602001fd5b6001600160e01b031916630a85bd0160e11b149050611057565b506001611057565b6060611da6826116a8565b6000611dbd60408051602081019091526000815290565b90506000815111611ddd5760405180602001604052806000815250611e08565b80611de784611f7c565b604051602001611df89291906129ab565b6040516020818303038152906040525b9392505050565b6001600160a01b038216611e655760405162461bcd60e51b815260206004820181905260248201527f4552433732313a206d696e7420746f20746865207a65726f2061646472657373604482015260640161053a565b611e6e81611766565b15611ebb5760405162461bcd60e51b815260206004820152601c60248201527f4552433732313a20746f6b656e20616c7265616479206d696e74656400000000604482015260640161053a565b611ec481611766565b15611f115760405162461bcd60e51b815260206004820152601c60248201527f4552433732313a20746f6b656e20616c7265616479206d696e74656400000000604482015260640161053a565b6001600160a01b038216600081815260036020908152604080832080546001019055848352600290915280822080546001600160a01b0319168417905551839291907fddf252ad1be2c89b69c2b068fc378daa952ba7f163c4a11628f55a4df523b3ef908290a45050565b60606000611f898361200f565b600101905060008167ffffffffffffffff811115611fa957611fa9612103565b6040519080825280601f01601f191660200182016040528015611fd3576020820181803683370190505b5090508181016020015b600019016f181899199a1a9b1b9c1cb0b131b232b360811b600a86061a8153600a8504945084611fdd57509392505050565b60008072184f03e93ff9f4daa797ed6e38ed64bf6a1f0160401b831061204e5772184f03e93ff9f4daa797ed6e38ed64bf6a1f0160401b830492506040015b6d04ee2d6d415b85acef8100000000831061207a576d04ee2d6d415b85acef8100000000830492506020015b662386f26fc10000831061209857662386f26fc10000830492506010015b6305f5e10083106120b0576305f5e100830492506008015b61271083106120c457612710830492506004015b606483106120d6576064830492506002015b600a83106107405760010192915050565b80356001600160a01b03811681146120fe57600080fd5b919050565b634e487b7160e01b600052604160045260246000fd5b600067ffffffffffffffff8084111561213457612134612103565b604051601f8501601f19908116603f0116810190828211818310171561215c5761215c612103565b8160405280935085815286868601111561217557600080fd5b858560208301376000602087830101525050509392505050565b600082601f8301126121a057600080fd5b611e0883833560208501612119565b600080600080600060a086880312156121c757600080fd5b6121d0866120e7565b9450602086013567ffffffffffffffff808211156121ed57600080fd5b6121f989838a0161218f565b955060408801359450606088013591508082111561221657600080fd5b61222289838a0161218f565b9350608088013591508082111561223857600080fd5b506122458882890161218f565b9150509295509295909350565b6001600160e01b03198116811461141b57600080fd5b60006020828403121561227a57600080fd5b8135611e0881612252565b60005b838110156122a0578181015183820152602001612288565b50506000910152565b600081518084526122c1816020860160208601612285565b601f01601f19169290920160200192915050565b602081526000611e0860208301846122a9565b6000602082840312156122fa57600080fd5b5035919050565b6000806040838503121561231457600080fd5b61231d836120e7565b946020939093013593505050565b6000806040838503121561233e57600080fd5b82359150602083013567ffffffffffffffff81111561235c57600080fd5b6123688582860161218f565b9150509250929050565b60008060006060848603121561238757600080fd5b612390846120e7565b925061239e602085016120e7565b9150604084013590509250925092565b602081526000825160c060208401526123ca60e08401826122a9565b905060208401516040840152604084015160608401526060840151601f198483030160808501526123fb82826122a9565b9150506080840151151560a084015260a0840151151560c08401528091505092915050565b60006020828403121561243257600080fd5b611e08826120e7565b60006020828403121561244d57600080fd5b813567ffffffffffffffff81111561246457600080fd5b6110578482850161218f565b6000806000806080858703121561248657600080fd5b61248f856120e7565b9350602085013567ffffffffffffffff808211156124ac57600080fd5b6124b88883890161218f565b945060408701359150808211156124ce57600080fd5b6124da8883890161218f565b935060608701359150808211156124f057600080fd5b506124fd8782880161218f565b91505092959194509250565b6000806040838503121561251c57600080fd5b612525836120e7565b91506020830135801515811461253a57600080fd5b809150509250929050565b6000806000806080858703121561255b57600080fd5b612564856120e7565b9350612572602086016120e7565b925060408501359150606085013567ffffffffffffffff81111561259557600080fd5b8501601f810187136125a657600080fd5b6124fd87823560208401612119565b600080604083850312156125c857600080fd5b6125d1836120e7565b91506125df602084016120e7565b90509250929050565b60c0815260006125fb60c08301896122a9565b876020840152866040840152828103606084015261261981876122a9565b9415156080840152505090151560a090910152949350505050565b60608152600061264760608301866122a9565b846020840152828103604084015261265f81856122a9565b9695505050505050565b60208152600082516060602084015261268560808401826122a9565b9050602084015160408401526040840151601f198483030160608501526126ac82826122a9565b95945050505050565b6020808252818101527f506c616e744e46543a2063616c6c6572206973206e6f742061206d696e746572604082015260600190565b600082516126fc818460208701612285565b9190910192915050565b600181811c9082168061271a57607f821691505b60208210810361273a57634e487b7160e01b600052602260045260246000fd5b50919050565b601f82111561090f57600081815260208120601f850160051c810160208610156127675750805b601f850160051c820191505b8181101561278657828155600101612773565b505050505050565b815167ffffffffffffffff8111156127a8576127a8612103565b6127bc816127b68454612706565b84612740565b602080601f8311600181146127f157600084156127d95750858301515b600019600386901b1c1916600185901b178555612786565b600085815260208120601f198616915b8281101561282057888601518255948401946001909101908401612801565b508582101561283e5787850151600019600388901b60f8161c191681555b5050505050600190811b01905550565b83815260606020820152600061286760608301856122a9565b9050826040830152949350505050565b6020808252601e908201527f506c616e744e46543a20746f6b656e20646f6573206e6f742065786973740000604082015260600190565b82815260406020820152600061105760408301846122a9565b6020808252602d908201527f4552433732313a2063616c6c6572206973206e6f7420746f6b656e206f776e6560408201526c1c881bdc88185c1c1c9bdd9959609a1b606082015260800190565b60208082526025908201527f4552433732313a207472616e736665722066726f6d20696e636f72726563742060408201526437bbb732b960d91b606082015260800190565b60208082526032908201527f4552433732313a207472616e7366657220746f206e6f6e20455243373231526560408201527131b2b4bb32b91034b6b83632b6b2b73a32b960711b606082015260800190565b600083516129bd818460208801612285565b8351908301906129d1818360208801612285565b01949350505050565b6001600160a01b038581168252841660208201526040810183905260806060820181905260009061265f908301846122a9565b600060208284031215612a1f57600080fd5b8151611e088161225256fea2646970667358221220b336ab6827fdd7a32fca0bde80b357453bf4180232a0e927dea052942efab0b864736f6c63430008140033",
  "linkReferences": {},
  "deployedLinkReferences": {}
}