{
  "_format": "hh-sol-artifact-1",
  "contractName": "LeafDAO",
  "sourceName": "contracts/LeafDAO.sol",
  "abi": [
    {
      "inputs": [
        {
          "internalType": "contract LeafToken",
          "name": "_token",
          "type": "address"
        },
        {
          "internalType": "contract TimelockController",
          "name": "_timelock",
          "type": "address"
        },
        {
          "internalType": "uint256",
          "name": "_quorumPercentage",
          "type": "uint256"
        }
      ],
      "stateMutability": "nonpayable",
      "type": "constructor"
    },
    {
      "inputs": [],
      "name": "Empty",
      "type": "error"
    },
    {
      "inputs": [],
      "name": "InvalidShortString",
      "type": "error"
    },
    {
      "inputs": [
        {
          "internalType": "string",
          "name": "str",
          "type": "string"
        }
      ],
      "name": "StringTooLong",
      "type": "error"
    },
    {
      "anonymous": false,
      "inputs": [],
      "name": "EIP712DomainChanged",
      "type": "event"
    },
    {
      "anonymous": false,
      "inputs": [
        {
          "indexed": false,
          "internalType": "uint256",
          "name": "proposalId",
          "type": "uint256"
        }
      ],
      "name": "ProposalCanceled",
      "type": "event"
    },
    {
      "anonymous": false,
      "inputs": [
        {
          "indexed": true,
          "internalType": "uint256",
          "name": "proposalId",
          "type": "uint256"
        }
      ],
      "name": "ProposalCancelled",
      "type": "event"
    },
    {
      "anonymous": false,
      "inputs": [
        {
          "indexed": false,
          "internalType": "uint256",
          "name": "proposalId",
          "type": "uint256"
        },
        {
          "indexed": false,
          "internalType": "address",
          "name": "proposer",
          "type": "address"
        },
        {
          "indexed": false,
          "internalType": "address[]",
          "name": "targets",
          "type": "address[]"
        },
        {
          "indexed": false,
          "internalType": "uint256[]",
          "name": "values",
          "type": "uint256[]"
        },
        {
          "indexed": false,
          "internalType": "string[]",
          "name": "signatures",
          "type": "string[]"
        },
        {
          "indexed": false,
          "internalType": "bytes[]",
          "name": "calldatas",
          "type": "bytes[]"
        },
        {
          "indexed": false,
          "internalType": "uint256",
          "name": "voteStart",
          "type": "uint256"
        },
        {
          "indexed": false,
          "internalType": "uint256",
          "name": "voteEnd",
          "type": "uint256"
        },
        {
          "indexed": false,
          "internalType": "string",
          "name": "description",
          "type": "string"
        }
      ],
      "name": "ProposalCreated",
      "type": "event"
    },
    {
      "anonymous": false,
      "inputs": [
        {
          "indexed": true,
          "internalType": "uint256",
          "name": "proposalId",
          "type": "uint256"
        },
        {
          "indexed": true,
          "internalType": "address",
          "name": "proposer",
          "type": "address"
        },
        {
          "indexed": false,
          "internalType": "string",
          "name": "description",
          "type": "string"
        }
      ],
      "name": "ProposalCreated",
      "type": "event"
    },
    {
      "anonymous": false,
      "inputs": [
        {
          "indexed": false,
          "internalType": "uint256",
          "name": "proposalId",
          "type": "uint256"
        }
      ],
      "name": "ProposalExecuted",
      "type": "event"
    },
    {
      "anonymous": false,
      "inputs": [
        {
          "indexed": false,
          "internalType": "uint256",
          "name": "proposalId",
          "type": "uint256"
        },
        {
          "indexed": false,
          "internalType": "uint256",
          "name": "eta",
          "type": "uint256"
        }
      ],
      "name": "ProposalQueued",
      "type": "event"
    },
    {
      "anonymous": false,
      "inputs": [
        {
          "indexed": false,
          "internalType": "uint256",
          "name": "oldProposalThreshold",
          "type": "uint256"
        },
        {
          "indexed": false,
          "internalType": "uint256",
          "name": "newProposalThreshold",
          "type": "uint256"
        }
      ],
      "name": "ProposalThresholdSet",
      "type": "event"
    },
    {
      "anonymous": false,
      "inputs": [
        {
          "indexed": false,
          "internalType": "uint256",
          "name": "oldQuorumNumerator",
          "type": "uint256"
        },
        {
          "indexed": false,
          "internalType": "uint256",
          "name": "newQuorumNumerator",
          "type": "uint256"
        }
      ],
      "name": "QuorumNumeratorUpdated",
      "type": "event"
    },
    {
      "anonymous": false,
      "inputs": [
        {
          "indexed": false,
          "internalType": "address",
          "name": "oldTimelock",
          "type": "address"
        },
        {
          "indexed": false,
          "internalType": "address",
          "name": "newTimelock",
          "type": "address"
        }
      ],
      "name": "TimelockChange",
      "type": "event"
    },
    {
      "anonymous": false,
      "inputs": [
        {
          "indexed": true,
          "internalType": "address",
          "name": "voter",
          "type": "address"
        },
        {
          "indexed": false,
          "internalType": "uint256",
          "name": "proposalId",
          "type": "uint256"
        },
        {
          "indexed": false,
          "internalType": "uint8",
          "name": "support",
          "type": "uint8"
        },
        {
          "indexed": false,
          "internalType": "uint256",
          "name": "weight",
          "type": "uint256"
        },
        {
          "indexed": false,
          "internalType": "string",
          "name": "reason",
          "type": "string"
        }
      ],
      "name": "VoteCast",
      "type": "event"
    },
    {
      "anonymous": false,
      "inputs": [
        {
          "indexed": true,
          "internalType": "address",
          "name": "voter",
          "type": "address"
        },
        {
          "indexed": false,
          "internalType": "uint256",
          "name": "proposalId",
          "type": "uint256"
        },
        {
          "indexed": false,
          "internalType": "uint8",
          "name": "support",
          "type": "uint8"
        },
        {
          "indexed": false,
          "internalType": "uint256",
          "name": "weight",
          "type": "uint256"
        },
        {
          "indexed": false,
          "internalType": "string",
          "name": "reason",
          "type": "string"
        },
        {
          "indexed": false,
          "internalType": "bytes",
          "name": "params",
          "type": "bytes"
        }
      ],
      "name": "VoteCastWithParams",
      "type": "event"
    },
    {
      "anonymous": false,
      "inputs": [
        {
          "indexed": false,
          "internalType": "uint256",
          "name": "oldVotingDelay",
          "type": "uint256"
        },
        {
          "indexed": false,
          "internalType": "uint256",
          "name": "newVotingDelay",
          "type": "uint256"
        }
      ],
      "name": "VotingDelaySet",
      "type": "event"
    },
    {
      "anonymous": false,
      "inputs": [
        {
          "indexed": false,
          "internalType": "uint256",
          "name": "oldVotingPeriod",
          "type": "uint256"
        },
        {
          "indexed": false,
          "internalType": "uint256",
          "name": "newVotingPeriod",
          "type": "uint256"
        }
      ],
      "name": "VotingPeriodSet",
      "type": "event"
    },
    {
      "inputs": [],
      "name": "BALLOT_TYPEHASH",
      "outputs": [
        {
          "internalType": "bytes32",
          "name": "",
          "type": "bytes32"
        }
      ],
      "stateMutability": "view",
      "type": "function"
    },
    {
      "inputs": [],
      "name": "CLOCK_MODE",
      "outputs": [
        {
          "internalType": "string",
          "name": "",
          "type": "string"
        }
      ],
      "stateMutability": "view",
      "type": "function"
    },
    {
      "inputs": [],
      "name": "COUNTING_MODE",
      "outputs": [
        {
          "internalType": "string",
          "name": "",
          "type": "string"
        }
      ],
      "stateMutability": "pure",
      "type": "function"
    },
    {
      "inputs": [],
      "name": "EXTENDED_BALLOT_TYPEHASH",
      "outputs": [
        {
          "internalType": "bytes32",
          "name": "",
          "type": "bytes32"
        }
      ],
      "stateMutability": "view",
      "type": "function"
    },
    {
      "inputs": [],
      "name": "MAX_PROPOSAL_AMOUNT",
      "outputs": [
        {
          "internalType": "uint256",
          "name": "",
          "type": "uint256"
        }
      ],
      "stateMutability": "view",
      "type": "function"
    },
    {
      "inputs": [],
      "name": "MIN_PROPOSAL_AMOUNT",
      "outputs": [
        {
          "internalType": "uint256",
          "name": "",
          "type": "uint256"
        }
      ],
      "stateMutability": "view",
      "type": "function"
    },
    {
      "inputs": [],
      "name": "PROPOSAL_DURATION",
      "outputs": [
        {
          "internalType": "uint256",
          "name": "",
          "type": "uint256"
        }
      ],
      "stateMutability": "view",
      "type": "function"
    },
    {
      "inputs": [
        {
          "internalType": "address",
          "name": "user",
          "type": "address"
        }
      ],
      "name": "canPropose",
      "outputs": [
        {
          "internalType": "bool",
          "name": "",
          "type": "bool"
        }
      ],
      "stateMutability": "view",
      "type": "function"
    },
    {
      "inputs": [
        {
          "internalType": "address[]",
          "name": "targets",
          "type": "address[]"
        },
        {
          "internalType": "uint256[]",
          "name": "values",
          "type": "uint256[]"
        },
        {
          "internalType": "bytes[]",
          "name": "calldatas",
          "type": "bytes[]"
        },
        {
          "internalType": "bytes32",
          "name": "descriptionHash",
          "type": "bytes32"
        }
      ],
      "name": "cancel",
      "outputs": [
        {
          "internalType": "uint256",
          "name": "",
          "type": "uint256"
        }
      ],
      "stateMutability": "nonpayable",
      "type": "function"
    },
    {
      "inputs": [
        {
          "internalType": "uint256",
          "name": "proposalId",
          "type": "uint256"
        }
      ],
      "name": "cancelProposal",
      "outputs": [],
      "stateMutability": "nonpayable",
      "type": "function"
    },
    {
      "inputs": [
        {
          "internalType": "uint256",
          "name": "proposalId",
          "type": "uint256"
        },
        {
          "internalType": "uint8",
          "name": "support",
          "type": "uint8"
        }
      ],
      "name": "castVote",
      "outputs": [
        {
          "internalType": "uint256",
          "name": "",
          "type": "uint256"
        }
      ],
      "stateMutability": "nonpayable",
      "type": "function"
    },
    {
      "inputs": [
        {
          "internalType": "uint256",
          "name": "proposalId",
          "type": "uint256"
        },
        {
          "internalType": "uint8",
          "name": "support",
          "type": "uint8"
        },
        {
          "internalType": "uint8",
          "name": "v",
          "type": "uint8"
        },
        {
          "internalType": "bytes32",
          "name": "r",
          "type": "bytes32"
        },
        {
          "internalType": "bytes32",
          "name": "s",
          "type": "bytes32"
        }
      ],
      "name": "castVoteBySig",
      "outputs": [
        {
          "internalType": "uint256",
          "name": "",
          "type": "uint256"
        }
      ],
      "stateMutability": "nonpayable",
      "type": "function"
    },
    {
      "inputs": [
        {
          "internalType": "uint256",
          "name": "proposalId",
          "type": "uint256"
        },
        {
          "internalType": "uint8",
          "name": "support",
          "type": "uint8"
        },
        {
          "internalType": "string",
          "name": "reason",
          "type": "string"
        }
      ],
      "name": "castVoteWithReason",
      "outputs": [
        {
          "internalType": "uint256",
          "name": "",
          "type": "uint256"
        }
      ],
      "stateMutability": "nonpayable",
      "type": "function"
    },
    {
      "inputs": [
        {
          "internalType": "uint256",
          "name": "proposalId",
          "type": "uint256"
        },
        {
          "internalType": "uint8",
          "name": "support",
          "type": "uint8"
        },
        {
          "internalType": "string",
          "name": "reason",
          "type": "string"
        },
        {
          "internalType": "bytes",
          "name": "params",
          "type": "bytes"
        }
      ],
      "name": "castVoteWithReasonAndParams",
      "outputs": [
        {
          "internalType": "uint256",
          "name": "",
          "type": "uint256"
        }
      ],
      "stateMutability": "nonpayable",
      "type": "function"
    },
    {
      "inputs": [
        {
          "internalType": "uint256",
          "name": "proposalId",
          "type": "uint256"
        },
        {
          "internalType": "uint8",
          "name": "support",
          "type": "uint8"
        },
        {
          "internalType": "string",
          "name": "reason",
          "type": "string"
        },
        {
          "internalType": "bytes",
          "name": "params",
          "type": "bytes"
        },
        {
          "internalType": "uint8",
          "name": "v",
          "type": "uint8"
        },
        {
          "internalType": "bytes32",
          "name": "r",
          "type": "bytes32"
        },
        {
          "internalType": "bytes32",
          "name": "s",
          "type": "bytes32"
        }
      ],
      "name": "castVoteWithReasonAndParamsBySig",
      "outputs": [
        {
          "internalType": "uint256",
          "name": "",
          "type": "uint256"
        }
      ],
      "stateMutability": "nonpayable",
      "type": "function"
    },
    {
      "inputs": [],
      "name": "clock",
      "outputs": [
        {
          "internalType": "uint48",
          "name": "",
          "type": "uint48"
        }
      ],
      "stateMutability": "view",
      "type": "function"
    },
    {
      "inputs": [
        {
          "internalType": "string",
          "name": "title",
          "type": "string"
        },
        {
          "internalType": "string",
          "name": "description",
          "type": "string"
        },
        {
          "internalType": "uint256",
          "name": "targetAmount",
          "type": "uint256"
        },
        {
          "internalType": "string",
          "name": "projectType",
          "type": "string"
        },
        {
          "internalType": "string",
          "name": "location",
          "type": "string"
        }
      ],
      "name": "createCommunityProposal",
      "outputs": [
        {
          "internalType": "uint256",
          "name": "",
          "type": "uint256"
        }
      ],
      "stateMutability": "nonpayable",
      "type": "function"
    },
    {
      "inputs": [],
      "name": "eip712Domain",
      "outputs": [
        {
          "internalType": "bytes1",
          "name": "fields",
          "type": "bytes1"
        },
        {
          "internalType": "string",
          "name": "name",
          "type": "string"
        },
        {
          "internalType": "string",
          "name": "version",
          "type": "string"
        },
        {
          "internalType": "uint256",
          "name": "chainId",
          "type": "uint256"
        },
        {
          "internalType": "address",
          "name": "verifyingContract",
          "type": "address"
        },
        {
          "internalType": "bytes32",
          "name": "salt",
          "type": "bytes32"
        },
        {
          "internalType": "uint256[]",
          "name": "extensions",
          "type": "uint256[]"
        }
      ],
      "stateMutability": "view",
      "type": "function"
    },
    {
      "inputs": [
        {
          "internalType": "address[]",
          "name": "targets",
          "type": "address[]"
        },
        {
          "internalType": "uint256[]",
          "name": "values",
          "type": "uint256[]"
        },
        {
          "internalType": "bytes[]",
          "name": "calldatas",
          "type": "bytes[]"
        },
        {
          "internalType": "bytes32",
          "name": "descriptionHash",
          "type": "bytes32"
        }
      ],
      "name": "execute",
      "outputs": [
        {
          "internalType": "uint256",
          "name": "",
          "type": "uint256"
        }
      ],
      "stateMutability": "payable",
      "type": "function"
    },
    {
      "inputs": [
        {
          "internalType": "string",
          "name": "title",
          "type": "string"
        },
        {
          "internalType": "uint256",
          "name": "targetAmount",
          "type": "uint256"
        },
        {
          "internalType": "string",
          "name": "projectType",
          "type": "string"
        },
        {
          "internalType": "string",
          "name": "location",
          "type": "string"
        }
      ],
      "name": "executeProposal",
      "outputs": [],
      "stateMutability": "nonpayable",
      "type": "function"
    },
    {
      "inputs": [],
      "name": "getActiveProposals",
      "outputs": [
        {
          "internalType": "uint256[]",
          "name": "",
          "type": "uint256[]"
        }
      ],
      "stateMutability": "view",
      "type": "function"
    },
    {
      "inputs": [
        {
          "internalType": "uint256",
          "name": "proposalId",
          "type": "uint256"
        }
      ],
      "name": "getProposal",
      "outputs": [
        {
          "components": [
            {
              "internalType": "uint256",
              "name": "id",
              "type": "uint256"
            },
            {
              "internalType": "address",
              "name": "proposer",
              "type": "address"
            },
            {
              "internalType": "string",
              "name": "title",
              "type": "string"
            },
            {
              "internalType": "string",
              "name": "description",
              "type": "string"
            },
            {
              "internalType": "uint256",
              "name": "targetAmount",
              "type": "uint256"
            },
            {
              "internalType": "string",
              "name": "projectType",
              "type": "string"
            },
            {
              "internalType": "string",
              "name": "location",
              "type": "string"
            },
            {
              "internalType": "uint256",
              "name": "startTime",
              "type": "uint256"
            },
            {
              "internalType": "uint256",
              "name": "endTime",
              "type": "uint256"
            },
            {
              "internalType": "bool",
              "name": "executed",
              "type": "bool"
            },
            {
              "internalType": "bool",
              "name": "cancelled",
              "type": "bool"
            }
          ],
          "internalType": "struct LeafDAO.Proposal",
          "name": "",
          "type": "tuple"
        }
      ],
      "stateMutability": "view",
      "type": "function"
    },
    {
      "inputs": [
        {
          "internalType": "address",
          "name": "user",
          "type": "address"
        }
      ],
      "name": "getUserProposals",
      "outputs": [
        {
          "internalType": "uint256[]",
          "name": "",
          "type": "uint256[]"
        }
      ],
      "stateMutability": "view",
      "type": "function"
    },
    {
      "inputs": [
        {
          "internalType": "address",
          "name": "account",
          "type": "address"
        },
        {
          "internalType": "uint256",
          "name": "timepoint",
          "type": "uint256"
        }
      ],
      "name": "getVotes",
      "outputs": [
        {
          "internalType": "uint256",
          "name": "",
          "type": "uint256"
        }
      ],
      "stateMutability": "view",
      "type": "function"
    },
    {
      "inputs": [
        {
          "internalType": "address",
          "name": "account",
          "type": "address"
        },
        {
          "internalType": "uint256",
          "name": "timepoint",
          "type": "uint256"
        },
        {
          "internalType": "bytes",
          "name": "params",
          "type": "bytes"
        }
      ],
      "name": "getVotesWithParams",
      "outputs": [
        {
          "internalType": "uint256",
          "name": "",
          "type": "uint256"
        }
      ],
      "stateMutability": "view",
      "type": "function"
    },
    {
      "inputs": [
        {
          "internalType": "uint256",
          "name": "proposalId",
          "type": "uint256"
        },
        {
          "internalType": "address",
          "name": "account",
          "type": "address"
        }
      ],
      "name": "hasVoted",
      "outputs": [
        {
          "internalType": "bool",
          "name": "",
          "type": "bool"
        }
      ],
      "stateMutability": "view",
      "type": "function"
    },
    {
      "inputs": [
        {
          "internalType": "address[]",
          "name": "targets",
          "type": "address[]"
        },
        {
          "internalType": "uint256[]",
          "name": "values",
          "type": "uint256[]"
        },
        {
          "internalType": "bytes[]",
          "name": "calldatas",
          "type": "bytes[]"
        },
        {
          "internalType": "bytes32",
          "name": "descriptionHash",
          "type": "bytes32"
        }
      ],
      "name": "hashProposal",
      "outputs": [
        {
          "internalType": "uint256",
          "name": "",
          "type": "uint256"
        }
      ],
      "stateMutability": "pure",
      "type": "function"
    },
    {
      "inputs": [],
      "name": "name",
      "outputs": [
        {
          "internalType": "string",
          "name": "",
          "type": "string"
        }
      ],
      "stateMutability": "view",
      "type": "function"
    },
    {
      "inputs": [
        {
          "internalType": "address",
          "name": "",
          "type": "address"
        },
        {
          "internalType": "address",
          "name": "",
          "type": "address"
        },
        {
          "internalType": "uint256[]",
          "name": "",
          "type": "uint256[]"
        },
        {
          "internalType": "uint256[]",
          "name": "",
          "type": "uint256[]"
        },
        {
          "internalType": "bytes",
          "name": "",
          "type": "bytes"
        }
      ],
      "name": "onERC1155BatchReceived",
      "outputs": [
        {
          "internalType": "bytes4",
          "name": "",
          "type": "bytes4"
        }
      ],
      "stateMutability": "nonpayable",
      "type": "function"
    },
    {
      "inputs": [
        {
          "internalType": "address",
          "name": "",
          "type": "address"
        },
        {
          "internalType": "address",
          "name": "",
          "type": "address"
        },
        {
          "internalType": "uint256",
          "name": "",
          "type": "uint256"
        },
        {
          "internalType": "uint256",
          "name": "",
          "type": "uint256"
        },
        {
          "internalType": "bytes",
          "name": "",
          "type": "bytes"
        }
      ],
      "name": "onERC1155Received",
      "outputs": [
        {
          "internalType": "bytes4",
          "name": "",
          "type": "bytes4"
        }
      ],
      "stateMutability": "nonpayable",
      "type": "function"
    },
    {
      "inputs": [
        {
          "internalType": "address",
          "name": "",
          "type": "address"
        },
        {
          "internalType": "address",
          "name": "",
          "type": "address"
        },
        {
          "internalType": "uint256",
          "name": "",
          "type": "uint256"
        },
        {
          "internalType": "bytes",
          "name": "",
          "type": "bytes"
        }
      ],
      "name": "onERC721Received",
      "outputs": [
        {
          "internalType": "bytes4",
          "name": "",
          "type": "bytes4"
        }
      ],
      "stateMutability": "nonpayable",
      "type": "function"
    },
    {
      "inputs": [
        {
          "internalType": "uint256",
          "name": "proposalId",
          "type": "uint256"
        }
      ],
      "name": "proposalDeadline",
      "outputs": [
        {
          "internalType": "uint256",
          "name": "",
          "type": "uint256"
        }
      ],
      "stateMutability": "view",
      "type": "function"
    },
    {
      "inputs": [
        {
          "internalType": "uint256",
          "name": "proposalId",
          "type": "uint256"
        }
      ],
      "name": "proposalEta",
      "outputs": [
        {
          "internalType": "uint256",
          "name": "",
          "type": "uint256"
        }
      ],
      "stateMutability": "view",
      "type": "function"
    },
    {
      "inputs": [
        {
          "internalType": "uint256",
          "name": "proposalId",
          "type": "uint256"
        }
      ],
      "name": "proposalProposer",
      "outputs": [
        {
          "internalType": "address",
          "name": "",
          "type": "address"
        }
      ],
      "stateMutability": "view",
      "type": "function"
    },
    {
      "inputs": [
        {
          "internalType": "uint256",
          "name": "proposalId",
          "type": "uint256"
        }
      ],
      "name": "proposalSnapshot",
      "outputs": [
        {
          "internalType": "uint256",
          "name": "",
          "type": "uint256"
        }
      ],
      "stateMutability": "view",
      "type": "function"
    },
    {
      "inputs": [],
      "name": "proposalThreshold",
      "outputs": [
        {
          "internalType": "uint256",
          "name": "",
          "type": "uint256"
        }
      ],
      "stateMutability": "view",
      "type": "function"
    },
    {
      "inputs": [
        {
          "internalType": "uint256",
          "name": "proposalId",
          "type": "uint256"
        }
      ],
      "name": "proposalVotes",
      "outputs": [
        {
          "internalType": "uint256",
          "name": "againstVotes",
          "type": "uint256"
        },
        {
          "internalType": "uint256",
          "name": "forVotes",
          "type": "uint256"
        },
        {
          "internalType": "uint256",
          "name": "abstainVotes",
          "type": "uint256"
        }
      ],
      "stateMutability": "view",
      "type": "function"
    },
    {
      "inputs": [
        {
          "internalType": "uint256",
          "name": "",
          "type": "uint256"
        }
      ],
      "name": "proposals",
      "outputs": [
        {
          "internalType": "uint256",
          "name": "id",
          "type": "uint256"
        },
        {
          "internalType": "address",
          "name": "proposer",
          "type": "address"
        },
        {
          "internalType": "string",
          "name": "title",
          "type": "string"
        },
        {
          "internalType": "string",
          "name": "description",
          "type": "string"
        },
        {
          "internalType": "uint256",
          "name": "targetAmount",
          "type": "uint256"
        },
        {
          "internalType": "string",
          "name": "projectType",
          "type": "string"
        },
        {
          "internalType": "string",
          "name": "location",
          "type": "string"
        },
        {
          "internalType": "uint256",
          "name": "startTime",
          "type": "uint256"
        },
        {
          "internalType": "uint256",
          "name": "endTime",
          "type": "uint256"
        },
        {
          "internalType": "bool",
          "name": "executed",
          "type": "bool"
        },
        {
          "internalType": "bool",
          "name": "cancelled",
          "type": "bool"
        }
      ],
      "stateMutability": "view",
      "type": "function"
    },
    {
      "inputs": [
        {
          "internalType": "address[]",
          "name": "targets",
          "type": "address[]"
        },
        {
          "internalType": "uint256[]",
          "name": "values",
          "type": "uint256[]"
        },
        {
          "internalType": "bytes[]",
          "name": "calldatas",
          "type": "bytes[]"
        },
        {
          "internalType": "string",
          "name": "description",
          "type": "string"
        }
      ],
      "name": "propose",
      "outputs": [
        {
          "internalType": "uint256",
          "name": "",
          "type": "uint256"
        }
      ],
      "stateMutability": "nonpayable",
      "type": "function"
    },
    {
      "inputs": [
        {
          "internalType": "address[]",
          "name": "targets",
          "type": "address[]"
        },
        {
          "internalType": "uint256[]",
          "name": "values",
          "type": "uint256[]"
        },
        {
          "internalType": "bytes[]",
          "name": "calldatas",
          "type": "bytes[]"
        },
        {
          "internalType": "bytes32",
          "name": "descriptionHash",
          "type": "bytes32"
        }
      ],
      "name": "queue",
      "outputs": [
        {
          "internalType": "uint256",
          "name": "",
          "type": "uint256"
        }
      ],
      "stateMutability": "nonpayable",
      "type": "function"
    },
    {
      "inputs": [
        {
          "internalType": "uint256",
          "name": "blockNumber",
          "type": "uint256"
        }
      ],
      "name": "quorum",
      "outputs": [
        {
          "internalType": "uint256",
          "name": "",
          "type": "uint256"
        }
      ],
      "stateMutability": "view",
      "type": "function"
    },
    {
      "inputs": [],
      "name": "quorumDenominator",
      "outputs": [
        {
          "internalType": "uint256",
          "name": "",
          "type": "uint256"
        }
      ],
      "stateMutability": "view",
      "type": "function"
    },
    {
      "inputs": [
        {
          "internalType": "uint256",
          "name": "timepoint",
          "type": "uint256"
        }
      ],
      "name": "quorumNumerator",
      "outputs": [
        {
          "internalType": "uint256",
          "name": "",
          "type": "uint256"
        }
      ],
      "stateMutability": "view",
      "type": "function"
    },
    {
      "inputs": [],
      "name": "quorumNumerator",
      "outputs": [
        {
          "internalType": "uint256",
          "name": "",
          "type": "uint256"
        }
      ],
      "stateMutability": "view",
      "type": "function"
    },
    {
      "inputs": [
        {
          "internalType": "address",
          "name": "target",
          "type": "address"
        },
        {
          "internalType": "uint256",
          "name": "value",
          "type": "uint256"
        },
        {
          "internalType": "bytes",
          "name": "data",
          "type": "bytes"
        }
      ],
      "name": "relay",
      "outputs": [],
      "stateMutability": "payable",
      "type": "function"
    },
    {
      "inputs": [
        {
          "internalType": "uint256",
          "name": "newProposalThreshold",
          "type": "uint256"
        }
      ],
      "name": "setProposalThreshold",
      "outputs": [],
      "stateMutability": "nonpayable",
      "type": "function"
    },
    {
      "inputs": [
        {
          "internalType": "uint256",
          "name": "newVotingDelay",
          "type": "uint256"
        }
      ],
      "name": "setVotingDelay",
      "outputs": [],
      "stateMutability": "nonpayable",
      "type": "function"
    },
    {
      "inputs": [
        {
          "internalType": "uint256",
          "name": "newVotingPeriod",
          "type": "uint256"
        }
      ],
      "name": "setVotingPeriod",
      "outputs": [],
      "stateMutability": "nonpayable",
      "type": "function"
    },
    {
      "inputs": [
        {
          "internalType": "uint256",
          "name": "proposalId",
          "type": "uint256"
        }
      ],
      "name": "state",
      "outputs": [
        {
          "internalType": "enum IGovernor.ProposalState",
          "name": "",
          "type": "uint8"
        }
      ],
      "stateMutability": "view",
      "type": "function"
    },
    {
      "inputs": [
        {
          "internalType": "bytes4",
          "name": "interfaceId",
          "type": "bytes4"
        }
      ],
      "name": "supportsInterface",
      "outputs": [
        {
          "internalType": "bool",
          "name": "",
          "type": "bool"
        }
      ],
      "stateMutability": "view",
      "type": "function"
    },
    {
      "inputs": [],
      "name": "timelock",
      "outputs": [
        {
          "internalType": "address",
          "name": "",
          "type": "address"
        }
      ],
      "stateMutability": "view",
      "type": "function"
    },
    {
      "inputs": [],
      "name": "token",
      "outputs": [
        {
          "internalType": "contract IERC5805",
          "name": "",
          "type": "address"
        }
      ],
      "stateMutability": "view",
      "type": "function"
    },
    {
      "inputs": [
        {
          "internalType": "uint256",
          "name": "newQuorumNumerator",
          "type": "uint256"
        }
      ],
      "name": "updateQuorumNumerator",
      "outputs": [],
      "stateMutability": "nonpayable",
      "type": "function"
    },
    {
      "inputs": [
        {
          "internalType": "contract TimelockController",
          "name": "newTimelock",
          "type": "address"
        }
      ],
      "name": "updateTimelock",
      "outputs": [],
      "stateMutability": "nonpayable",
      "type": "function"
    },
    {
      "inputs": [
        {
          "internalType": "address",
          "name": "",
          "type": "address"
        },
        {
          "internalType": "uint256",
          "name": "",
          "type": "uint256"
        }
      ],
      "name": "userProposals",
      "outputs": [
        {
          "internalType": "uint256",
          "name": "",
          "type": "uint256"
        }
      ],
      "stateMutability": "view",
      "type": "function"
    },
    {
      "inputs": [],
      "name": "version",
      "outputs": [
        {
          "internalType": "string",
          "name": "",
          "type": "string"
        }
      ],
      "stateMutability": "view",
      "type": "function"
    },
    {
      "inputs": [],
      "name": "votingDelay",
      "outputs": [
        {
          "internalType": "uint256",
          "name": "",
          "type": "uint256"
        }
      ],
      "stateMutability": "view",
      "type": "function"
    },
    {
      "inputs": [],
      "name": "votingPeriod",
      "outputs": [
        {
          "internalType": "uint256",
          "name": "",
          "type": "uint256"
        }
      ],
      "stateMutability": "view",
      "type": "function"
    },
    {
      "stateMutability": "payable",
      "type": "receive"
    }
  ],
  "bytecode": "0x6101806040523480156200001257600080fd5b50604051620066bb380380620066bb83398101604081905262000035916200094a565b818184600161c4e06000604051806040016040528060088152602001674c6561662044414f60c01b81525080620000716200018960201b60201c565b6200007e826000620001a4565b610120526200008f816001620001a4565b61014052815160208084019190912060e052815190820120610100524660a0526200011d60e05161010051604080517f8b73c3c69bb8fe3d512ecc4cf759cc79239f7b179b0ffacaa9a75d522b39400f60208201529081019290925260608201524660808201523060a082015260009060c00160405160208183030381529060405280519060200120905090565b60805250503060c052600262000134828262000a37565b5062000142905083620001dd565b6200014d826200021e565b6200015881620002c5565b5050506001600160a01b031661016052620001738162000306565b506200017f8162000485565b5050505062000bc4565b6040805180820190915260018152603160f81b602082015290565b6000602083511015620001c457620001bc83620004ee565b9050620001d7565b81620001d1848262000a37565b5060ff90505b92915050565b60065460408051918252602082018390527fc565b045403dc03c2eea82b81a0465edad9e2e7fc4d97e11421c209da93d7a93910160405180910390a1600655565b60008111620002845760405162461bcd60e51b815260206004820152602760248201527f476f7665726e6f7253657474696e67733a20766f74696e6720706572696f6420604482015266746f6f206c6f7760c81b60648201526084015b60405180910390fd5b60075460408051918252602082018390527f7e3f7f0708a84de9203036abaa450dccc85ad5ff52f78c170f3edb55cf5e8828910160405180910390a1600755565b60085460408051918252602082018390527fccb45da8d5717e6c4544694297c4ba5cf151d455c9bb0ed4fc7a38411bc05461910160405180910390a1600855565b60648111156200038b5760405162461bcd60e51b815260206004820152604360248201527f476f7665726e6f72566f74657351756f72756d4672616374696f6e3a2071756f60448201527f72756d4e756d657261746f72206f7665722071756f72756d44656e6f6d696e616064820152623a37b960e91b608482015260a4016200027b565b60006200039762000531565b90508015801590620003a95750600b54155b1562000411576040805180820190915260008152600b9060208101620003cf8462000560565b6001600160e01b0390811690915282546001810184556000938452602093849020835194909301519091166401000000000263ffffffff909316929092179101555b620004466200043162000423620005cf565b65ffffffffffff1662000646565b6200043c8462000560565b600b9190620006ad565b505060408051828152602081018490527f0553476bf02ef2726e8ce5ced78d63e26e602e4a2257b1f559418e24b4633997910160405180910390a15050565b600c54604080516001600160a01b03928316815291831660208301527f08f74ea46ef7894f65eabfb5e6e695de773a000b47c529ab559178069b226401910160405180910390a1600c80546001600160a01b0319166001600160a01b0392909216919091179055565b600080829050601f815111156200051c578260405163305a27a960e01b81526004016200027b919062000b03565b8051620005298262000b53565b179392505050565b600b5460009015620005575762000549600b620006ca565b6001600160e01b0316905090565b600a545b905090565b60006001600160e01b03821115620005cb5760405162461bcd60e51b815260206004820152602760248201527f53616665436173743a2076616c756520646f65736e27742066697420696e20326044820152663234206269747360c81b60648201526084016200027b565b5090565b6000610160516001600160a01b03166391ddadf46040518163ffffffff1660e01b8152600401602060405180830381865afa92505050801562000631575060408051601f3d908101601f191682019092526200062e9181019062000b78565b60015b62000641576200055b4362000718565b919050565b600063ffffffff821115620005cb5760405162461bcd60e51b815260206004820152602660248201527f53616665436173743a2076616c756520646f65736e27742066697420696e203360448201526532206269747360d01b60648201526084016200027b565b600080620006bd85858562000781565b915091505b935093915050565b805460009080156200070e57620006f683620006e860018462000ba2565b600091825260209091200190565b5464010000000090046001600160e01b031662000711565b60005b9392505050565b600065ffffffffffff821115620005cb5760405162461bcd60e51b815260206004820152602660248201527f53616665436173743a2076616c756520646f65736e27742066697420696e203460448201526538206269747360d01b60648201526084016200027b565b825460009081908015620008d6576000620007a387620006e860018562000ba2565b60408051808201909152905463ffffffff8082168084526401000000009092046001600160e01b031660208401529192509087161015620008275760405162461bcd60e51b815260206004820152601b60248201527f436865636b706f696e743a2064656372656173696e67206b657973000000000060448201526064016200027b565b805163ffffffff8088169116036200087557846200084c88620006e860018662000ba2565b80546001600160e01b03929092166401000000000263ffffffff909216919091179055620008c5565b6040805180820190915263ffffffff80881682526001600160e01b0380881660208085019182528b54600181018d5560008d81529190912094519151909216640100000000029216919091179101555b602001519250839150620006c29050565b50506040805180820190915263ffffffff80851682526001600160e01b0380851660208085019182528854600181018a5560008a815291822095519251909316640100000000029190931617920191909155905081620006c2565b6001600160a01b03811681146200094757600080fd5b50565b6000806000606084860312156200096057600080fd5b83516200096d8162000931565b6020850151909350620009808162000931565b80925050604084015190509250925092565b634e487b7160e01b600052604160045260246000fd5b600181811c90821680620009bd57607f821691505b602082108103620009de57634e487b7160e01b600052602260045260246000fd5b50919050565b601f82111562000a3257600081815260208120601f850160051c8101602086101562000a0d5750805b601f850160051c820191505b8181101562000a2e5782815560010162000a19565b5050505b505050565b81516001600160401b0381111562000a535762000a5362000992565b62000a6b8162000a648454620009a8565b84620009e4565b602080601f83116001811462000aa3576000841562000a8a5750858301515b600019600386901b1c1916600185901b17855562000a2e565b600085815260208120601f198616915b8281101562000ad45788860151825594840194600190910190840162000ab3565b508582101562000af35787850151600019600388901b60f8161c191681555b5050505050600190811b01905550565b600060208083528351808285015260005b8181101562000b325785810183015185820160400152820162000b14565b506000604082860101526040601f19601f8301168501019250505092915050565b80516020808301519190811015620009de5760001960209190910360031b1b16919050565b60006020828403121562000b8b57600080fd5b815165ffffffffffff811681146200071157600080fd5b81810381811115620001d757634e487b7160e01b600052601160045260246000fd5b60805160a05160c05160e05161010051610120516101405161016051615a6e62000c4d60003960008181610c8001528181611534015281816116ef01528181611c450152818161361b015261383f01526000611bf101526000611bc701526000613a3c01526000613a140152600061396f01526000613999015260006139c30152615a6e6000f3fe6080604052600436106103855760003560e01c806370b0f660116101d1578063c01f9e3711610102578063e0a8f6f5116100a0578063ed2eba1b1161006f578063ed2eba1b14610c02578063f23a6e6114610c22578063f8ce560a14610c4e578063fc0c546a14610c6e57600080fd5b8063e0a8f6f514610b82578063ea0217cf14610ba2578063eb9019d414610bc2578063ece40cc114610be257600080fd5b8063c7f758a8116100dc578063c7f758a814610abd578063d33219b414610aea578063dd4e2ba514610b08578063deaaa7cc14610b4e57600080fd5b8063c01f9e3714610a51578063c28bc2fa14610a8a578063c59057e414610a9d57600080fd5b806397c3d3341161016f578063a890c91011610149578063a890c910146109d0578063ab58fb8e146109f0578063b58131b014610a10578063bc197c8114610a2557600080fd5b806397c3d334146109875780639a802a6d1461099b578063a7713a70146109bb57600080fd5b80637d5e81e2116101ab5780637d5e81e2146108fc5780637f0970101461091c57806384b0196e1461093357806391ddadf41461095b57600080fd5b806370b0f6601461089c57806378ef1138146108bc5780637b3c71d3146108dc57600080fd5b80633340a176116102b65780634bf5d7e9116102545780635678138811610223578063567813881461082057806358462d0c146108405780635f398a141461085c57806360c4247f1461087c57600080fd5b80634bf5d7e91461076a578063544ffc9c1461077f57806354fd4d50146107d45780635584c4f9146107fe57600080fd5b80633e4f49e6116102905780633e4f49e6146106b357806342b4632e146106e05780634385963214610700578063452115d61461074a57600080fd5b80633340a176146106615780633932abb11461067e5780633bccf4fd1461069357600080fd5b8063150b7a021161032357806325cb350e116102fd57806325cb350e146105c35780632656227d146105e45780632d63f693146105f75780632fe3e2611461062d57600080fd5b8063150b7a021461053f578063160cbed7146105835780631b31527f146105a357600080fd5b8063034201811161035f578063034201811461048857806306f3f9e6146104a857806306fdde03146104c8578063143489d0146104ea57600080fd5b8063013cf08b146103f557806301ffc9a71461043557806302a251a31461046557600080fd5b366103f05730610393610ca2565b6001600160a01b0316146103ee5760405162461bcd60e51b815260206004820152601f60248201527f476f7665726e6f723a206d7573742073656e6420746f206578656375746f720060448201526064015b60405180910390fd5b005b600080fd5b34801561040157600080fd5b5061041561041036600461472e565b610cbb565b60405161042c9b9a99989796959493929190614797565b60405180910390f35b34801561044157600080fd5b50610455610450366004614834565b610f40565b604051901515815260200161042c565b34801561047157600080fd5b5061047a610f51565b60405190815260200161042c565b34801561049457600080fd5b5061047a6104a336600461497a565b610f5c565b3480156104b457600080fd5b506103ee6104c336600461472e565b611054565b3480156104d457600080fd5b506104dd6110de565b60405161042c9190614a20565b3480156104f657600080fd5b5061052761050536600461472e565b600090815260036020526040902054600160401b90046001600160a01b031690565b6040516001600160a01b03909116815260200161042c565b34801561054b57600080fd5b5061056a61055a366004614a48565b630a85bd0160e11b949350505050565b6040516001600160e01b0319909116815260200161042c565b34801561058f57600080fd5b5061047a61059e366004614c1f565b611170565b3480156105af57600080fd5b5061047a6105be366004614cae565b611371565b3480156105cf57600080fd5b506103ee6105de366004614cda565b50505050565b61047a6105f2366004614c1f565b6113a2565b34801561060357600080fd5b5061047a61061236600461472e565b6000908152600360205260409020546001600160401b031690565b34801561063957600080fd5b5061047a7fb3b3f3b703cd84ce352197dcff232b1b5d3cfb2025ce47cf04742d0651f1af8881565b34801561066d57600080fd5b5061047a68056bc75e2d6310000081565b34801561068a57600080fd5b5061047a611494565b34801561069f57600080fd5b5061047a6106ae366004614d5f565b61149f565b3480156106bf57600080fd5b506106d36106ce36600461472e565b611515565b60405161042c9190614dc3565b3480156106ec57600080fd5b506104556106fb366004614deb565b611520565b34801561070c57600080fd5b5061045561071b366004614e08565b60008281526009602090815260408083206001600160a01b038516845260030190915290205460ff1692915050565b34801561075657600080fd5b5061047a610765366004614c1f565b6115da565b34801561077657600080fd5b506104dd6116eb565b34801561078b57600080fd5b506107b961079a36600461472e565b6000908152600960205260409020805460018201546002909201549092565b6040805193845260208401929092529082015260600161042c565b3480156107e057600080fd5b506040805180820190915260018152603160f81b60208201526104dd565b34801561080a57600080fd5b506108136117ad565b60405161042c9190614e73565b34801561082c57600080fd5b5061047a61083b366004614e86565b611943565b34801561084c57600080fd5b5061047a67016345785d8a000081565b34801561086857600080fd5b5061047a610877366004614eb2565b61196c565b34801561088857600080fd5b5061047a61089736600461472e565b6119b6565b3480156108a857600080fd5b506103ee6108b736600461472e565b611a67565b3480156108c857600080fd5b506108136108d7366004614deb565b611aee565b3480156108e857600080fd5b5061047a6108f7366004614f35565b611b5a565b34801561090857600080fd5b5061047a610917366004614f8e565b611ba2565b34801561092857600080fd5b5061047a62093a8081565b34801561093f57600080fd5b50610948611bb9565b60405161042c979695949392919061500b565b34801561096757600080fd5b50610970611c41565b60405165ffffffffffff909116815260200161042c565b34801561099357600080fd5b50606461047a565b3480156109a757600080fd5b5061047a6109b636600461506d565b611cca565b3480156109c757600080fd5b5061047a611ce1565b3480156109dc57600080fd5b506103ee6109eb366004614deb565b611d0b565b3480156109fc57600080fd5b5061047a610a0b36600461472e565b611d92565b348015610a1c57600080fd5b5061047a611e2c565b348015610a3157600080fd5b5061056a610a403660046150c5565b63bc197c8160e01b95945050505050565b348015610a5d57600080fd5b5061047a610a6c36600461472e565b6000908152600360205260409020600101546001600160401b031690565b6103ee610a98366004615158565b611e37565b348015610aa957600080fd5b5061047a610ab8366004614c1f565b611f46565b348015610ac957600080fd5b50610add610ad836600461472e565b611f80565b60405161042c919061519b565b348015610af657600080fd5b50600c546001600160a01b0316610527565b348015610b1457600080fd5b506040805180820190915260208082527f737570706f72743d627261766f2671756f72756d3d666f722c6162737461696e908201526104dd565b348015610b5a57600080fd5b5061047a7f150214d74d59b7d1e90c73fc22ef3d991dd0a76b046543d4d80ab92d2a50328f81565b348015610b8e57600080fd5b506103ee610b9d36600461472e565b612318565b348015610bae57600080fd5b506103ee610bbd36600461472e565b6124b3565b348015610bce57600080fd5b5061047a610bdd366004614cae565b61253a565b348015610bee57600080fd5b506103ee610bfd36600461472e565b61255b565b348015610c0e57600080fd5b5061047a610c1d366004615288565b6125e2565b348015610c2e57600080fd5b5061056a610c3d36600461530e565b63f23a6e6160e01b95945050505050565b348015610c5a57600080fd5b5061047a610c6936600461472e565b6129e1565b348015610c7a57600080fd5b506105277f000000000000000000000000000000000000000000000000000000000000000081565b6000610cb6600c546001600160a01b031690565b905090565b600e6020526000908152604090208054600182015460028301805492936001600160a01b0390921692610ced90615376565b80601f0160208091040260200160405190810160405280929190818152602001828054610d1990615376565b8015610d665780601f10610d3b57610100808354040283529160200191610d66565b820191906000526020600020905b815481529060010190602001808311610d4957829003601f168201915b505050505090806003018054610d7b90615376565b80601f0160208091040260200160405190810160405280929190818152602001828054610da790615376565b8015610df45780601f10610dc957610100808354040283529160200191610df4565b820191906000526020600020905b815481529060010190602001808311610dd757829003601f168201915b505050505090806004015490806005018054610e0f90615376565b80601f0160208091040260200160405190810160405280929190818152602001828054610e3b90615376565b8015610e885780601f10610e5d57610100808354040283529160200191610e88565b820191906000526020600020905b815481529060010190602001808311610e6b57829003601f168201915b505050505090806006018054610e9d90615376565b80601f0160208091040260200160405190810160405280929190818152602001828054610ec990615376565b8015610f165780601f10610eeb57610100808354040283529160200191610f16565b820191906000526020600020905b815481529060010190602001808311610ef957829003601f168201915b50505050600783015460088401546009909401549293909290915060ff808216916101009004168b565b6000610f4b826129ec565b92915050565b6000610cb660075490565b600080611000610ff87fb3b3f3b703cd84ce352197dcff232b1b5d3cfb2025ce47cf04742d0651f1af888c8c8c8c604051610f989291906153b0565b60405180910390208b80519060200120604051602001610fdd959493929190948552602085019390935260ff9190911660408401526060830152608082015260a00190565b60405160208183030381529060405280519060200120612a11565b868686612a3e565b90506110468a828b8b8b8080601f0160208091040260200160405190810160405280939291908181526020018383808284376000920191909152508d9250612a5c915050565b9a9950505050505050505050565b61105c610ca2565b6001600160a01b0316336001600160a01b03161461108c5760405162461bcd60e51b81526004016103e5906153c0565b30611095610ca2565b6001600160a01b0316146110d257600080366040516110b59291906153b0565b604051809103902090505b806110cb6004612bb1565b036110c057505b6110db81612c30565b50565b6060600280546110ed90615376565b80601f016020809104026020016040519081016040528092919081815260200182805461111990615376565b80156111665780601f1061113b57610100808354040283529160200191611166565b820191906000526020600020905b81548152906001019060200180831161114957829003601f168201915b5050505050905090565b60008061117f86868686611f46565b9050600461118c82611515565b600781111561119d5761119d614dad565b146111ba5760405162461bcd60e51b81526004016103e5906153f7565b600c546040805163793d064960e11b815290516000926001600160a01b03169163f27a0c929160048083019260209291908290030181865afa158015611204573d6000803e3d6000fd5b505050506040513d601f19601f820116820180604052508101906112289190615438565b600c5460405163b1c5f42760e01b81529192506001600160a01b03169063b1c5f42790611262908a908a908a906000908b906004016154df565b602060405180830381865afa15801561127f573d6000803e3d6000fd5b505050506040513d601f19601f820116820180604052508101906112a39190615438565b6000838152600d602052604080822092909255600c5491516308f2a0bb60e41b81526001600160a01b0390921691638f2a0bb0916112ee918b918b918b91908b90899060040161552d565b600060405180830381600087803b15801561130857600080fd5b505af115801561131c573d6000803e3d6000fd5b505050507f9a2e42fd6722813d69113e7d0079d3d940171428df7373df9c7f7617cfda289282824261134e919061559b565b604080519283526020830191909152015b60405180910390a15095945050505050565b600f602052816000526040600020818154811061138d57600080fd5b90600052602060002001600091509150505481565b6000806113b186868686611f46565b905060006113be82611515565b905060048160078111156113d4576113d4614dad565b14806113f1575060058160078111156113ef576113ef614dad565b145b61140d5760405162461bcd60e51b81526004016103e5906153f7565b60008281526003602052604090819020600201805460ff19166001179055517f712ae1383f79ac853f8d882153778e0260ef8f03b504e2866e0593e04d2b291f9061145b9084815260200190565b60405180910390a16114708288888888612d9e565b61147d8288888888612e40565b61148a8288888888612e4d565b5095945050505050565b6000610cb660065490565b604080517f150214d74d59b7d1e90c73fc22ef3d991dd0a76b046543d4d80ab92d2a50328f602082015290810186905260ff8516606082015260009081906114ed90610ff890608001610fdd565b905061150a87828860405180602001604052806000815250612e86565b979650505050505050565b6000610f4b82612ea9565b600061152a611e2c565b6001600160a01b037f000000000000000000000000000000000000000000000000000000000000000016633a46b1a8846115656001436155ae565b6040516001600160e01b031960e085901b1681526001600160a01b0390921660048301526024820152604401602060405180830381865afa1580156115ae573d6000803e3d6000fd5b505050506040513d601f19601f820116820180604052508101906115d29190615438565b101592915050565b6000806115e986868686611f46565b905060006115f682611515565b600781111561160757611607614dad565b146116545760405162461bcd60e51b815260206004820152601c60248201527f476f7665726e6f723a20746f6f206c61746520746f2063616e63656c0000000060448201526064016103e5565b600081815260036020526040902054600160401b90046001600160a01b0316336001600160a01b0316146116d55760405162461bcd60e51b815260206004820152602260248201527f476f7665726e6f723a206f6e6c792070726f706f7365722063616e2063616e63604482015261195b60f21b60648201526084016103e5565b6116e186868686612ff3565b9695505050505050565b60607f00000000000000000000000000000000000000000000000000000000000000006001600160a01b0316634bf5d7e96040518163ffffffff1660e01b8152600401600060405180830381865afa92505050801561176c57506040513d6000823e601f3d908101601f1916820160405261176991908101906155c1565b60015b6117a8575060408051808201909152601d81527f6d6f64653d626c6f636b6e756d6265722666726f6d3d64656661756c74000000602082015290565b919050565b604080516064808252610ca082019092526060916000919060208201610c8080368337019050509050600060015b606481116118a0576000818152600e60205260409020600101546001600160a01b03161580159061181e57506000818152600e602052604090206009015460ff16155b801561184157506000818152600e6020526040902060090154610100900460ff16155b801561185d57506000818152600e602052604090206008015442105b1561188e57808383815181106118755761187561562e565b60209081029190910101528161188a81615644565b9250505b8061189881615644565b9150506117db565b506000816001600160401b038111156118bb576118bb6148b7565b6040519080825280602002602001820160405280156118e4578160200160208202803683370190505b50905060005b8281101561193b578381815181106119045761190461562e565b602002602001015182828151811061191e5761191e61562e565b60209081029190910101528061193381615644565b9150506118ea565b509392505050565b60008033905061196484828560405180602001604052806000815250612e86565b949350505050565b60008033905061150a87828888888080601f0160208091040260200160405190810160405280939291908181526020018383808284376000920191909152508a9250612a5c915050565b600b546000908082036119cd575050600a54919050565b6000600b6119dc6001846155ae565b815481106119ec576119ec61562e565b60009182526020918290206040805180820190915291015463ffffffff8116808352600160201b9091046001600160e01b03169282019290925291508410611a4257602001516001600160e01b03169392505050565b611a56611a4e85613001565b600b9061306a565b6001600160e01b0316949350505050565b611a6f610ca2565b6001600160a01b0316336001600160a01b031614611a9f5760405162461bcd60e51b81526004016103e5906153c0565b30611aa8610ca2565b6001600160a01b031614611ae55760008036604051611ac89291906153b0565b604051809103902090505b80611ade6004612bb1565b03611ad357505b6110db8161311d565b6001600160a01b0381166000908152600f6020908152604091829020805483518184028101840190945280845260609392830182828015611b4e57602002820191906000526020600020905b815481526020019060010190808311611b3a575b50505050509050919050565b6000803390506116e186828787878080601f016020809104026020016040519081016040528093929190818152602001838380828437600092019190915250612e8692505050565b6000611bb08585858561315e565b95945050505050565b600060608082808083611bec7f0000000000000000000000000000000000000000000000000000000000000000836134e0565b611c177f000000000000000000000000000000000000000000000000000000000000000060016134e0565b60408051600080825260208201909252600f60f81b9b939a50919850469750309650945092509050565b60007f00000000000000000000000000000000000000000000000000000000000000006001600160a01b03166391ddadf46040518163ffffffff1660e01b8152600401602060405180830381865afa925050508015611cbd575060408051601f3d908101601f19168201909252611cba9181019061565d565b60015b6117a857610cb64361358b565b6000611cd78484846135f2565b90505b9392505050565b600b5460009015611d0457611cf6600b613688565b6001600160e01b0316905090565b50600a5490565b611d13610ca2565b6001600160a01b0316336001600160a01b031614611d435760405162461bcd60e51b81526004016103e5906153c0565b30611d4c610ca2565b6001600160a01b031614611d895760008036604051611d6c9291906153b0565b604051809103902090505b80611d826004612bb1565b03611d7757505b6110db816136b8565b600c546000828152600d602052604080822054905163d45c443560e01b81526004810191909152909182916001600160a01b039091169063d45c443590602401602060405180830381865afa158015611def573d6000803e3d6000fd5b505050506040513d601f19601f82011682018060405250810190611e139190615438565b905080600114611e235780611cda565b60009392505050565b6000610cb660085490565b611e3f610ca2565b6001600160a01b0316336001600160a01b031614611e6f5760405162461bcd60e51b81526004016103e5906153c0565b30611e78610ca2565b6001600160a01b031614611eb55760008036604051611e989291906153b0565b604051809103902090505b80611eae6004612bb1565b03611ea357505b600080856001600160a01b0316858585604051611ed39291906153b0565b60006040518083038185875af1925050503d8060008114611f10576040519150601f19603f3d011682016040523d82523d6000602084013e611f15565b606091505b5091509150611f3d8282604051806060016040528060288152602001615a1160289139613721565b50505050505050565b600084848484604051602001611f5f9493929190615685565b60408051601f19818403018152919052805160209091012095945050505050565b611fea6040518061016001604052806000815260200160006001600160a01b03168152602001606081526020016060815260200160008152602001606081526020016060815260200160008152602001600081526020016000151581526020016000151581525090565b6000828152600e60205260409020600101546001600160a01b03166120515760405162461bcd60e51b815260206004820181905260248201527f4c65616644414f3a2070726f706f73616c20646f6573206e6f7420657869737460448201526064016103e5565b6000828152600e60209081526040918290208251610160810184528154815260018201546001600160a01b031692810192909252600281018054929391929184019161209c90615376565b80601f01602080910402602001604051908101604052809291908181526020018280546120c890615376565b80156121155780601f106120ea57610100808354040283529160200191612115565b820191906000526020600020905b8154815290600101906020018083116120f857829003601f168201915b5050505050815260200160038201805461212e90615376565b80601f016020809104026020016040519081016040528092919081815260200182805461215a90615376565b80156121a75780601f1061217c576101008083540402835291602001916121a7565b820191906000526020600020905b81548152906001019060200180831161218a57829003601f168201915b50505050508152602001600482015481526020016005820180546121ca90615376565b80601f01602080910402602001604051908101604052809291908181526020018280546121f690615376565b80156122435780601f1061221857610100808354040283529160200191612243565b820191906000526020600020905b81548152906001019060200180831161222657829003601f168201915b5050505050815260200160068201805461225c90615376565b80601f016020809104026020016040519081016040528092919081815260200182805461228890615376565b80156122d55780601f106122aa576101008083540402835291602001916122d5565b820191906000526020600020905b8154815290600101906020018083116122b857829003601f168201915b5050509183525050600782015460208201526008820154604082015260099091015460ff8082161515606084015261010090910416151560809091015292915050565b6000818152600e60205260409020600101546001600160a01b0316331461238b5760405162461bcd60e51b815260206004820152602160248201527f4c65616644414f3a206f6e6c792070726f706f7365722063616e2063616e63656044820152601b60fa1b60648201526084016103e5565b6000818152600e602052604090206009015460ff16156123f85760405162461bcd60e51b815260206004820152602260248201527f4c65616644414f3a2070726f706f73616c20616c726561647920657865637574604482015261195960f21b60648201526084016103e5565b6000818152600e6020526040902060090154610100900460ff161561246b5760405162461bcd60e51b815260206004820152602360248201527f4c65616644414f3a2070726f706f73616c20616c72656164792063616e63656c6044820152621b195960ea1b60648201526084016103e5565b6000818152600e6020526040808220600901805461ff0019166101001790555182917f416e669c63d9a3a5e36ee7cc7e2104b8db28ccd286aa18966e98fa230c73b08c91a250565b6124bb610ca2565b6001600160a01b0316336001600160a01b0316146124eb5760405162461bcd60e51b81526004016103e5906153c0565b306124f4610ca2565b6001600160a01b03161461253157600080366040516125149291906153b0565b604051809103902090505b8061252a6004612bb1565b0361251f57505b6110db8161373a565b6000611cda838361255660408051602081019091526000815290565b6135f2565b612563610ca2565b6001600160a01b0316336001600160a01b0316146125935760405162461bcd60e51b81526004016103e5906153c0565b3061259c610ca2565b6001600160a01b0316146125d957600080366040516125bc9291906153b0565b604051809103902090505b806125d26004612bb1565b036125c757505b6110db816137db565b600067016345785d8a00008410158015612605575068056bc75e2d631000008411155b6126515760405162461bcd60e51b815260206004820152601e60248201527f4c65616644414f3a20696e76616c69642074617267657420616d6f756e74000060448201526064016103e5565b60008651116126a25760405162461bcd60e51b815260206004820152601e60248201527f4c65616644414f3a207469746c652063616e6e6f7420626520656d707479000060448201526064016103e5565b60008551116126ff5760405162461bcd60e51b8152602060048201526024808201527f4c65616644414f3a206465736372697074696f6e2063616e6e6f7420626520656044820152636d70747960e01b60648201526084016103e5565b60408051600180825281830190925260009160208083019080368337505060408051600180825281830190925292935060009291506020808301908036833750506040805160018082528183019092529293506000929150602082015b606081526020019060019003908161275c57905050905030836000815181106127875761278761562e565b60200260200101906001600160a01b031690816001600160a01b0316815250506000826000815181106127bc576127bc61562e565b602002602001018181525050888787876040516024016127df94939291906156d0565b60408051601f198184030181529190526020810180516001600160e01b03166312e59a8760e11b1790528151829060009061281c5761281c61562e565b602002602001018190525060006128358484848c611ba2565b9050604051806101600160405280828152602001336001600160a01b031681526020018b81526020018a815260200189815260200188815260200187815260200142815260200162093a804261288b919061559b565b8152600060208083018290526040928301829052848252600e81529082902083518155908301516001820180546001600160a01b0319166001600160a01b039092169190911790559082015160028201906128e6908261575a565b50606082015160038201906128fb908261575a565b506080820151600482015560a0820151600582019061291a908261575a565b5060c0820151600682019061292f908261575a565b5060e08201516007820155610100808301516008830155610120830151600990920180546101409094015161ffff1990941692151561ff0019169290921792151502919091179055336000818152600f60209081526040808320805460018101825590845291909220018390555182907f7585f467599d0f008985f231af99293be388626ac16ca59505c2f8f88969cd63906129cc908d90614a20565b60405180910390a39998505050505050505050565b6000610f4b8261381c565b60006001600160e01b03198216636e665ced60e01b1480610f4b5750610f4b826138c6565b6000610f4b612a1e613962565b8360405161190160f01b8152600281019290925260228201526042902090565b6000806000612a4f87878787613a8d565b9150915061148a81613b51565b60008581526003602052604081206001612a7588611515565b6007811115612a8657612a86614dad565b14612adf5760405162461bcd60e51b815260206004820152602360248201527f476f7665726e6f723a20766f7465206e6f742063757272656e746c792061637460448201526269766560e81b60648201526084016103e5565b8054600090612af99088906001600160401b0316866135f2565b9050612b088888888488613c9b565b8351600003612b5d57866001600160a01b03167fb8e138887d0aa13bab447e82de9d5c1777041ecd21ca36ba824ff1e6c07ddda489888489604051612b509493929190615819565b60405180910390a261150a565b866001600160a01b03167fe2babfbac5889a709b63bb7f598b324e08bc5a4fb9ec647fb3cbc9ec07eb87128988848989604051612b9e959493929190615841565b60405180910390a2979650505050505050565b6000612bcc8254600f81810b600160801b909204900b131590565b15612bea57604051631ed9509560e11b815260040160405180910390fd5b508054600f0b6000818152600180840160205260408220805492905583546fffffffffffffffffffffffffffffffff191692016001600160801b03169190911790915590565b6064811115612cb35760405162461bcd60e51b815260206004820152604360248201527f476f7665726e6f72566f74657351756f72756d4672616374696f6e3a2071756f60448201527f72756d4e756d657261746f72206f7665722071756f72756d44656e6f6d696e616064820152623a37b960e91b608482015260a4016103e5565b6000612cbd611ce1565b90508015801590612cce5750600b54155b15612d32576040805180820190915260008152600b9060208101612cf184613e15565b6001600160e01b039081169091528254600181018455600093845260209384902083519490930151909116600160201b0263ffffffff909316929092179101555b612d5f612d4d612d40611c41565b65ffffffffffff16613001565b612d5684613e15565b600b9190613e7e565b505060408051828152602081018490527f0553476bf02ef2726e8ce5ced78d63e26e602e4a2257b1f559418e24b4633997910160405180910390a15050565b30612da7610ca2565b6001600160a01b031614612e395760005b8451811015612e3757306001600160a01b0316858281518110612ddd57612ddd61562e565b60200260200101516001600160a01b031603612e2757612e27838281518110612e0857612e0861562e565b6020026020010151805190602001206004613e9990919063ffffffff16565b612e3081615644565b9050612db8565b505b5050505050565b612e398585858585613ed5565b30612e56610ca2565b6001600160a01b031614612e3957600454600f81810b600160801b909204900b1315612e39576000600455612e39565b6000611bb085858585612ea460408051602081019091526000815290565b612a5c565b600080612eb583613f49565b90506004816007811115612ecb57612ecb614dad565b14612ed65792915050565b6000838152600d602052604090205480612ef1575092915050565b600c54604051632ab0f52960e01b8152600481018390526001600160a01b0390911690632ab0f52990602401602060405180830381865afa158015612f3a573d6000803e3d6000fd5b505050506040513d601f19601f82011682018060405250810190612f5e9190615887565b15612f6d575060079392505050565b600c54604051632c258a9f60e11b8152600481018390526001600160a01b039091169063584b153e90602401602060405180830381865afa158015612fb6573d6000803e3d6000fd5b505050506040513d601f19601f82011682018060405250810190612fda9190615887565b15612fe9575060059392505050565b5060029392505050565b6000611bb085858585614089565b600063ffffffff8211156130665760405162461bcd60e51b815260206004820152602660248201527f53616665436173743a2076616c756520646f65736e27742066697420696e203360448201526532206269747360d01b60648201526084016103e5565b5090565b8154600090818160058111156130c75760006130858461413b565b61308f90856155ae565b60008881526020902090915081015463ffffffff90811690871610156130b7578091506130c5565b6130c281600161559b565b92505b505b60006130d587878585614223565b90508015613110576130fa876130ec6001846155ae565b600091825260209091200190565b54600160201b90046001600160e01b031661150a565b6000979650505050505050565b60065460408051918252602082018390527fc565b045403dc03c2eea82b81a0465edad9e2e7fc4d97e11421c209da93d7a93910160405180910390a1600655565b6000338161316a611c41565b65ffffffffffff16905061317c611e2c565b61318b83610bdd6001856155ae565b10156131f35760405162461bcd60e51b815260206004820152603160248201527f476f7665726e6f723a2070726f706f73657220766f7465732062656c6f7720706044820152701c9bdc1bdcd85b081d1a1c995cda1bdb19607a1b60648201526084016103e5565b60006132088888888880519060200120611f46565b9050865188511461322b5760405162461bcd60e51b81526004016103e5906158a9565b855188511461324c5760405162461bcd60e51b81526004016103e5906158a9565b600088511161329d5760405162461bcd60e51b815260206004820152601860248201527f476f7665726e6f723a20656d7074792070726f706f73616c000000000000000060448201526064016103e5565b6000818152600360205260409020546001600160401b03161561330c5760405162461bcd60e51b815260206004820152602160248201527f476f7665726e6f723a2070726f706f73616c20616c72656164792065786973746044820152607360f81b60648201526084016103e5565b6000613316611494565b613320908461559b565b9050600061332c610f51565b613336908361559b565b90506040518060e0016040528061334c84614279565b6001600160401b031681526001600160a01b03871660208201526000604082015260600161337983614279565b6001600160401b039081168252600060208084018290526040808501839052606094850183905288835260038252918290208551815492870151878501519186166001600160e01b031990941693909317600160401b6001600160a01b039094168402176001600160e01b0316600160e01b60e09290921c91909102178155938501516080860151908416921c0217600183015560a08301516002909201805460c09094015161ffff1990941692151561ff00191692909217610100931515939093029290921790558a517f7d84a6263ae0d98d3329bd7b46bb4e8d6f98cd35a7adb45c274c8b7fd5ebd5e091859188918e918e9181111561347d5761347d6148b7565b6040519080825280602002602001820160405280156134b057816020015b606081526020019060019003908161349b5790505b508d88888f6040516134ca999897969594939291906158ea565b60405180910390a1509098975050505050505050565b606060ff83146134fa576134f3836142e1565b9050610f4b565b81805461350690615376565b80601f016020809104026020016040519081016040528092919081815260200182805461353290615376565b801561357f5780601f106135545761010080835404028352916020019161357f565b820191906000526020600020905b81548152906001019060200180831161356257829003601f168201915b50505050509050610f4b565b600065ffffffffffff8211156130665760405162461bcd60e51b815260206004820152602660248201527f53616665436173743a2076616c756520646f65736e27742066697420696e203460448201526538206269747360d01b60648201526084016103e5565b604051630748d63560e31b81526001600160a01b038481166004830152602482018490526000917f000000000000000000000000000000000000000000000000000000000000000090911690633a46b1a890604401602060405180830381865afa158015613664573d6000803e3d6000fd5b505050506040513d601f19601f82011682018060405250810190611cd79190615438565b80546000908015611e23576136a2836130ec6001846155ae565b54600160201b90046001600160e01b0316611cda565b600c54604080516001600160a01b03928316815291831660208301527f08f74ea46ef7894f65eabfb5e6e695de773a000b47c529ab559178069b226401910160405180910390a1600c80546001600160a01b0319166001600160a01b0392909216919091179055565b60608315613730575081611cda565b611cda8383614320565b6000811161379a5760405162461bcd60e51b815260206004820152602760248201527f476f7665726e6f7253657474696e67733a20766f74696e6720706572696f6420604482015266746f6f206c6f7760c81b60648201526084016103e5565b60075460408051918252602082018390527f7e3f7f0708a84de9203036abaa450dccc85ad5ff52f78c170f3edb55cf5e8828910160405180910390a1600755565b60085460408051918252602082018390527fccb45da8d5717e6c4544694297c4ba5cf151d455c9bb0ed4fc7a38411bc05461910160405180910390a1600855565b60006064613829836119b6565b604051632394e7a360e21b8152600481018590527f00000000000000000000000000000000000000000000000000000000000000006001600160a01b031690638e539e8c90602401602060405180830381865afa15801561388e573d6000803e3d6000fd5b505050506040513d601f19601f820116820180604052508101906138b29190615438565b6138bc91906159c1565b610f4b91906159ee565b600063288ace0360e11b6318df743f60e31b63bf26d89760e01b6379dd796f60e01b6001600160e01b0319861682148061390c57506001600160e01b0319868116908216145b8061392357506001600160e01b0319868116908516145b8061393e57506001600160e01b03198616630271189760e51b145b806116e157506301ffc9a760e01b6001600160e01b03198716149695505050505050565b6000306001600160a01b037f0000000000000000000000000000000000000000000000000000000000000000161480156139bb57507f000000000000000000000000000000000000000000000000000000000000000046145b156139e557507f000000000000000000000000000000000000000000000000000000000000000090565b610cb6604080517f8b73c3c69bb8fe3d512ecc4cf759cc79239f7b179b0ffacaa9a75d522b39400f60208201527f0000000000000000000000000000000000000000000000000000000000000000918101919091527f000000000000000000000000000000000000000000000000000000000000000060608201524660808201523060a082015260009060c00160405160208183030381529060405280519060200120905090565b6000807f7fffffffffffffffffffffffffffffff5d576e7357a4501ddfe92f46681b20a0831115613ac45750600090506003613b48565b6040805160008082526020820180845289905260ff881692820192909252606081018690526080810185905260019060a0016020604051602081039080840390855afa158015613b18573d6000803e3d6000fd5b5050604051601f1901519150506001600160a01b038116613b4157600060019250925050613b48565b9150600090505b94509492505050565b6000816004811115613b6557613b65614dad565b03613b6d5750565b6001816004811115613b8157613b81614dad565b03613bce5760405162461bcd60e51b815260206004820152601860248201527f45434453413a20696e76616c6964207369676e6174757265000000000000000060448201526064016103e5565b6002816004811115613be257613be2614dad565b03613c2f5760405162461bcd60e51b815260206004820152601f60248201527f45434453413a20696e76616c6964207369676e6174757265206c656e6774680060448201526064016103e5565b6003816004811115613c4357613c43614dad565b036110db5760405162461bcd60e51b815260206004820152602260248201527f45434453413a20696e76616c6964207369676e6174757265202773272076616c604482015261756560f01b60648201526084016103e5565b60008581526009602090815260408083206001600160a01b0388168452600381019092529091205460ff1615613d235760405162461bcd60e51b815260206004820152602760248201527f476f7665726e6f72566f74696e6753696d706c653a20766f746520616c726561604482015266191e4818d85cdd60ca1b60648201526084016103e5565b6001600160a01b03851660009081526003820160205260409020805460ff1916600117905560ff8416613d6f5782816000016000828254613d64919061559b565b90915550612e379050565b60001960ff851601613d8f5782816001016000828254613d64919061559b565b60011960ff851601613daf5782816002016000828254613d64919061559b565b60405162461bcd60e51b815260206004820152603560248201527f476f7665726e6f72566f74696e6753696d706c653a20696e76616c69642076616044820152746c756520666f7220656e756d20566f74655479706560581b60648201526084016103e5565b60006001600160e01b038211156130665760405162461bcd60e51b815260206004820152602760248201527f53616665436173743a2076616c756520646f65736e27742066697420696e20326044820152663234206269747360c81b60648201526084016103e5565b600080613e8c85858561434a565b915091505b935093915050565b8154600160801b90819004600f0b6000818152600180860160205260409091209390935583546001600160801b03908116939091011602179055565b600c5460405163e38335e560e01b81526001600160a01b039091169063e38335e5903490613f109088908890889060009089906004016154df565b6000604051808303818588803b158015613f2957600080fd5b505af1158015613f3d573d6000803e3d6000fd5b50505050505050505050565b6000818152600360205260408120600281015460ff1615613f6d5750600792915050565b6002810154610100900460ff1615613f885750600292915050565b6000838152600360205260408120546001600160401b031690819003613ff05760405162461bcd60e51b815260206004820152601d60248201527f476f7665726e6f723a20756e6b6e6f776e2070726f706f73616c20696400000060448201526064016103e5565b6000613ffa611c41565b65ffffffffffff16905080821061401657506000949350505050565b6000858152600360205260409020600101546001600160401b03168181106140445750600195945050505050565b61404d866144e9565b801561406c575060008681526009602052604090208054600190910154115b1561407d5750600495945050505050565b50600395945050505050565b60008061409886868686614535565b6000818152600d602052604090205490915015611bb057600c546000828152600d60205260409081902054905163c4d252f560e01b81526001600160a01b039092169163c4d252f5916140f19160040190815260200190565b600060405180830381600087803b15801561410b57600080fd5b505af115801561411f573d6000803e3d6000fd5b5050506000828152600d60205260408120555095945050505050565b60008160000361414d57506000919050565b6000600161415a84614641565b901c6001901b90506001818481614173576141736159d8565b048201901c9050600181848161418b5761418b6159d8565b048201901c905060018184816141a3576141a36159d8565b048201901c905060018184816141bb576141bb6159d8565b048201901c905060018184816141d3576141d36159d8565b048201901c905060018184816141eb576141eb6159d8565b048201901c90506001818481614203576142036159d8565b048201901c9050611cda8182858161421d5761421d6159d8565b046146d5565b60005b8183101561193b57600061423a84846146eb565b60008781526020902090915063ffffffff86169082015463ffffffff16111561426557809250614273565b61427081600161559b565b93505b50614226565b60006001600160401b038211156130665760405162461bcd60e51b815260206004820152602660248201527f53616665436173743a2076616c756520646f65736e27742066697420696e203660448201526534206269747360d01b60648201526084016103e5565b606060006142ee83614706565b604080516020808252818301909252919250600091906020820181803683375050509182525060208101929092525090565b8151156143305781518083602001fd5b8060405162461bcd60e51b81526004016103e59190614a20565b825460009081908015614490576000614368876130ec6001856155ae565b60408051808201909152905463ffffffff808216808452600160201b9092046001600160e01b0316602084015291925090871610156143e95760405162461bcd60e51b815260206004820152601b60248201527f436865636b706f696e743a2064656372656173696e67206b657973000000000060448201526064016103e5565b805163ffffffff808816911603614431578461440a886130ec6001866155ae565b80546001600160e01b0392909216600160201b0263ffffffff909216919091179055614480565b6040805180820190915263ffffffff80881682526001600160e01b0380881660208085019182528b54600181018d5560008d81529190912094519151909216600160201b029216919091179101555b602001519250839150613e919050565b50506040805180820190915263ffffffff80851682526001600160e01b0380851660208085019182528854600181018a5560008a815291822095519251909316600160201b029190931617920191909155905081613e91565b60008181526009602052604081206002810154600182015461450b919061559b565b60008481526003602052604090205461452c906001600160401b03166129e1565b11159392505050565b60008061454486868686611f46565b9050600061455182611515565b9050600281600781111561456757614567614dad565b141580156145875750600681600781111561458457614584614dad565b14155b80156145a5575060078160078111156145a2576145a2614dad565b14155b6145f15760405162461bcd60e51b815260206004820152601d60248201527f476f7665726e6f723a2070726f706f73616c206e6f742061637469766500000060448201526064016103e5565b60008281526003602052604090819020600201805461ff001916610100179055517f789cf55be980739dad1d0699b93b58e806b51c9d96619bfa8fe0a28abaa7b30c9061135f9084815260200190565b600080608083901c1561465657608092831c92015b604083901c1561466857604092831c92015b602083901c1561467a57602092831c92015b601083901c1561468c57601092831c92015b600883901c1561469e57600892831c92015b600483901c156146b057600492831c92015b600283901c156146c257600292831c92015b600183901c15610f4b5760010192915050565b60008183106146e45781611cda565b5090919050565b60006146fa60028484186159ee565b611cda9084841661559b565b600060ff8216601f811115610f4b57604051632cd44ac360e21b815260040160405180910390fd5b60006020828403121561474057600080fd5b5035919050565b60005b8381101561476257818101518382015260200161474a565b50506000910152565b60008151808452614783816020860160208601614747565b601f01601f19169290920160200192915050565b8b81526001600160a01b038b166020820152610160604082018190526000906147c28382018d61476b565b905082810360608401526147d6818c61476b565b905089608084015282810360a08401526147f0818a61476b565b905082810360c0840152614804818961476b565b60e08401979097525050610100810193909352901515610120830152151561014090910152979650505050505050565b60006020828403121561484657600080fd5b81356001600160e01b031981168114611cda57600080fd5b803560ff811681146117a857600080fd5b60008083601f84011261488157600080fd5b5081356001600160401b0381111561489857600080fd5b6020830191508360208285010111156148b057600080fd5b9250929050565b634e487b7160e01b600052604160045260246000fd5b604051601f8201601f191681016001600160401b03811182821017156148f5576148f56148b7565b604052919050565b60006001600160401b03821115614916576149166148b7565b50601f01601f191660200190565b600082601f83011261493557600080fd5b8135614948614943826148fd565b6148cd565b81815284602083860101111561495d57600080fd5b816020850160208301376000918101602001919091529392505050565b60008060008060008060008060e0898b03121561499657600080fd5b883597506149a660208a0161485e565b965060408901356001600160401b03808211156149c257600080fd5b6149ce8c838d0161486f565b909850965060608b01359150808211156149e757600080fd5b506149f48b828c01614924565b945050614a0360808a0161485e565b925060a0890135915060c089013590509295985092959890939650565b602081526000611cda602083018461476b565b6001600160a01b03811681146110db57600080fd5b60008060008060808587031215614a5e57600080fd5b8435614a6981614a33565b93506020850135614a7981614a33565b92506040850135915060608501356001600160401b03811115614a9b57600080fd5b614aa787828801614924565b91505092959194509250565b60006001600160401b03821115614acc57614acc6148b7565b5060051b60200190565b600082601f830112614ae757600080fd5b81356020614af761494383614ab3565b82815260059290921b84018101918181019086841115614b1657600080fd5b8286015b84811015614b3a578035614b2d81614a33565b8352918301918301614b1a565b509695505050505050565b600082601f830112614b5657600080fd5b81356020614b6661494383614ab3565b82815260059290921b84018101918181019086841115614b8557600080fd5b8286015b84811015614b3a5780358352918301918301614b89565b600082601f830112614bb157600080fd5b81356020614bc161494383614ab3565b82815260059290921b84018101918181019086841115614be057600080fd5b8286015b84811015614b3a5780356001600160401b03811115614c035760008081fd5b614c118986838b0101614924565b845250918301918301614be4565b60008060008060808587031215614c3557600080fd5b84356001600160401b0380821115614c4c57600080fd5b614c5888838901614ad6565b95506020870135915080821115614c6e57600080fd5b614c7a88838901614b45565b94506040870135915080821115614c9057600080fd5b50614c9d87828801614ba0565b949793965093946060013593505050565b60008060408385031215614cc157600080fd5b8235614ccc81614a33565b946020939093013593505050565b60008060008060808587031215614cf057600080fd5b84356001600160401b0380821115614d0757600080fd5b614d1388838901614924565b9550602087013594506040870135915080821115614d3057600080fd5b614d3c88838901614924565b93506060870135915080821115614d5257600080fd5b50614aa787828801614924565b600080600080600060a08688031215614d7757600080fd5b85359450614d876020870161485e565b9350614d956040870161485e565b94979396509394606081013594506080013592915050565b634e487b7160e01b600052602160045260246000fd5b6020810160088310614de557634e487b7160e01b600052602160045260246000fd5b91905290565b600060208284031215614dfd57600080fd5b8135611cda81614a33565b60008060408385031215614e1b57600080fd5b823591506020830135614e2d81614a33565b809150509250929050565b600081518084526020808501945080840160005b83811015614e6857815187529582019590820190600101614e4c565b509495945050505050565b602081526000611cda6020830184614e38565b60008060408385031215614e9957600080fd5b82359150614ea96020840161485e565b90509250929050565b600080600080600060808688031215614eca57600080fd5b85359450614eda6020870161485e565b935060408601356001600160401b0380821115614ef657600080fd5b614f0289838a0161486f565b90955093506060880135915080821115614f1b57600080fd5b50614f2888828901614924565b9150509295509295909350565b60008060008060608587031215614f4b57600080fd5b84359350614f5b6020860161485e565b925060408501356001600160401b03811115614f7657600080fd5b614f828782880161486f565b95989497509550505050565b60008060008060808587031215614fa457600080fd5b84356001600160401b0380821115614fbb57600080fd5b614fc788838901614ad6565b95506020870135915080821115614fdd57600080fd5b614fe988838901614b45565b94506040870135915080821115614fff57600080fd5b614d3c88838901614ba0565b60ff60f81b8816815260e06020820152600061502a60e083018961476b565b828103604084015261503c818961476b565b606084018890526001600160a01b038716608085015260a0840186905283810360c085015290506110468185614e38565b60008060006060848603121561508257600080fd5b833561508d81614a33565b92506020840135915060408401356001600160401b038111156150af57600080fd5b6150bb86828701614924565b9150509250925092565b600080600080600060a086880312156150dd57600080fd5b85356150e881614a33565b945060208601356150f881614a33565b935060408601356001600160401b038082111561511457600080fd5b61512089838a01614b45565b9450606088013591508082111561513657600080fd5b61514289838a01614b45565b93506080880135915080821115614f1b57600080fd5b6000806000806060858703121561516e57600080fd5b843561517981614a33565b93506020850135925060408501356001600160401b03811115614f7657600080fd5b6020815281516020820152600060208301516151c260408401826001600160a01b03169052565b5060408301516101608060608501526151df61018085018361476b565b91506060850151601f19808685030160808701526151fd848361476b565b9350608087015160a087015260a08701519150808685030160c0870152615224848361476b565b935060c08701519150808685030160e087015250615242838261476b565b60e0870151610100878101919091528701516101208088019190915287015190935090506101406152768187018315159052565b90950151151593019290925250919050565b600080600080600060a086880312156152a057600080fd5b85356001600160401b03808211156152b757600080fd5b6152c389838a01614924565b965060208801359150808211156152d957600080fd5b6152e589838a01614924565b955060408801359450606088013591508082111561530257600080fd5b61514289838a01614924565b600080600080600060a0868803121561532657600080fd5b853561533181614a33565b9450602086013561534181614a33565b9350604086013592506060860135915060808601356001600160401b0381111561536a57600080fd5b614f2888828901614924565b600181811c9082168061538a57607f821691505b6020821081036153aa57634e487b7160e01b600052602260045260246000fd5b50919050565b8183823760009101908152919050565b60208082526018908201527f476f7665726e6f723a206f6e6c79476f7665726e616e63650000000000000000604082015260600190565b60208082526021908201527f476f7665726e6f723a2070726f706f73616c206e6f74207375636365737366756040820152601b60fa1b606082015260800190565b60006020828403121561544a57600080fd5b5051919050565b600081518084526020808501945080840160005b83811015614e685781516001600160a01b031687529582019590820190600101615465565b600081518084526020808501808196508360051b8101915082860160005b858110156154d25782840389526154c084835161476b565b988501989350908401906001016154a8565b5091979650505050505050565b60a0815260006154f260a0830188615451565b82810360208401526155048188614e38565b90508281036040840152615518818761548a565b60608401959095525050608001529392505050565b60c08152600061554060c0830189615451565b82810360208401526155528189614e38565b90508281036040840152615566818861548a565b60608401969096525050608081019290925260a0909101529392505050565b634e487b7160e01b600052601160045260246000fd5b80820180821115610f4b57610f4b615585565b81810381811115610f4b57610f4b615585565b6000602082840312156155d357600080fd5b81516001600160401b038111156155e957600080fd5b8201601f810184136155fa57600080fd5b8051615608614943826148fd565b81815285602083850101111561561d57600080fd5b611bb0826020830160208601614747565b634e487b7160e01b600052603260045260246000fd5b60006001820161565657615656615585565b5060010190565b60006020828403121561566f57600080fd5b815165ffffffffffff81168114611cda57600080fd5b6080815260006156986080830187615451565b82810360208401526156aa8187614e38565b905082810360408401526156be818661548a565b91505082606083015295945050505050565b6080815260006156e3608083018761476b565b85602084015282810360408401526156fb818661476b565b9050828103606084015261150a818561476b565b601f82111561575557600081815260208120601f850160051c810160208610156157365750805b601f850160051c820191505b81811015612e3757828155600101615742565b505050565b81516001600160401b03811115615773576157736148b7565b615787816157818454615376565b8461570f565b602080601f8311600181146157bc57600084156157a45750858301515b600019600386901b1c1916600185901b178555612e37565b600085815260208120601f198616915b828110156157eb578886015182559484019460019091019084016157cc565b50858210156158095787850151600019600388901b60f8161c191681555b5050505050600190811b01905550565b84815260ff841660208201528260408201526080606082015260006116e1608083018461476b565b85815260ff8516602082015283604082015260a06060820152600061586960a083018561476b565b828103608084015261587b818561476b565b98975050505050505050565b60006020828403121561589957600080fd5b81518015158114611cda57600080fd5b60208082526021908201527f476f7665726e6f723a20696e76616c69642070726f706f73616c206c656e67746040820152600d60fb1b606082015260800190565b60006101208b8352602060018060a01b038c16818501528160408501526159138285018c615451565b91508382036060850152615927828b614e38565b915083820360808501528189518084528284019150828160051b850101838c0160005b8381101561597857601f1987840301855261596683835161476b565b9486019492509085019060010161594a565b505086810360a088015261598c818c61548a565b9450505050508560c08401528460e08401528281036101008401526159b1818561476b565b9c9b505050505050505050505050565b8082028115828204841417610f4b57610f4b615585565b634e487b7160e01b600052601260045260246000fd5b600082615a0b57634e487b7160e01b600052601260045260246000fd5b50049056fe476f7665726e6f723a2072656c617920726576657274656420776974686f7574206d657373616765a264697066735822122053edd3d9e8163e8fe49050f6f1bb6282a902b5a874ed224b653758ecc6fe356464736f6c63430008140033",
  "linkReferences": {},
  "deployedLinkReferences": {}
}