{
  "_format": "hh-sol-artifact-1",
  "contractName": "LeafCore",
  "sourceName": "contracts/LeafCore.sol",
  "abi": [
    {
      "inputs": [
        {
          "internalType": "address",
          "name": "_leafToken",
          "type": "address"
        },
        {
          "internalType": "address",
          "name": "_plantNFT",
          "type": "address"
        },
        {
          "internalType": "address",
          "name": "_projectRegistry",
          "type": "address"
        },
        {
          "internalType": "address",
          "name": "_leafDAO",
          "type": "address"
        },
        {
          "internalType": "address",
          "name": "initialOwner",
          "type": "address"
        }
      ],
      "stateMutability": "nonpayable",
      "type": "constructor"
    },
    {
      "anonymous": false,
      "inputs": [
        {
          "indexed": true,
          "internalType": "uint256",
          "name": "donationId",
          "type": "uint256"
        },
        {
          "indexed": true,
          "internalType": "address",
          "name": "donor",
          "type": "address"
        },
        {
          "indexed": true,
          "internalType": "uint256",
          "name": "projectId",
          "type": "uint256"
        },
        {
          "indexed": false,
          "internalType": "uint256",
          "name": "amount",
          "type": "uint256"
        },
        {
          "indexed": false,
          "internalType": "string",
          "name": "plantType",
          "type": "string"
        },
        {
          "indexed": false,
          "internalType": "string",
          "name": "message",
          "type": "string"
        }
      ],
      "name": "DonationMade",
      "type": "event"
    },
    {
      "anonymous": false,
      "inputs": [
        {
          "indexed": true,
          "internalType": "address",
          "name": "previousOwner",
          "type": "address"
        },
        {
          "indexed": true,
          "internalType": "address",
          "name": "newOwner",
          "type": "address"
        }
      ],
      "name": "OwnershipTransferred",
      "type": "event"
    },
    {
      "anonymous": false,
      "inputs": [
        {
          "indexed": true,
          "internalType": "address",
          "name": "donor",
          "type": "address"
        },
        {
          "indexed": true,
          "internalType": "uint256",
          "name": "projectId",
          "type": "uint256"
        }
      ],
      "name": "RecurringDonationCancelled",
      "type": "event"
    },
    {
      "anonymous": false,
      "inputs": [
        {
          "indexed": true,
          "internalType": "address",
          "name": "donor",
          "type": "address"
        },
        {
          "indexed": true,
          "internalType": "uint256",
          "name": "projectId",
          "type": "uint256"
        },
        {
          "indexed": false,
          "internalType": "uint256",
          "name": "amount",
          "type": "uint256"
        },
        {
          "indexed": false,
          "internalType": "uint256",
          "name": "frequency",
          "type": "uint256"
        }
      ],
      "name": "RecurringDonationSet",
      "type": "event"
    },
    {
      "anonymous": false,
      "inputs": [
        {
          "indexed": true,
          "internalType": "address",
          "name": "user",
          "type": "address"
        },
        {
          "indexed": false,
          "internalType": "uint256",
          "name": "leafTokens",
          "type": "uint256"
        },
        {
          "indexed": false,
          "internalType": "uint256",
          "name": "nftId",
          "type": "uint256"
        },
        {
          "indexed": false,
          "internalType": "string",
          "name": "reason",
          "type": "string"
        }
      ],
      "name": "RewardsDistributed",
      "type": "event"
    },
    {
      "inputs": [],
      "name": "LEAF_REWARD_RATE",
      "outputs": [
        {
          "internalType": "uint256",
          "name": "",
          "type": "uint256"
        }
      ],
      "stateMutability": "view",
      "type": "function"
    },
    {
      "inputs": [],
      "name": "MAX_PLATFORM_FEE",
      "outputs": [
        {
          "internalType": "uint256",
          "name": "",
          "type": "uint256"
        }
      ],
      "stateMutability": "view",
      "type": "function"
    },
    {
      "inputs": [],
      "name": "MAX_RECURRING_DONATIONS",
      "outputs": [
        {
          "internalType": "uint256",
          "name": "",
          "type": "uint256"
        }
      ],
      "stateMutability": "view",
      "type": "function"
    },
    {
      "inputs": [],
      "name": "MIN_DONATION",
      "outputs": [
        {
          "internalType": "uint256",
          "name": "",
          "type": "uint256"
        }
      ],
      "stateMutability": "view",
      "type": "function"
    },
    {
      "inputs": [],
      "name": "NFT_THRESHOLD",
      "outputs": [
        {
          "internalType": "uint256",
          "name": "",
          "type": "uint256"
        }
      ],
      "stateMutability": "view",
      "type": "function"
    },
    {
      "inputs": [
        {
          "internalType": "address",
          "name": "operator",
          "type": "address"
        }
      ],
      "name": "addOperator",
      "outputs": [],
      "stateMutability": "nonpayable",
      "type": "function"
    },
    {
      "inputs": [
        {
          "internalType": "uint256",
          "name": "index",
          "type": "uint256"
        }
      ],
      "name": "cancelRecurringDonation",
      "outputs": [],
      "stateMutability": "nonpayable",
      "type": "function"
    },
    {
      "inputs": [
        {
          "internalType": "uint256",
          "name": "projectId",
          "type": "uint256"
        },
        {
          "internalType": "string",
          "name": "plantType",
          "type": "string"
        },
        {
          "internalType": "string",
          "name": "message",
          "type": "string"
        }
      ],
      "name": "donateToProject",
      "outputs": [],
      "stateMutability": "payable",
      "type": "function"
    },
    {
      "inputs": [
        {
          "internalType": "uint256",
          "name": "",
          "type": "uint256"
        }
      ],
      "name": "donations",
      "outputs": [
        {
          "internalType": "uint256",
          "name": "id",
          "type": "uint256"
        },
        {
          "internalType": "address",
          "name": "donor",
          "type": "address"
        },
        {
          "internalType": "uint256",
          "name": "projectId",
          "type": "uint256"
        },
        {
          "internalType": "uint256",
          "name": "amount",
          "type": "uint256"
        },
        {
          "internalType": "string",
          "name": "plantType",
          "type": "string"
        },
        {
          "internalType": "string",
          "name": "message",
          "type": "string"
        },
        {
          "internalType": "uint256",
          "name": "timestamp",
          "type": "uint256"
        },
        {
          "internalType": "bool",
          "name": "rewardsClaimed",
          "type": "bool"
        }
      ],
      "stateMutability": "view",
      "type": "function"
    },
    {
      "inputs": [],
      "name": "emergencyPause",
      "outputs": [],
      "stateMutability": "nonpayable",
      "type": "function"
    },
    {
      "inputs": [
        {
          "internalType": "uint256",
          "name": "donationId",
          "type": "uint256"
        }
      ],
      "name": "getDonation",
      "outputs": [
        {
          "components": [
            {
              "internalType": "uint256",
              "name": "id",
              "type": "uint256"
            },
            {
              "internalType": "address",
              "name": "donor",
              "type": "address"
            },
            {
              "internalType": "uint256",
              "name": "projectId",
              "type": "uint256"
            },
            {
              "internalType": "uint256",
              "name": "amount",
              "type": "uint256"
            },
            {
              "internalType": "string",
              "name": "plantType",
              "type": "string"
            },
            {
              "internalType": "string",
              "name": "message",
              "type": "string"
            },
            {
              "internalType": "uint256",
              "name": "timestamp",
              "type": "uint256"
            },
            {
              "internalType": "bool",
              "name": "rewardsClaimed",
              "type": "bool"
            }
          ],
          "internalType": "struct LeafCore.Donation",
          "name": "",
          "type": "tuple"
        }
      ],
      "stateMutability": "view",
      "type": "function"
    },
    {
      "inputs": [
        {
          "internalType": "address",
          "name": "user",
          "type": "address"
        }
      ],
      "name": "getUserDonations",
      "outputs": [
        {
          "internalType": "uint256[]",
          "name": "",
          "type": "uint256[]"
        }
      ],
      "stateMutability": "view",
      "type": "function"
    },
    {
      "inputs": [
        {
          "internalType": "address",
          "name": "user",
          "type": "address"
        }
      ],
      "name": "getUserRecurringDonations",
      "outputs": [
        {
          "components": [
            {
              "internalType": "address",
              "name": "donor",
              "type": "address"
            },
            {
              "internalType": "uint256",
              "name": "projectId",
              "type": "uint256"
            },
            {
              "internalType": "uint256",
              "name": "amount",
              "type": "uint256"
            },
            {
              "internalType": "uint256",
              "name": "frequency",
              "type": "uint256"
            },
            {
              "internalType": "uint256",
              "name": "nextDonation",
              "type": "uint256"
            },
            {
              "internalType": "bool",
              "name": "active",
              "type": "bool"
            }
          ],
          "internalType": "struct LeafCore.RecurringDonation[]",
          "name": "",
          "type": "tuple[]"
        }
      ],
      "stateMutability": "view",
      "type": "function"
    },
    {
      "inputs": [
        {
          "internalType": "address",
          "name": "user",
          "type": "address"
        }
      ],
      "name": "getUserStats",
      "outputs": [
        {
          "components": [
            {
              "internalType": "uint256",
              "name": "totalDonations",
              "type": "uint256"
            },
            {
              "internalType": "uint256",
              "name": "totalAmount",
              "type": "uint256"
            },
            {
              "internalType": "uint256",
              "name": "leafTokensEarned",
              "type": "uint256"
            },
            {
              "internalType": "uint256",
              "name": "nftsEarned",
              "type": "uint256"
            },
            {
              "internalType": "uint256",
              "name": "lastDonation",
              "type": "uint256"
            }
          ],
          "internalType": "struct LeafCore.UserStats",
          "name": "",
          "type": "tuple"
        }
      ],
      "stateMutability": "view",
      "type": "function"
    },
    {
      "inputs": [],
      "name": "leafDAO",
      "outputs": [
        {
          "internalType": "address",
          "name": "",
          "type": "address"
        }
      ],
      "stateMutability": "view",
      "type": "function"
    },
    {
      "inputs": [],
      "name": "leafToken",
      "outputs": [
        {
          "internalType": "contract LeafToken",
          "name": "",
          "type": "address"
        }
      ],
      "stateMutability": "view",
      "type": "function"
    },
    {
      "inputs": [
        {
          "internalType": "address",
          "name": "",
          "type": "address"
        }
      ],
      "name": "operators",
      "outputs": [
        {
          "internalType": "bool",
          "name": "",
          "type": "bool"
        }
      ],
      "stateMutability": "view",
      "type": "function"
    },
    {
      "inputs": [],
      "name": "owner",
      "outputs": [
        {
          "internalType": "address",
          "name": "",
          "type": "address"
        }
      ],
      "stateMutability": "view",
      "type": "function"
    },
    {
      "inputs": [],
      "name": "plantNFT",
      "outputs": [
        {
          "internalType": "contract PlantNFT",
          "name": "",
          "type": "address"
        }
      ],
      "stateMutability": "view",
      "type": "function"
    },
    {
      "inputs": [],
      "name": "platformFee",
      "outputs": [
        {
          "internalType": "uint256",
          "name": "",
          "type": "uint256"
        }
      ],
      "stateMutability": "view",
      "type": "function"
    },
    {
      "inputs": [
        {
          "internalType": "address[]",
          "name": "users",
          "type": "address[]"
        }
      ],
      "name": "processRecurringDonations",
      "outputs": [],
      "stateMutability": "nonpayable",
      "type": "function"
    },
    {
      "inputs": [],
      "name": "projectRegistry",
      "outputs": [
        {
          "internalType": "contract ProjectRegistry",
          "name": "",
          "type": "address"
        }
      ],
      "stateMutability": "view",
      "type": "function"
    },
    {
      "inputs": [
        {
          "internalType": "address",
          "name": "operator",
          "type": "address"
        }
      ],
      "name": "removeOperator",
      "outputs": [],
      "stateMutability": "nonpayable",
      "type": "function"
    },
    {
      "inputs": [],
      "name": "renounceOwnership",
      "outputs": [],
      "stateMutability": "nonpayable",
      "type": "function"
    },
    {
      "inputs": [
        {
          "internalType": "uint256",
          "name": "newFee",
          "type": "uint256"
        }
      ],
      "name": "setPlatformFee",
      "outputs": [],
      "stateMutability": "nonpayable",
      "type": "function"
    },
    {
      "inputs": [
        {
          "internalType": "uint256",
          "name": "projectId",
          "type": "uint256"
        },
        {
          "internalType": "uint256",
          "name": "amount",
          "type": "uint256"
        },
        {
          "internalType": "uint256",
          "name": "frequency",
          "type": "uint256"
        },
        {
          "internalType": "string",
          "name": "plantType",
          "type": "string"
        }
      ],
      "name": "setRecurringDonation",
      "outputs": [],
      "stateMutability": "nonpayable",
      "type": "function"
    },
    {
      "inputs": [],
      "name": "totalDonations",
      "outputs": [
        {
          "internalType": "uint256",
          "name": "",
          "type": "uint256"
        }
      ],
      "stateMutability": "view",
      "type": "function"
    },
    {
      "inputs": [
        {
          "internalType": "address",
          "name": "newOwner",
          "type": "address"
        }
      ],
      "name": "transferOwnership",
      "outputs": [],
      "stateMutability": "nonpayable",
      "type": "function"
    },
    {
      "inputs": [
        {
          "internalType": "address",
          "name": "",
          "type": "address"
        },
        {
          "internalType": "uint256",
          "name": "",
          "type": "uint256"
        }
      ],
      "name": "userDonations",
      "outputs": [
        {
          "internalType": "uint256",
          "name": "",
          "type": "uint256"
        }
      ],
      "stateMutability": "view",
      "type": "function"
    },
    {
      "inputs": [
        {
          "internalType": "address",
          "name": "",
          "type": "address"
        },
        {
          "internalType": "uint256",
          "name": "",
          "type": "uint256"
        }
      ],
      "name": "userRecurringDonations",
      "outputs": [
        {
          "internalType": "address",
          "name": "donor",
          "type": "address"
        },
        {
          "internalType": "uint256",
          "name": "projectId",
          "type": "uint256"
        },
        {
          "internalType": "uint256",
          "name": "amount",
          "type": "uint256"
        },
        {
          "internalType": "uint256",
          "name": "frequency",
          "type": "uint256"
        },
        {
          "internalType": "uint256",
          "name": "nextDonation",
          "type": "uint256"
        },
        {
          "internalType": "bool",
          "name": "active",
          "type": "bool"
        }
      ],
      "stateMutability": "view",
      "type": "function"
    },
    {
      "inputs": [
        {
          "internalType": "address",
          "name": "",
          "type": "address"
        }
      ],
      "name": "userStats",
      "outputs": [
        {
          "internalType": "uint256",
          "name": "totalDonations",
          "type": "uint256"
        },
        {
          "internalType": "uint256",
          "name": "totalAmount",
          "type": "uint256"
        },
        {
          "internalType": "uint256",
          "name": "leafTokensEarned",
          "type": "uint256"
        },
        {
          "internalType": "uint256",
          "name": "nftsEarned",
          "type": "uint256"
        },
        {
          "internalType": "uint256",
          "name": "lastDonation",
          "type": "uint256"
        }
      ],
      "stateMutability": "view",
      "type": "function"
    },
    {
      "inputs": [
        {
          "internalType": "uint256",
          "name": "amount",
          "type": "uint256"
        }
      ],
      "name": "withdrawFees",
      "outputs": [],
      "stateMutability": "nonpayable",
      "type": "function"
    }
  ],
  "bytecode": "0x608060405260fa600c553480156200001657600080fd5b506040516200299738038062002997833981016040819052620000399162000127565b6200004433620000ba565b6001808055600380546001600160a01b03199081166001600160a01b03988916179091556004805482169688169690961790955560058054861694871694909417909355600680549094169185169190911790925591166000908152600b60205260409020805460ff1916909117905562000197565b600080546001600160a01b038381166001600160a01b0319831681178455604051919092169283917f8be0079c531659141344cd1fd0a4f28419497f9722a3daafe3b4186f6b6457e09190a35050565b80516001600160a01b03811681146200012257600080fd5b919050565b600080600080600060a086880312156200014057600080fd5b6200014b866200010a565b94506200015b602087016200010a565b93506200016b604087016200010a565b92506200017b606087016200010a565b91506200018b608087016200010a565b90509295509295909350565b6127f080620001a76000396000f3fe6080604052600436106101e25760003560e01c806376b07abd11610102578063ac8a584a11610095578063e49dc17f11610064578063e49dc17f14610642578063ef07a81f14610657578063f2fde38b14610684578063f8626af8146106a457600080fd5b8063ac8a584a146105c5578063bee0a1ea146105e5578063db45810e14610612578063de2ed8931461062d57600080fd5b8063906b5ef6116100d1578063906b5ef61461054a57806393c494841461056a5780639870d7fe14610585578063abf084a3146105a557600080fd5b806376b07abd146104875780637fce7e88146104a75780638a65d874146104ba5780638da5cb5b1461052c57600080fd5b806351858e271161017a578063660a071d11610149578063660a071d146103cc5780636e81805a146103ec578063715018a614610445578063732435b21461045a57600080fd5b806351858e271461033f5780635a33d8dc146103545780635e318e071461038c57806365cd5b7a146103ac57600080fd5b80633998a681116101b65780633998a68114610287578063488e6fa11461029d5780634933e631146102bd5780634e43603a146102dd57600080fd5b80622cb27c146101e757806312e8e2c31461020f57806313e7c9d81461023157806326232a2e14610271575b600080fd5b3480156101f357600080fd5b506101fc600a81565b6040519081526020015b60405180910390f35b34801561021b57600080fd5b5061022f61022a366004611e88565b6106d8565b005b34801561023d57600080fd5b5061026161024c366004611ebd565b600b6020526000908152604090205460ff1681565b6040519015158152602001610206565b34801561027d57600080fd5b506101fc600c5481565b34801561029357600080fd5b506101fc6101f481565b3480156102a957600080fd5b5061022f6102b8366004611e88565b610735565b3480156102c957600080fd5b506101fc6102d8366004611edf565b61084c565b3480156102e957600080fd5b506102fd6102f8366004611ebd565b61087d565b6040516102069190600060a082019050825182526020830151602083015260408301516040830152606083015160608301526080830151608083015292915050565b34801561034b57600080fd5b5061022f610907565b34801561036057600080fd5b50600554610374906001600160a01b031681565b6040516001600160a01b039091168152602001610206565b34801561039857600080fd5b5061022f6103a7366004611e88565b610911565b3480156103b857600080fd5b5061022f6103c7366004611fc0565b6109a6565b3480156103d857600080fd5b50600354610374906001600160a01b031681565b3480156103f857600080fd5b5061040c610407366004611edf565b610bcc565b604080516001600160a01b03909716875260208701959095529385019290925260608401526080830152151560a082015260c001610206565b34801561045157600080fd5b5061022f610c2d565b34801561046657600080fd5b5061047a610475366004611ebd565b610c3f565b604051610206919061201a565b34801561049357600080fd5b5061022f6104a236600461205e565b610cab565b61022f6104b536600461210b565b6111df565b3480156104c657600080fd5b506105046104d5366004611ebd565b600a60205260009081526040902080546001820154600283015460038401546004909401549293919290919085565b604080519586526020860194909452928401919091526060830152608082015260a001610206565b34801561053857600080fd5b506000546001600160a01b0316610374565b34801561055657600080fd5b50600654610374906001600160a01b031681565b34801561057657600080fd5b506101fc662386f26fc1000081565b34801561059157600080fd5b5061022f6105a0366004611ebd565b611483565b3480156105b157600080fd5b50600454610374906001600160a01b031681565b3480156105d157600080fd5b5061022f6105e0366004611ebd565b6114af565b3480156105f157600080fd5b50610605610600366004611ebd565b6114d8565b6040516102069190612178565b34801561061e57600080fd5b506101fc66038d7ea4c6800081565b34801561063957600080fd5b506101fc611591565b34801561064e57600080fd5b506101fc606481565b34801561066357600080fd5b50610677610672366004611e88565b6115a1565b604051610206919061224b565b34801561069057600080fd5b5061022f61069f366004611ebd565b6117fb565b3480156106b057600080fd5b506106c46106bf366004611e88565b611874565b6040516102069897969594939291906122e0565b6106e06119d5565b6101f48111156107305760405162461bcd60e51b8152602060048201526016602482015275098cac2cc86dee4ca7440cccaca40e8dede40d0d2ced60531b60448201526064015b60405180910390fd5b600c55565b3360009081526009602052604090205481106107a65760405162461bcd60e51b815260206004820152602a60248201527f4c656166436f72653a20696e76616c696420726563757272696e6720646f6e616044820152690e8d2dedc40d2dcc8caf60b31b6064820152608401610727565b3360009081526009602052604081208054839081106107c7576107c7612345565b60009182526020808320600692909202909101600501805460ff19169315159390931790925533815260099091526040902080548290811061080b5761080b612345565b60009182526020822060016006909202010154604051909133917f8e8eea674143c9b55d41020ff1edff0d9d14164341b8b8b77224bc97ad9d1bda9190a350565b6008602052816000526040600020818154811061086857600080fd5b90600052602060002001600091509150505481565b6108af6040518060a0016040528060008152602001600081526020016000815260200160008152602001600081525090565b506001600160a01b03166000908152600a6020908152604091829020825160a0810184528154815260018201549281019290925260028101549282019290925260038201546060820152600490910154608082015290565b61090f6119d5565b565b6109196119d5565b478111156109695760405162461bcd60e51b815260206004820152601e60248201527f4c656166436f72653a20696e73756666696369656e742062616c616e636500006044820152606401610727565b600080546040516001600160a01b039091169183156108fc02918491818181858888f193505050501580156109a2573d6000803e3d6000fd5b5050565b8266038d7ea4c680008110156109fe5760405162461bcd60e51b815260206004820152601c60248201527f4c656166436f72653a20646f6e6174696f6e20746f6f20736d616c6c000000006044820152606401610727565b62015180831015610a515760405162461bcd60e51b815260206004820152601d60248201527f4c656166436f72653a206672657175656e637920746f6f2073686f72740000006044820152606401610727565b33600090815260096020526040902054600a11610abf5760405162461bcd60e51b815260206004820152602660248201527f4c656166436f72653a20746f6f206d616e7920726563757272696e6720646f6e6044820152656174696f6e7360d01b6064820152608401610727565b60006040518060c00160405280336001600160a01b031681526020018781526020018681526020018581526020018542610af99190612371565b8152600160209182018190523360008181526009845260408082208054808601825590835291859020865160069093020180546001600160a01b0319166001600160a01b039093169290921782558585015193820193909355848301516002820155606085015160038201556080850151600482015560a08501516005909101805460ff191691151591909117905581518981529283018890529293508892917f26e02be8fd65f461689692cb85b1c35d133e6cf8c811b0ab25d3efcbce424412910160405180910390a3505050505050565b60096020528160005260406000208181548110610be857600080fd5b60009182526020909120600690910201805460018201546002830154600384015460048501546005909501546001600160a01b03909416965091945092909160ff1686565b610c356119d5565b61090f6000611a2f565b6001600160a01b038116600090815260086020908152604091829020805483518184028101840190945280845260609392830182828015610c9f57602002820191906000526020600020905b815481526020019060010190808311610c8b575b50505050509050919050565b336000908152600b602052604090205460ff1680610cd357506000546001600160a01b031633145b610d2b5760405162461bcd60e51b815260206004820152602360248201527f4c656166436f72653a2063616c6c6572206973206e6f7420616e206f706572616044820152623a37b960e91b6064820152608401610727565b60005b81518110156109a2576000828281518110610d4b57610d4b612345565b6020908102919091018101516001600160a01b0381166000908152600990925260408220909250905b81548110156111c957818181548110610d8f57610d8f612345565b600091825260209091206005600690920201015460ff168015610dd55750818181548110610dbf57610dbf612345565b9060005260206000209060060201600401544210155b156111b7576000612710600c54848481548110610df457610df4612345565b906000526020600020906006020160020154610e10919061238a565b610e1a91906123a1565b9050600081848481548110610e3157610e31612345565b906000526020600020906006020160020154610e4d91906123c3565b9050838381548110610e6157610e61612345565b90600052602060002090600602016003015442610e7e9190612371565b848481548110610e9057610e90612345565b906000526020600020906006020160040181905550610eb3600280546001019055565b6000610ebe60025490565b9050604051806101000160405280828152602001876001600160a01b03168152602001868681548110610ef357610ef3612345565b60009182526020808320600160069093020182015484528381018790526040805180820182526009815268526563757272696e6760b81b81840152818601528051808201825260128152712932b1bab93934b733903237b730ba34b7b760711b818401526060808701919091524260808088019190915260a09096018590528785526007835293819020865181559186015192820180546001600160a01b039094166001600160a01b031990941693909317909255908401516002820155908301516003820155908201516004820190610fcd908261245e565b5060a08201516005820190610fe2908261245e565b5060c0820151600682015560e0909101516007909101805460ff19169115159190911790556001600160a01b0386166000818152600860209081526040808320805460018101825590845282842001859055928252600a905290812080549091829061104d8361251e565b9190505550828160010160008282546110669190612371565b909155505042600482015560055486546001600160a01b0390911690638d3ad7e190859089908990811061109c5761109c612345565b9060005260206000209060060201600101546040518363ffffffff1660e01b81526004016110ca9190612537565b6000604051808303818588803b1580156110e357600080fd5b505af11580156110f7573d6000803e3d6000fd5b505050505061114c878460405180604001604052806009815260200168526563757272696e6760b81b81525089898154811061113557611135612345565b906000526020600020906006020160010154611a7f565b85858154811061115e5761115e612345565b906000526020600020906006020160010154876001600160a01b0316837fe0ba4720c4dc1bfca14ede39855b750ab7bc8bc1dc2c7923715e5cbaa96d632d866040516111aa919061256f565b60405180910390a4505050505b806111c18161251e565b915050610d74565b50505080806111d79061251e565b915050610d2e565b6111e7611cc4565b3466038d7ea4c6800081101561123f5760405162461bcd60e51b815260206004820152601c60248201527f4c656166436f72653a20646f6e6174696f6e20746f6f20736d616c6c000000006044820152606401610727565b6000612710600c5434611252919061238a565b61125c91906123a1565b9050600061126a82346123c3565b905061127a600280546001019055565b600061128560025490565b60408051610100810182528281523360208083019182528284018c815260608401888152608085018d815260a086018d90524260c0870152600060e087018190528881526007909452959092208451815592516001840180546001600160a01b0319166001600160a01b03909216919091179055516002830155516003820155915192935091600482019061131a908261245e565b5060a0820151600582019061132f908261245e565b5060c0820151600682015560e0909101516007909101805460ff1916911515919091179055336000818152600860209081526040808320805460018101825590845282842001859055928252600a90529081208054909182906113918361251e565b9190505550828160010160008282546113aa9190612371565b909155505042600480830191909155600554604051638d3ad7e160e01b81526001600160a01b0390911691638d3ad7e19186916113eb918d918c91016125c7565b6000604051808303818588803b15801561140457600080fd5b505af1158015611418573d6000803e3d6000fd5b50505050506114293384898b611a7f565b87336001600160a01b0316837fe0ba4720c4dc1bfca14ede39855b750ab7bc8bc1dc2c7923715e5cbaa96d632d868b8b604051611468939291906125e8565b60405180910390a4505050505061147e60018055565b505050565b61148b6119d5565b6001600160a01b03166000908152600b60205260409020805460ff19166001179055565b6114b76119d5565b6001600160a01b03166000908152600b60205260409020805460ff19169055565b6001600160a01b0381166000908152600960209081526040808320805482518185028101850190935280835260609492939192909184015b828210156115865760008481526020908190206040805160c0810182526006860290920180546001600160a01b031683526001808201548486015260028201549284019290925260038101546060840152600481015460808401526005015460ff16151560a08301529083529092019101611510565b505050509050919050565b600061159c60025490565b905090565b6115f46040518061010001604052806000815260200160006001600160a01b0316815260200160008152602001600081526020016060815260200160608152602001600081526020016000151581525090565b6000828152600760205260409020600101546001600160a01b03166116655760405162461bcd60e51b815260206004820152602160248201527f4c656166436f72653a20646f6e6174696f6e20646f6573206e6f7420657869736044820152601d60fa1b6064820152608401610727565b6000828152600760209081526040918290208251610100810184528154815260018201546001600160a01b031692810192909252600281015492820192909252600382015460608201526004820180549192916080840191906116c7906123d6565b80601f01602080910402602001604051908101604052809291908181526020018280546116f3906123d6565b80156117405780601f1061171557610100808354040283529160200191611740565b820191906000526020600020905b81548152906001019060200180831161172357829003601f168201915b50505050508152602001600582018054611759906123d6565b80601f0160208091040260200160405190810160405280929190818152602001828054611785906123d6565b80156117d25780601f106117a7576101008083540402835291602001916117d2565b820191906000526020600020905b8154815290600101906020018083116117b557829003601f168201915b50505091835250506006820154602082015260079091015460ff16151560409091015292915050565b6118036119d5565b6001600160a01b0381166118685760405162461bcd60e51b815260206004820152602660248201527f4f776e61626c653a206e6577206f776e657220697320746865207a65726f206160448201526564647265737360d01b6064820152608401610727565b61187181611a2f565b50565b6007602052600090815260409020805460018201546002830154600384015460048501805494956001600160a01b0390941694929391926118b4906123d6565b80601f01602080910402602001604051908101604052809291908181526020018280546118e0906123d6565b801561192d5780601f106119025761010080835404028352916020019161192d565b820191906000526020600020905b81548152906001019060200180831161191057829003601f168201915b505050505090806005018054611942906123d6565b80601f016020809104026020016040519081016040528092919081815260200182805461196e906123d6565b80156119bb5780601f10611990576101008083540402835291602001916119bb565b820191906000526020600020905b81548152906001019060200180831161199e57829003601f168201915b50505050600683015460079093015491929160ff16905088565b6000546001600160a01b0316331461090f5760405162461bcd60e51b815260206004820181905260248201527f4f776e61626c653a2063616c6c6572206973206e6f7420746865206f776e65726044820152606401610727565b600080546001600160a01b038381166001600160a01b0319831681178455604051919092169283917f8be0079c531659141344cd1fd0a4f28419497f9722a3daafe3b4186f6b6457e09190a35050565b6000662386f26fc10000611a9460648661238a565b611a9e91906123a1565b90508015611b3b576003546040516334ff261960e21b81526001600160a01b039091169063d3fc986490611ad8908890859060040161261d565b600060405180830381600087803b158015611af257600080fd5b505af1158015611b06573d6000803e3d6000fd5b505050506001600160a01b0385166000908152600a602052604081206002018054839290611b35908490612371565b90915550505b662386f26fc100008410611c78576000611b56848685611d1d565b60048054604051622e041360e11b81529293506000926001600160a01b0390911691625c082691611b8f918b918a918c91899101612662565b6020604051808303816000875af1158015611bae573d6000803e3d6000fd5b505050506040513d601f19601f82011682018060405250810190611bd291906126ca565b6001600160a01b0388166000908152600a60205260408120600301805492935090611bfc8361251e565b9190505550866001600160a01b03167f02b36122f7f970fa6dbecd52a1840d5dd984239d0f82ddca0ec601e8d04dd4a68483604051611c699291909182526020820152606060408201819052600c908201526b191bdb985d1a5bdb97db999d60a21b608082015260a00190565b60405180910390a25050611cbd565b846001600160a01b03167f02b36122f7f970fa6dbecd52a1840d5dd984239d0f82ddca0ec601e8d04dd4a6826000604051611cb49291906126e3565b60405180910390a25b5050505050565b600260015403611d165760405162461bcd60e51b815260206004820152601f60248201527f5265656e7472616e637947756172643a207265656e7472616e742063616c6c006044820152606401610727565b6002600155565b6060611d2882611d5c565b84611d3285611d5c565b604051602001611d449392919061271e565b60405160208183030381529060405290509392505050565b606081600003611d835750506040805180820190915260018152600360fc1b602082015290565b8160005b8115611dad5780611d978161251e565b9150611da69050600a836123a1565b9150611d87565b60008167ffffffffffffffff811115611dc857611dc8611f09565b6040519080825280601f01601f191660200182016040528015611df2576020820181803683370190505b509050815b8515611e7f57611e086001826123c3565b90506000611e17600a886123a1565b611e2290600a61238a565b611e2c90886123c3565b611e379060306127a1565b905060008160f81b905080848481518110611e5457611e54612345565b60200101906001600160f81b031916908160001a905350611e76600a896123a1565b97505050611df7565b50949350505050565b600060208284031215611e9a57600080fd5b5035919050565b80356001600160a01b0381168114611eb857600080fd5b919050565b600060208284031215611ecf57600080fd5b611ed882611ea1565b9392505050565b60008060408385031215611ef257600080fd5b611efb83611ea1565b946020939093013593505050565b634e487b7160e01b600052604160045260246000fd5b604051601f8201601f1916810167ffffffffffffffff81118282101715611f4857611f48611f09565b604052919050565b600082601f830112611f6157600080fd5b813567ffffffffffffffff811115611f7b57611f7b611f09565b611f8e601f8201601f1916602001611f1f565b818152846020838601011115611fa357600080fd5b816020850160208301376000918101602001919091529392505050565b60008060008060808587031215611fd657600080fd5b843593506020850135925060408501359150606085013567ffffffffffffffff81111561200257600080fd5b61200e87828801611f50565b91505092959194509250565b6020808252825182820181905260009190848201906040850190845b8181101561205257835183529284019291840191600101612036565b50909695505050505050565b6000602080838503121561207157600080fd5b823567ffffffffffffffff8082111561208957600080fd5b818501915085601f83011261209d57600080fd5b8135818111156120af576120af611f09565b8060051b91506120c0848301611f1f565b81815291830184019184810190888411156120da57600080fd5b938501935b838510156120ff576120f085611ea1565b825293850193908501906120df565b98975050505050505050565b60008060006060848603121561212057600080fd5b83359250602084013567ffffffffffffffff8082111561213f57600080fd5b61214b87838801611f50565b9350604086013591508082111561216157600080fd5b5061216e86828701611f50565b9150509250925092565b602080825282518282018190526000919060409081850190868401855b828110156121ee57815180516001600160a01b0316855286810151878601528581015186860152606080820151908601526080808201519086015260a09081015115159085015260c09093019290850190600101612195565b5091979650505050505050565b60005b838110156122165781810151838201526020016121fe565b50506000910152565b600081518084526122378160208601602086016121fb565b601f01601f19169290920160200192915050565b602081528151602082015260018060a01b0360208301511660408201526040820151606082015260608201516080820152600060808301516101008060a085015261229a61012085018361221f565b915060a0850151601f198584030160c08601526122b7838261221f565b92505060c085015160e085015260e08501516122d68286018215159052565b5090949350505050565b60006101008a835260018060a01b038a1660208401528860408401528760608401528060808401526123148184018861221f565b905082810360a0840152612328818761221f565b60c0840195909552505090151560e0909101529695505050505050565b634e487b7160e01b600052603260045260246000fd5b634e487b7160e01b600052601160045260246000fd5b808201808211156123845761238461235b565b92915050565b80820281158282048414176123845761238461235b565b6000826123be57634e487b7160e01b600052601260045260246000fd5b500490565b818103818111156123845761238461235b565b600181811c908216806123ea57607f821691505b60208210810361240a57634e487b7160e01b600052602260045260246000fd5b50919050565b601f82111561147e57600081815260208120601f850160051c810160208610156124375750805b601f850160051c820191505b8181101561245657828155600101612443565b505050505050565b815167ffffffffffffffff81111561247857612478611f09565b61248c8161248684546123d6565b84612410565b602080601f8311600181146124c157600084156124a95750858301515b600019600386901b1c1916600185901b178555612456565b600085815260208120601f198616915b828110156124f0578886015182559484019460019091019084016124d1565b508582101561250e5787850151600019600388901b60f8161c191681555b5050505050600190811b01905550565b6000600182016125305761253061235b565b5060010190565b818152604060208201526000611ed86040830160128152712932b1bab93934b733903237b730ba34b7b760711b602082015260400190565b818152606060208201526009606082015268526563757272696e6760b81b608082015260a060408201526000611ed860a0830160128152712932b1bab93934b733903237b730ba34b7b760711b602082015260400190565b8281526040602082015260006125e0604083018461221f565b949350505050565b838152606060208201526000612601606083018561221f565b8281036040840152612613818561221f565b9695505050505050565b6001600160a01b038316815260208101829052606060408201819052600f908201526e191bdb985d1a5bdb97dc995dd85c99608a1b6080820152600060a082016125e0565b6001600160a01b038516815260a0602082018190526000906126869083018661221f565b846040840152828103806060850152600682526511db1bd8985b60d21b6020830152604081016080850152506126bf604082018561221f565b979650505050505050565b6000602082840312156126dc57600080fd5b5051919050565b8281528160208201526060604082015260006125e060608301600f81526e191bdb985d1a5bdb97dc995dd85c99608a1b602082015260400190565b7f68747470733a2f2f6c6561662e6d6f7270686c322e696f2f6170692f6e66742f8152600084516127568160208501602089016121fb565b8083019050602f60f81b8060208301528551612779816021850160208a016121fb565b602192019182015283516127948160228401602088016121fb565b0160220195945050505050565b60ff81811683821601908111156123845761238461235b56fea2646970667358221220be3d60494aa5f38029a866c27f6e3f2af0254c932e1aa532a0521114a5aae5f364736f6c63430008140033",
  "linkReferences": {},
  "deployedLinkReferences": {}
}